Archive member included to satisfy reference by file (symbol)

c:/program files (x86)/atollic/truestudio for stm32 9.0.0/armtools/bin/../lib/gcc/arm-atollic-eabi/6.3.1/../../../../arm-atollic-eabi/lib/armv7e-m/fpu/fpv5-sp-d16\libc_nano.a(lib_a-init.o)
                              Application\TrueSTUDIO\startup_stm32f746xx.o (__libc_init_array)
c:/program files (x86)/atollic/truestudio for stm32 9.0.0/armtools/bin/../lib/gcc/arm-atollic-eabi/6.3.1/../../../../arm-atollic-eabi/lib/armv7e-m/fpu/fpv5-sp-d16\libc_nano.a(lib_a-malloc.o)
                              Middlewares\USB_Host_Library\usbh_cdc.o (malloc)
c:/program files (x86)/atollic/truestudio for stm32 9.0.0/armtools/bin/../lib/gcc/arm-atollic-eabi/6.3.1/../../../../arm-atollic-eabi/lib/armv7e-m/fpu/fpv5-sp-d16\libc_nano.a(lib_a-memcmp.o)
                              Middlewares\LwIP\ethernet.o (memcmp)
c:/program files (x86)/atollic/truestudio for stm32 9.0.0/armtools/bin/../lib/gcc/arm-atollic-eabi/6.3.1/../../../../arm-atollic-eabi/lib/armv7e-m/fpu/fpv5-sp-d16\libc_nano.a(lib_a-memcpy-stub.o)
                              Application\User\ethernetif.o (memcpy)
c:/program files (x86)/atollic/truestudio for stm32 9.0.0/armtools/bin/../lib/gcc/arm-atollic-eabi/6.3.1/../../../../arm-atollic-eabi/lib/armv7e-m/fpu/fpv5-sp-d16\libc_nano.a(lib_a-memset.o)
                              Middlewares\FreeRTOS\tasks.o (memset)
c:/program files (x86)/atollic/truestudio for stm32 9.0.0/armtools/bin/../lib/gcc/arm-atollic-eabi/6.3.1/../../../../arm-atollic-eabi/lib/armv7e-m/fpu/fpv5-sp-d16\libc_nano.a(lib_a-nano-freer.o)
                              c:/program files (x86)/atollic/truestudio for stm32 9.0.0/armtools/bin/../lib/gcc/arm-atollic-eabi/6.3.1/../../../../arm-atollic-eabi/lib/armv7e-m/fpu/fpv5-sp-d16\libc_nano.a(lib_a-malloc.o) (_free_r)
c:/program files (x86)/atollic/truestudio for stm32 9.0.0/armtools/bin/../lib/gcc/arm-atollic-eabi/6.3.1/../../../../arm-atollic-eabi/lib/armv7e-m/fpu/fpv5-sp-d16\libc_nano.a(lib_a-nano-mallocr.o)
                              c:/program files (x86)/atollic/truestudio for stm32 9.0.0/armtools/bin/../lib/gcc/arm-atollic-eabi/6.3.1/../../../../arm-atollic-eabi/lib/armv7e-m/fpu/fpv5-sp-d16\libc_nano.a(lib_a-malloc.o) (_malloc_r)
c:/program files (x86)/atollic/truestudio for stm32 9.0.0/armtools/bin/../lib/gcc/arm-atollic-eabi/6.3.1/../../../../arm-atollic-eabi/lib/armv7e-m/fpu/fpv5-sp-d16\libc_nano.a(lib_a-printf.o)
                              Application\User\ethernetif.o (printf)
c:/program files (x86)/atollic/truestudio for stm32 9.0.0/armtools/bin/../lib/gcc/arm-atollic-eabi/6.3.1/../../../../arm-atollic-eabi/lib/armv7e-m/fpu/fpv5-sp-d16\libc_nano.a(lib_a-rand.o)
                              Middlewares\LwIP\dhcp.o (rand)
c:/program files (x86)/atollic/truestudio for stm32 9.0.0/armtools/bin/../lib/gcc/arm-atollic-eabi/6.3.1/../../../../arm-atollic-eabi/lib/armv7e-m/fpu/fpv5-sp-d16\libc_nano.a(lib_a-sbrkr.o)
                              c:/program files (x86)/atollic/truestudio for stm32 9.0.0/armtools/bin/../lib/gcc/arm-atollic-eabi/6.3.1/../../../../arm-atollic-eabi/lib/armv7e-m/fpu/fpv5-sp-d16\libc_nano.a(lib_a-nano-mallocr.o) (_sbrk_r)
c:/program files (x86)/atollic/truestudio for stm32 9.0.0/armtools/bin/../lib/gcc/arm-atollic-eabi/6.3.1/../../../../arm-atollic-eabi/lib/armv7e-m/fpu/fpv5-sp-d16\libc_nano.a(lib_a-sprintf.o)
                              Middlewares\FreeRTOS\tasks.o (sprintf)
c:/program files (x86)/atollic/truestudio for stm32 9.0.0/armtools/bin/../lib/gcc/arm-atollic-eabi/6.3.1/../../../../arm-atollic-eabi/lib/armv7e-m/fpu/fpv5-sp-d16\libc_nano.a(lib_a-strcpy.o)
                              Middlewares\FreeRTOS\tasks.o (strcpy)
c:/program files (x86)/atollic/truestudio for stm32 9.0.0/armtools/bin/../lib/gcc/arm-atollic-eabi/6.3.1/../../../../arm-atollic-eabi/lib/armv7e-m/fpu/fpv5-sp-d16\libc_nano.a(lib_a-strlen.o)
                              Middlewares\FreeRTOS\tasks.o (strlen)
c:/program files (x86)/atollic/truestudio for stm32 9.0.0/armtools/bin/../lib/gcc/arm-atollic-eabi/6.3.1/../../../../arm-atollic-eabi/lib/armv7e-m/fpu/fpv5-sp-d16\libc_nano.a(lib_a-strncmp.o)
                              Middlewares\LwIP\def.o (strncmp)
c:/program files (x86)/atollic/truestudio for stm32 9.0.0/armtools/bin/../lib/gcc/arm-atollic-eabi/6.3.1/../../../../arm-atollic-eabi/lib/armv7e-m/fpu/fpv5-sp-d16\libc_nano.a(lib_a-findfp.o)
                              c:/program files (x86)/atollic/truestudio for stm32 9.0.0/armtools/bin/../lib/gcc/arm-atollic-eabi/6.3.1/../../../../arm-atollic-eabi/lib/armv7e-m/fpu/fpv5-sp-d16\libc_nano.a(lib_a-printf.o) (__sinit)
c:/program files (x86)/atollic/truestudio for stm32 9.0.0/armtools/bin/../lib/gcc/arm-atollic-eabi/6.3.1/../../../../arm-atollic-eabi/lib/armv7e-m/fpu/fpv5-sp-d16\libc_nano.a(lib_a-fwalk.o)
                              c:/program files (x86)/atollic/truestudio for stm32 9.0.0/armtools/bin/../lib/gcc/arm-atollic-eabi/6.3.1/../../../../arm-atollic-eabi/lib/armv7e-m/fpu/fpv5-sp-d16\libc_nano.a(lib_a-findfp.o) (_fwalk)
c:/program files (x86)/atollic/truestudio for stm32 9.0.0/armtools/bin/../lib/gcc/arm-atollic-eabi/6.3.1/../../../../arm-atollic-eabi/lib/armv7e-m/fpu/fpv5-sp-d16\libc_nano.a(lib_a-impure.o)
                              c:/program files (x86)/atollic/truestudio for stm32 9.0.0/armtools/bin/../lib/gcc/arm-atollic-eabi/6.3.1/../../../../arm-atollic-eabi/lib/armv7e-m/fpu/fpv5-sp-d16\libc_nano.a(lib_a-findfp.o) (_global_impure_ptr)
c:/program files (x86)/atollic/truestudio for stm32 9.0.0/armtools/bin/../lib/gcc/arm-atollic-eabi/6.3.1/../../../../arm-atollic-eabi/lib/armv7e-m/fpu/fpv5-sp-d16\libc_nano.a(lib_a-mlock.o)
                              c:/program files (x86)/atollic/truestudio for stm32 9.0.0/armtools/bin/../lib/gcc/arm-atollic-eabi/6.3.1/../../../../arm-atollic-eabi/lib/armv7e-m/fpu/fpv5-sp-d16\libc_nano.a(lib_a-nano-freer.o) (__malloc_lock)
c:/program files (x86)/atollic/truestudio for stm32 9.0.0/armtools/bin/../lib/gcc/arm-atollic-eabi/6.3.1/../../../../arm-atollic-eabi/lib/armv7e-m/fpu/fpv5-sp-d16\libc_nano.a(lib_a-nano-svfprintf.o)
                              c:/program files (x86)/atollic/truestudio for stm32 9.0.0/armtools/bin/../lib/gcc/arm-atollic-eabi/6.3.1/../../../../arm-atollic-eabi/lib/armv7e-m/fpu/fpv5-sp-d16\libc_nano.a(lib_a-sprintf.o) (_svfprintf_r)
c:/program files (x86)/atollic/truestudio for stm32 9.0.0/armtools/bin/../lib/gcc/arm-atollic-eabi/6.3.1/../../../../arm-atollic-eabi/lib/armv7e-m/fpu/fpv5-sp-d16\libc_nano.a(lib_a-nano-vfprintf.o)
                              c:/program files (x86)/atollic/truestudio for stm32 9.0.0/armtools/bin/../lib/gcc/arm-atollic-eabi/6.3.1/../../../../arm-atollic-eabi/lib/armv7e-m/fpu/fpv5-sp-d16\libc_nano.a(lib_a-printf.o) (_vfprintf_r)
c:/program files (x86)/atollic/truestudio for stm32 9.0.0/armtools/bin/../lib/gcc/arm-atollic-eabi/6.3.1/../../../../arm-atollic-eabi/lib/armv7e-m/fpu/fpv5-sp-d16\libc_nano.a(lib_a-nano-vfprintf_i.o)
                              c:/program files (x86)/atollic/truestudio for stm32 9.0.0/armtools/bin/../lib/gcc/arm-atollic-eabi/6.3.1/../../../../arm-atollic-eabi/lib/armv7e-m/fpu/fpv5-sp-d16\libc_nano.a(lib_a-nano-svfprintf.o) (_printf_i)
c:/program files (x86)/atollic/truestudio for stm32 9.0.0/armtools/bin/../lib/gcc/arm-atollic-eabi/6.3.1/../../../../arm-atollic-eabi/lib/armv7e-m/fpu/fpv5-sp-d16\libc_nano.a(lib_a-stdio.o)
                              c:/program files (x86)/atollic/truestudio for stm32 9.0.0/armtools/bin/../lib/gcc/arm-atollic-eabi/6.3.1/../../../../arm-atollic-eabi/lib/armv7e-m/fpu/fpv5-sp-d16\libc_nano.a(lib_a-findfp.o) (__sread)
c:/program files (x86)/atollic/truestudio for stm32 9.0.0/armtools/bin/../lib/gcc/arm-atollic-eabi/6.3.1/../../../../arm-atollic-eabi/lib/armv7e-m/fpu/fpv5-sp-d16\libc_nano.a(lib_a-wbuf.o)
                              c:/program files (x86)/atollic/truestudio for stm32 9.0.0/armtools/bin/../lib/gcc/arm-atollic-eabi/6.3.1/../../../../arm-atollic-eabi/lib/armv7e-m/fpu/fpv5-sp-d16\libc_nano.a(lib_a-nano-vfprintf.o) (__swbuf_r)
c:/program files (x86)/atollic/truestudio for stm32 9.0.0/armtools/bin/../lib/gcc/arm-atollic-eabi/6.3.1/../../../../arm-atollic-eabi/lib/armv7e-m/fpu/fpv5-sp-d16\libc_nano.a(lib_a-writer.o)
                              c:/program files (x86)/atollic/truestudio for stm32 9.0.0/armtools/bin/../lib/gcc/arm-atollic-eabi/6.3.1/../../../../arm-atollic-eabi/lib/armv7e-m/fpu/fpv5-sp-d16\libc_nano.a(lib_a-stdio.o) (_write_r)
c:/program files (x86)/atollic/truestudio for stm32 9.0.0/armtools/bin/../lib/gcc/arm-atollic-eabi/6.3.1/../../../../arm-atollic-eabi/lib/armv7e-m/fpu/fpv5-sp-d16\libc_nano.a(lib_a-wsetup.o)
                              c:/program files (x86)/atollic/truestudio for stm32 9.0.0/armtools/bin/../lib/gcc/arm-atollic-eabi/6.3.1/../../../../arm-atollic-eabi/lib/armv7e-m/fpu/fpv5-sp-d16\libc_nano.a(lib_a-nano-vfprintf.o) (__swsetup_r)
c:/program files (x86)/atollic/truestudio for stm32 9.0.0/armtools/bin/../lib/gcc/arm-atollic-eabi/6.3.1/../../../../arm-atollic-eabi/lib/armv7e-m/fpu/fpv5-sp-d16\libc_nano.a(lib_a-closer.o)
                              c:/program files (x86)/atollic/truestudio for stm32 9.0.0/armtools/bin/../lib/gcc/arm-atollic-eabi/6.3.1/../../../../arm-atollic-eabi/lib/armv7e-m/fpu/fpv5-sp-d16\libc_nano.a(lib_a-stdio.o) (_close_r)
c:/program files (x86)/atollic/truestudio for stm32 9.0.0/armtools/bin/../lib/gcc/arm-atollic-eabi/6.3.1/../../../../arm-atollic-eabi/lib/armv7e-m/fpu/fpv5-sp-d16\libc_nano.a(lib_a-fflush.o)
                              c:/program files (x86)/atollic/truestudio for stm32 9.0.0/armtools/bin/../lib/gcc/arm-atollic-eabi/6.3.1/../../../../arm-atollic-eabi/lib/armv7e-m/fpu/fpv5-sp-d16\libc_nano.a(lib_a-findfp.o) (_fflush_r)
c:/program files (x86)/atollic/truestudio for stm32 9.0.0/armtools/bin/../lib/gcc/arm-atollic-eabi/6.3.1/../../../../arm-atollic-eabi/lib/armv7e-m/fpu/fpv5-sp-d16\libc_nano.a(lib_a-fvwrite.o)
                              c:/program files (x86)/atollic/truestudio for stm32 9.0.0/armtools/bin/../lib/gcc/arm-atollic-eabi/6.3.1/../../../../arm-atollic-eabi/lib/armv7e-m/fpu/fpv5-sp-d16\libc_nano.a(lib_a-nano-vfprintf.o) (__sfvwrite_r)
c:/program files (x86)/atollic/truestudio for stm32 9.0.0/armtools/bin/../lib/gcc/arm-atollic-eabi/6.3.1/../../../../arm-atollic-eabi/lib/armv7e-m/fpu/fpv5-sp-d16\libc_nano.a(lib_a-lseekr.o)
                              c:/program files (x86)/atollic/truestudio for stm32 9.0.0/armtools/bin/../lib/gcc/arm-atollic-eabi/6.3.1/../../../../arm-atollic-eabi/lib/armv7e-m/fpu/fpv5-sp-d16\libc_nano.a(lib_a-stdio.o) (_lseek_r)
c:/program files (x86)/atollic/truestudio for stm32 9.0.0/armtools/bin/../lib/gcc/arm-atollic-eabi/6.3.1/../../../../arm-atollic-eabi/lib/armv7e-m/fpu/fpv5-sp-d16\libc_nano.a(lib_a-makebuf.o)
                              c:/program files (x86)/atollic/truestudio for stm32 9.0.0/armtools/bin/../lib/gcc/arm-atollic-eabi/6.3.1/../../../../arm-atollic-eabi/lib/armv7e-m/fpu/fpv5-sp-d16\libc_nano.a(lib_a-wsetup.o) (__smakebuf_r)
c:/program files (x86)/atollic/truestudio for stm32 9.0.0/armtools/bin/../lib/gcc/arm-atollic-eabi/6.3.1/../../../../arm-atollic-eabi/lib/armv7e-m/fpu/fpv5-sp-d16\libc_nano.a(lib_a-memchr.o)
                              c:/program files (x86)/atollic/truestudio for stm32 9.0.0/armtools/bin/../lib/gcc/arm-atollic-eabi/6.3.1/../../../../arm-atollic-eabi/lib/armv7e-m/fpu/fpv5-sp-d16\libc_nano.a(lib_a-nano-svfprintf.o) (memchr)
c:/program files (x86)/atollic/truestudio for stm32 9.0.0/armtools/bin/../lib/gcc/arm-atollic-eabi/6.3.1/../../../../arm-atollic-eabi/lib/armv7e-m/fpu/fpv5-sp-d16\libc_nano.a(lib_a-memmove.o)
                              c:/program files (x86)/atollic/truestudio for stm32 9.0.0/armtools/bin/../lib/gcc/arm-atollic-eabi/6.3.1/../../../../arm-atollic-eabi/lib/armv7e-m/fpu/fpv5-sp-d16\libc_nano.a(lib_a-nano-svfprintf.o) (memmove)
c:/program files (x86)/atollic/truestudio for stm32 9.0.0/armtools/bin/../lib/gcc/arm-atollic-eabi/6.3.1/../../../../arm-atollic-eabi/lib/armv7e-m/fpu/fpv5-sp-d16\libc_nano.a(lib_a-nano-reallocr.o)
                              c:/program files (x86)/atollic/truestudio for stm32 9.0.0/armtools/bin/../lib/gcc/arm-atollic-eabi/6.3.1/../../../../arm-atollic-eabi/lib/armv7e-m/fpu/fpv5-sp-d16\libc_nano.a(lib_a-nano-svfprintf.o) (_realloc_r)
c:/program files (x86)/atollic/truestudio for stm32 9.0.0/armtools/bin/../lib/gcc/arm-atollic-eabi/6.3.1/../../../../arm-atollic-eabi/lib/armv7e-m/fpu/fpv5-sp-d16\libc_nano.a(lib_a-readr.o)
                              c:/program files (x86)/atollic/truestudio for stm32 9.0.0/armtools/bin/../lib/gcc/arm-atollic-eabi/6.3.1/../../../../arm-atollic-eabi/lib/armv7e-m/fpu/fpv5-sp-d16\libc_nano.a(lib_a-stdio.o) (_read_r)
c:/program files (x86)/atollic/truestudio for stm32 9.0.0/armtools/bin/../lib/gcc/arm-atollic-eabi/6.3.1/../../../../arm-atollic-eabi/lib/armv7e-m/fpu/fpv5-sp-d16\libc_nano.a(lib_a-fstatr.o)
                              c:/program files (x86)/atollic/truestudio for stm32 9.0.0/armtools/bin/../lib/gcc/arm-atollic-eabi/6.3.1/../../../../arm-atollic-eabi/lib/armv7e-m/fpu/fpv5-sp-d16\libc_nano.a(lib_a-makebuf.o) (_fstat_r)
c:/program files (x86)/atollic/truestudio for stm32 9.0.0/armtools/bin/../lib/gcc/arm-atollic-eabi/6.3.1/../../../../arm-atollic-eabi/lib/armv7e-m/fpu/fpv5-sp-d16\libc_nano.a(lib_a-isattyr.o)
                              c:/program files (x86)/atollic/truestudio for stm32 9.0.0/armtools/bin/../lib/gcc/arm-atollic-eabi/6.3.1/../../../../arm-atollic-eabi/lib/armv7e-m/fpu/fpv5-sp-d16\libc_nano.a(lib_a-makebuf.o) (_isatty_r)
c:/program files (x86)/atollic/truestudio for stm32 9.0.0/armtools/bin/../lib/gcc/arm-atollic-eabi/6.3.1/../../../../arm-atollic-eabi/lib/armv7e-m/fpu/fpv5-sp-d16\libc_nano.a(lib_a-nano-msizer.o)
                              c:/program files (x86)/atollic/truestudio for stm32 9.0.0/armtools/bin/../lib/gcc/arm-atollic-eabi/6.3.1/../../../../arm-atollic-eabi/lib/armv7e-m/fpu/fpv5-sp-d16\libc_nano.a(lib_a-nano-reallocr.o) (_malloc_usable_size_r)
c:/program files (x86)/atollic/truestudio for stm32 9.0.0/armtools/bin/../lib/gcc/arm-atollic-eabi/6.3.1/armv7e-m/fpu/fpv5-sp-d16\libgcc.a(_aeabi_uldivmod.o)
                              Drivers\STM32F7xx_HAL_Driver\stm32f7xx_hal_rcc.o (__aeabi_uldivmod)
c:/program files (x86)/atollic/truestudio for stm32 9.0.0/armtools/bin/../lib/gcc/arm-atollic-eabi/6.3.1/armv7e-m/fpu/fpv5-sp-d16\libgcc.a(_udivmoddi4.o)
                              c:/program files (x86)/atollic/truestudio for stm32 9.0.0/armtools/bin/../lib/gcc/arm-atollic-eabi/6.3.1/armv7e-m/fpu/fpv5-sp-d16\libgcc.a(_aeabi_uldivmod.o) (__udivmoddi4)
c:/program files (x86)/atollic/truestudio for stm32 9.0.0/armtools/bin/../lib/gcc/arm-atollic-eabi/6.3.1/armv7e-m/fpu/fpv5-sp-d16\libgcc.a(_dvmd_tls.o)
                              c:/program files (x86)/atollic/truestudio for stm32 9.0.0/armtools/bin/../lib/gcc/arm-atollic-eabi/6.3.1/armv7e-m/fpu/fpv5-sp-d16\libgcc.a(_aeabi_uldivmod.o) (__aeabi_ldiv0)

Allocating common symbols
Common symbol       size              file

hsai_BlockB2        0x84              Application\User\main.o
netif_list          0x4               Middlewares\LwIP\netif.o
retSD               0x1               Application\User\fatfs.o
myRecursiveMutex02Handle
                    0x4               Application\User\main.o
defaultTaskHandle   0x4               Application\User\main.o
hi2c3               0x4c              Application\User\main.o
myRecursiveMutex01Handle
                    0x4               Application\User\main.o
hspi2               0x64              Application\User\main.o
lock_tcpip_core     0x4               Middlewares\LwIP\tcpip.o
ip_data             0x18              Middlewares\LwIP\ip.o
htim8               0x40              Application\User\main.o
hspdif              0x4c              Application\User\main.o
memp_memory_NETBUF_base
                    0x23              Middlewares\LwIP\memp.o
tcp_active_pcbs_changed
                    0x1               Middlewares\LwIP\tcp.o
tcp_active_pcbs     0x4               Middlewares\LwIP\tcp.o
udp_pcbs            0x4               Middlewares\LwIP\udp.o
errno               0x4               Middlewares\LwIP\sys_arch.o
hsai_BlockA2        0x84              Application\User\main.o
hi2c1               0x4c              Application\User\main.o
memp_memory_TCPIP_MSG_INPKT_base
                    0x83              Middlewares\LwIP\memp.o
tcp_ticks           0x4               Middlewares\LwIP\tcp.o
tcp_listen_pcbs     0x4               Middlewares\LwIP\tcp.o
hcrc                0x24              Application\User\main.o
memp_memory_TCP_SEG_base
                    0x103             Middlewares\LwIP\memp.o
hsd1                0x84              Application\User\main.o
gnetif              0x34              Application\User\lwip.o
ipaddr              0x4               Application\User\lwip.o
hUsbHostFS          0x3d0             Application\User\usb_host.o
uwTick              0x4               Drivers\STM32F7xx_HAL_Driver\stm32f7xx_hal.o
xQueueRegistry      0x40              Middlewares\FreeRTOS\queue.o
memp_memory_PBUF_POOL_base
                    0x2603            Middlewares\LwIP\memp.o
pFlash              0x1c              Drivers\STM32F7xx_HAL_Driver\stm32f7xx_hal_flash.o
myTimer02Handle     0x4               Application\User\main.o
htim5               0x40              Application\User\main.o
memp_memory_FRAG_PBUF_base
                    0x16b             Middlewares\LwIP\memp.o
htim3               0x40              Application\User\main.o
memp_memory_TCPIP_MSG_API_base
                    0x83              Middlewares\LwIP\memp.o
hltdc               0xa8              Application\User\main.o
tcp_input_pcb       0x4               Middlewares\LwIP\tcp_in.o
netmask             0x4               Application\User\lwip.o
hadc3               0x48              Application\User\main.o
myCountingSem02Handle
                    0x4               Application\User\main.o
hdcmi               0x50              Application\User\main.o
DMATxDscrTab        0x80              Application\User\ethernetif.o
htim13              0x40              Application\User\main.o
huart1              0x70              Application\User\main.o
hhcd_USB_OTG_HS     0x298             Application\User\main.o
Rx_Buff             0x17d0            Application\User\ethernetif.o
dhcp_rx_options_given
                    0x8               Middlewares\LwIP\dhcp.o
memp_memory_PBUF_base
                    0x103             Middlewares\LwIP\memp.o
myBinarySem02Handle
                    0x4               Application\User\main.o
SDPath              0x4               Application\User\fatfs.o
myTask02Handle      0x4               Application\User\main.o
tcp_bound_pcbs      0x4               Middlewares\LwIP\tcp.o
memp_memory_TCP_PCB_LISTEN_base
                    0xe3              Middlewares\LwIP\memp.o
memp_memory_REASSDATA_base
                    0xa3              Middlewares\LwIP\memp.o
hrtc                0x20              Application\User\main.o
myCountingSem01Handle
                    0x4               Application\User\main.o
htim6               0x40              Application\User\stm32f7xx_hal_timebase_TIM.o
htim1               0x40              Application\User\main.o
myTimer01Handle     0x4               Application\User\main.o
memp_memory_UDP_PCB_base
                    0x83              Middlewares\LwIP\memp.o
pbuf_free_ooseq_pending
                    0x1               Middlewares\LwIP\pbuf.o
myBinarySem01Handle
                    0x4               Application\User\main.o
lwip_sys_mutex      0x4               Middlewares\LwIP\sys_arch.o
DMARxDscrTab        0x80              Application\User\ethernetif.o
netconn_aborted     0x1               Middlewares\LwIP\api_msg.o
myTask03Handle      0x4               Application\User\main.o
huart6              0x70              Application\User\main.o
gw                  0x4               Application\User\lwip.o
hdma2d              0x40              Application\User\main.o
htim2               0x40              Application\User\main.o
tcp_tw_pcbs         0x4               Middlewares\LwIP\tcp.o
memp_memory_NETCONN_base
                    0xb3              Middlewares\LwIP\memp.o
hhcd_USB_OTG_FS     0x298             Application\User\usbh_conf.o
SDFile              0x230             Application\User\fatfs.o
netif_default       0x4               Middlewares\LwIP\netif.o
htim14              0x40              Application\User\main.o
htim12              0x40              Application\User\main.o
hsdram1             0x34              Application\User\main.o
dhcp_rx_options_val
                    0x20              Middlewares\LwIP\dhcp.o
memp_memory_TCP_PCB_base
                    0x2fb             Middlewares\LwIP\memp.o
memp_memory_SYS_TIMEOUT_base
                    0x53              Middlewares\LwIP\memp.o
heth                0x48              Application\User\ethernetif.o
myMutex01Handle     0x4               Application\User\main.o
myMutex02Handle     0x4               Application\User\main.o
ram_heap            0x653             Middlewares\LwIP\mem.o
SDFatFS             0x234             Application\User\fatfs.o
Tx_Buff             0x17d0            Application\User\ethernetif.o
hqspi               0x4c              Application\User\main.o

Discarded input sections

 .text          0x00000000        0x0 c:/program files (x86)/atollic/truestudio for stm32 9.0.0/armtools/bin/../lib/gcc/arm-atollic-eabi/6.3.1/armv7e-m/fpu/fpv5-sp-d16/crti.o
 .data          0x00000000        0x0 c:/program files (x86)/atollic/truestudio for stm32 9.0.0/armtools/bin/../lib/gcc/arm-atollic-eabi/6.3.1/armv7e-m/fpu/fpv5-sp-d16/crti.o
 .bss           0x00000000        0x0 c:/program files (x86)/atollic/truestudio for stm32 9.0.0/armtools/bin/../lib/gcc/arm-atollic-eabi/6.3.1/armv7e-m/fpu/fpv5-sp-d16/crti.o
 .data          0x00000000        0x4 c:/program files (x86)/atollic/truestudio for stm32 9.0.0/armtools/bin/../lib/gcc/arm-atollic-eabi/6.3.1/armv7e-m/fpu/fpv5-sp-d16/crtbegin.o
 .text          0x00000000       0x14 Application\TrueSTUDIO\startup_stm32f746xx.o
 .data          0x00000000        0x0 Application\TrueSTUDIO\startup_stm32f746xx.o
 .bss           0x00000000        0x0 Application\TrueSTUDIO\startup_stm32f746xx.o
 .text          0x00000000        0x0 Application\User\bsp_driver_sd.o
 .data          0x00000000        0x0 Application\User\bsp_driver_sd.o
 .bss           0x00000000        0x0 Application\User\bsp_driver_sd.o
 .text.BSP_SD_ITConfig
                0x00000000        0x4 Application\User\bsp_driver_sd.o
 .text.BSP_SD_ReadBlocks
                0x00000000       0x20 Application\User\bsp_driver_sd.o
 .text.BSP_SD_WriteBlocks
                0x00000000       0x20 Application\User\bsp_driver_sd.o
 .text.BSP_SD_Erase
                0x00000000       0x18 Application\User\bsp_driver_sd.o
Memory Configuration

Name             Origin             Length             Attributes
RAM              0x20000000         0x00050000         xrw
FLASH            0x08000000         0x00100000         xr
*default*        0x00000000         0xffffffff

Linker script and memory map

LOAD c:/program files (x86)/atollic/truestudio for stm32 9.0.0/armtools/bin/../lib/gcc/arm-atollic-eabi/6.3.1/armv7e-m/fpu/fpv5-sp-d16/crti.o
LOAD c:/program files (x86)/atollic/truestudio for stm32 9.0.0/armtools/bin/../lib/gcc/arm-atollic-eabi/6.3.1/armv7e-m/fpu/fpv5-sp-d16/crtbegin.o
LOAD Application\TrueSTUDIO\startup_stm32f746xx.o
LOAD Application\User\bsp_driver_sd.o
LOAD Application\User\ethernetif.o
LOAD Application\User\fatfs.o
LOAD Application\User\fatfs_platform.o
LOAD Application\User\freertos.o
LOAD Application\User\lwip.o
LOAD Application\User\main.o
LOAD Application\User\sd_diskio.o
LOAD Application\User\stm32f7xx_hal_msp.o
LOAD Application\User\stm32f7xx_hal_timebase_TIM.o
LOAD Application\User\stm32f7xx_it.o
LOAD Application\User\syscalls.o
LOAD Application\User\usb_host.o
LOAD Application\User\usbh_conf.o
LOAD Application\User\usbh_platform.o
LOAD Drivers\CMSIS\system_stm32f7xx.o
LOAD Drivers\STM32F7xx_HAL_Driver\stm32f7xx_hal.o
LOAD Drivers\STM32F7xx_HAL_Driver\stm32f7xx_hal_adc.o
LOAD Drivers\STM32F7xx_HAL_Driver\stm32f7xx_hal_adc_ex.o
LOAD Drivers\STM32F7xx_HAL_Driver\stm32f7xx_hal_cortex.o
LOAD Drivers\STM32F7xx_HAL_Driver\stm32f7xx_hal_crc.o
LOAD Drivers\STM32F7xx_HAL_Driver\stm32f7xx_hal_crc_ex.o
LOAD Drivers\STM32F7xx_HAL_Driver\stm32f7xx_hal_dcmi.o
LOAD Drivers\STM32F7xx_HAL_Driver\stm32f7xx_hal_dcmi_ex.o
LOAD Drivers\STM32F7xx_HAL_Driver\stm32f7xx_hal_dma.o
LOAD Drivers\STM32F7xx_HAL_Driver\stm32f7xx_hal_dma2d.o
LOAD Drivers\STM32F7xx_HAL_Driver\stm32f7xx_hal_dma_ex.o
LOAD Drivers\STM32F7xx_HAL_Driver\stm32f7xx_hal_dsi.o
LOAD Drivers\STM32F7xx_HAL_Driver\stm32f7xx_hal_eth.o
LOAD Drivers\STM32F7xx_HAL_Driver\stm32f7xx_hal_flash.o
LOAD Drivers\STM32F7xx_HAL_Driver\stm32f7xx_hal_flash_ex.o
LOAD Drivers\STM32F7xx_HAL_Driver\stm32f7xx_hal_gpio.o
LOAD Drivers\STM32F7xx_HAL_Driver\stm32f7xx_hal_hcd.o
LOAD Drivers\STM32F7xx_HAL_Driver\stm32f7xx_hal_i2c.o
LOAD Drivers\STM32F7xx_HAL_Driver\stm32f7xx_hal_i2c_ex.o
LOAD Drivers\STM32F7xx_HAL_Driver\stm32f7xx_hal_ltdc.o
LOAD Drivers\STM32F7xx_HAL_Driver\stm32f7xx_hal_ltdc_ex.o
LOAD Drivers\STM32F7xx_HAL_Driver\stm32f7xx_hal_pwr.o
LOAD Drivers\STM32F7xx_HAL_Driver\stm32f7xx_hal_pwr_ex.o
LOAD Drivers\STM32F7xx_HAL_Driver\stm32f7xx_hal_qspi.o
LOAD Drivers\STM32F7xx_HAL_Driver\stm32f7xx_hal_rcc.o
LOAD Drivers\STM32F7xx_HAL_Driver\stm32f7xx_hal_rcc_ex.o
LOAD Drivers\STM32F7xx_HAL_Driver\stm32f7xx_hal_rtc.o
LOAD Drivers\STM32F7xx_HAL_Driver\stm32f7xx_hal_rtc_ex.o
LOAD Drivers\STM32F7xx_HAL_Driver\stm32f7xx_hal_sai.o
LOAD Drivers\STM32F7xx_HAL_Driver\stm32f7xx_hal_sai_ex.o
LOAD Drivers\STM32F7xx_HAL_Driver\stm32f7xx_hal_sd.o
LOAD Drivers\STM32F7xx_HAL_Driver\stm32f7xx_hal_sdram.o
LOAD Drivers\STM32F7xx_HAL_Driver\stm32f7xx_hal_spdifrx.o
LOAD Drivers\STM32F7xx_HAL_Driver\stm32f7xx_hal_spi.o
LOAD Drivers\STM32F7xx_HAL_Driver\stm32f7xx_hal_tim.o
LOAD Drivers\STM32F7xx_HAL_Driver\stm32f7xx_hal_tim_ex.o
LOAD Drivers\STM32F7xx_HAL_Driver\stm32f7xx_hal_uart.o
LOAD Drivers\STM32F7xx_HAL_Driver\stm32f7xx_ll_fmc.o
LOAD Drivers\STM32F7xx_HAL_Driver\stm32f7xx_ll_sdmmc.o
LOAD Drivers\STM32F7xx_HAL_Driver\stm32f7xx_ll_usb.o
LOAD Middlewares\FatFs\diskio.o
LOAD Middlewares\FatFs\ff.o
LOAD Middlewares\FatFs\ff_gen_drv.o
LOAD Middlewares\FatFs\syscall.o
LOAD Middlewares\FreeRTOS\cmsis_os.o
LOAD Middlewares\FreeRTOS\croutine.o
LOAD Middlewares\FreeRTOS\event_groups.o
LOAD Middlewares\FreeRTOS\heap_4.o
LOAD Middlewares\FreeRTOS\list.o
LOAD Middlewares\FreeRTOS\port.o
LOAD Middlewares\FreeRTOS\queue.o
LOAD Middlewares\FreeRTOS\tasks.o
LOAD Middlewares\FreeRTOS\timers.o
LOAD Middlewares\LwIP\api_lib.o
LOAD Middlewares\LwIP\api_msg.o
LOAD Middlewares\LwIP\auth.o
LOAD Middlewares\LwIP\autoip.o
LOAD Middlewares\LwIP\ccp.o
LOAD Middlewares\LwIP\chap-md5.o
LOAD Middlewares\LwIP\chap-new.o
LOAD Middlewares\LwIP\chap_ms.o
LOAD Middlewares\LwIP\def.o
LOAD Middlewares\LwIP\demand.o
LOAD Middlewares\LwIP\dhcp.o
LOAD Middlewares\LwIP\dhcp6.o
LOAD Middlewares\LwIP\dns.o
LOAD Middlewares\LwIP\eap.o
LOAD Middlewares\LwIP\ecp.o
LOAD Middlewares\LwIP\err.o
LOAD Middlewares\LwIP\etharp.o
LOAD Middlewares\LwIP\ethernet.o
LOAD Middlewares\LwIP\ethip6.o
LOAD Middlewares\LwIP\eui64.o
LOAD Middlewares\LwIP\fsm.o
LOAD Middlewares\LwIP\icmp.o
LOAD Middlewares\LwIP\icmp6.o
LOAD Middlewares\LwIP\igmp.o
LOAD Middlewares\LwIP\inet6.o
LOAD Middlewares\LwIP\inet_chksum.o
LOAD Middlewares\LwIP\init.o
LOAD Middlewares\LwIP\ip.o
LOAD Middlewares\LwIP\ip4.o
LOAD Middlewares\LwIP\ip4_addr.o
LOAD Middlewares\LwIP\ip4_frag.o
LOAD Middlewares\LwIP\ip6.o
LOAD Middlewares\LwIP\ip6_addr.o
LOAD Middlewares\LwIP\ip6_frag.o
LOAD Middlewares\LwIP\ipcp.o
LOAD Middlewares\LwIP\ipv6cp.o
LOAD Middlewares\LwIP\lcp.o
LOAD Middlewares\LwIP\lowpan6.o
LOAD Middlewares\LwIP\magic.o
LOAD Middlewares\LwIP\mem.o
LOAD Middlewares\LwIP\memp.o
LOAD Middlewares\LwIP\mld6.o
LOAD Middlewares\LwIP\mppe.o
LOAD Middlewares\LwIP\mqtt.o
LOAD Middlewares\LwIP\multilink.o
LOAD Middlewares\LwIP\nd6.o
LOAD Middlewares\LwIP\netbuf.o
LOAD Middlewares\LwIP\netdb.o
LOAD Middlewares\LwIP\netif.o
LOAD Middlewares\LwIP\netifapi.o
LOAD Middlewares\LwIP\pbuf.o
LOAD Middlewares\LwIP\ppp.o
LOAD Middlewares\LwIP\pppapi.o
LOAD Middlewares\LwIP\pppcrypt.o
LOAD Middlewares\LwIP\pppoe.o
LOAD Middlewares\LwIP\pppol2tp.o
LOAD Middlewares\LwIP\pppos.o
LOAD Middlewares\LwIP\raw.o
LOAD Middlewares\LwIP\slipif.o
LOAD Middlewares\LwIP\sockets.o
LOAD Middlewares\LwIP\stats.o
LOAD Middlewares\LwIP\sys.o
LOAD Middlewares\LwIP\sys_arch.o
LOAD Middlewares\LwIP\tcp.o
LOAD Middlewares\LwIP\tcp_in.o
LOAD Middlewares\LwIP\tcp_out.o
LOAD Middlewares\LwIP\tcpip.o
LOAD Middlewares\LwIP\timeouts.o
LOAD Middlewares\LwIP\udp.o
LOAD Middlewares\LwIP\upap.o
LOAD Middlewares\LwIP\utils.o
LOAD Middlewares\LwIP\vj.o
LOAD Middlewares\USB_Host_Library\usbh_cdc.o
LOAD Middlewares\USB_Host_Library\usbh_core.o
LOAD Middlewares\USB_Host_Library\usbh_ctlreq.o
LOAD Middlewares\USB_Host_Library\usbh_ioreq.o
LOAD Middlewares\USB_Host_Library\usbh_pipes.o
                0x00000080                malloc_getpagesize_P = 0x80
START GROUP
LOAD c:/program files (x86)/atollic/truestudio for stm32 9.0.0/armtools/bin/../lib/gcc/arm-atollic-eabi/6.3.1/../../../../arm-atollic-eabi/lib/armv7e-m/fpu/fpv5-sp-d16\libc_nano.a
LOAD c:/program files (x86)/atollic/truestudio for stm32 9.0.0/armtools/bin/../lib/gcc/arm-atollic-eabi/6.3.1/../../../../arm-atollic-eabi/lib/armv7e-m/fpu/fpv5-sp-d16\libm.a
END GROUP
START GROUP
LOAD c:/program files (x86)/atollic/truestudio for stm32 9.0.0/armtools/bin/../lib/gcc/arm-atollic-eabi/6.3.1/armv7e-m/fpu/fpv5-sp-d16\libgcc.a
LOAD c:/program files (x86)/atollic/truestudio for stm32 9.0.0/armtools/bin/../lib/gcc/arm-atollic-eabi/6.3.1/../../../../arm-atollic-eabi/lib/armv7e-m/fpu/fpv5-sp-d16\libc_nano.a
END GROUP
START GROUP
LOAD c:/program files (x86)/atollic/truestudio for stm32 9.0.0/armtools/bin/../lib/gcc/arm-atollic-eabi/6.3.1/armv7e-m/fpu/fpv5-sp-d16\libgcc.a
LOAD c:/program files (x86)/atollic/truestudio for stm32 9.0.0/armtools/bin/../lib/gcc/arm-atollic-eabi/6.3.1/../../../../arm-atollic-eabi/lib/armv7e-m/fpu/fpv5-sp-d16\libc_nano.a
LOAD c:/program files (x86)/atollic/truestudio for stm32 9.0.0/armtools/bin/../lib/gcc/arm-atollic-eabi/6.3.1/../../../../arm-atollic-eabi/lib/armv7e-m/fpu/fpv5-sp-d16\libnosys.a
END GROUP
START GROUP
LOAD c:/program files (x86)/atollic/truestudio for stm32 9.0.0/armtools/bin/../lib/gcc/arm-atollic-eabi/6.3.1/armv7e-m/fpu/fpv5-sp-d16\libgcc.a
LOAD c:/program files (x86)/atollic/truestudio for stm32 9.0.0/armtools/bin/../lib/gcc/arm-atollic-eabi/6.3.1/../../../../arm-atollic-eabi/lib/armv7e-m/fpu/fpv5-sp-d16\libc_nano.a
LOAD c:/program files (x86)/atollic/truestudio for stm32 9.0.0/armtools/bin/../lib/gcc/arm-atollic-eabi/6.3.1/../../../../arm-atollic-eabi/lib/armv7e-m/fpu/fpv5-sp-d16\libnosys.a
END GROUP
LOAD c:/program files (x86)/atollic/truestudio for stm32 9.0.0/armtools/bin/../lib/gcc/arm-atollic-eabi/6.3.1/armv7e-m/fpu/fpv5-sp-d16/crtend.o
LOAD c:/program files (x86)/atollic/truestudio for stm32 9.0.0/armtools/bin/../lib/gcc/arm-atollic-eabi/6.3.1/armv7e-m/fpu/fpv5-sp-d16/crtn.o
                0x20050000                _estack = 0x20050000
                0x00000200                _Min_Heap_Size = 0x200
                0x00000400                _Min_Stack_Size = 0x400

.isr_vector     0x08000000      0x1c8
                0x08000000                . = ALIGN (0x4)
 *(.isr_vector)
 .isr_vector    0x08000000      0x1c8 Application\TrueSTUDIO\startup_stm32f746xx.o
                0x08000000                g_pfnVectors
                0x080001c8                . = ALIGN (0x4)

.text           0x080001d0    0x14450
                0x080001d0                . = ALIGN (0x4)
 *(.text)
 .text          0x080001d0       0x40 c:/program files (x86)/atollic/truestudio for stm32 9.0.0/armtools/bin/../lib/gcc/arm-atollic-eabi/6.3.1/armv7e-m/fpu/fpv5-sp-d16/crtbegin.o
 .text          0x08000210       0xa0 c:/program files (x86)/atollic/truestudio for stm32 9.0.0/armtools/bin/../lib/gcc/arm-atollic-eabi/6.3.1/../../../../arm-atollic-eabi/lib/armv7e-m/fpu/fpv5-sp-d16\libc_nano.a(lib_a-memchr.o)
                0x08000210                memchr
 .text          0x080002b0       0x30 c:/program files (x86)/atollic/truestudio for stm32 9.0.0/armtools/bin/../lib/gcc/arm-atollic-eabi/6.3.1/armv7e-m/fpu/fpv5-sp-d16\libgcc.a(_aeabi_uldivmod.o)
                0x080002b0                __aeabi_uldivmod
 .text          0x080002e0      0x2dc c:/program files (x86)/atollic/truestudio for stm32 9.0.0/armtools/bin/../lib/gcc/arm-atollic-eabi/6.3.1/armv7e-m/fpu/fpv5-sp-d16\libgcc.a(_udivmoddi4.o)
                0x080002e0                __udivmoddi4
 .text          0x080005bc        0x4 c:/program files (x86)/atollic/truestudio for stm32 9.0.0/armtools/bin/../lib/gcc/arm-atollic-eabi/6.3.1/armv7e-m/fpu/fpv5-sp-d16\libgcc.a(_dvmd_tls.o)
                0x080005bc                __aeabi_idiv0
                0x080005bc                __aeabi_ldiv0
 *(.text*)
 .text.Reset_Handler
                0x080005c0       0x50 Application\TrueSTUDIO\startup_stm32f746xx.o
                0x080005c0                Reset_Handler
 .text.Default_Handler
                0x08000610        0x2 Application\TrueSTUDIO\startup_stm32f746xx.o
                0x08000610                RTC_Alarm_IRQHandler
                0x08000610                EXTI2_IRQHandler
                0x08000610                TIM8_CC_IRQHandler
                0x08000610                DebugMon_Handler
                0x08000610                UART8_IRQHandler
                0x08000610                SPI4_IRQHandler
                0x08000610                TIM1_CC_IRQHandler
                0x08000610                DMA2_Stream5_IRQHandler
                0x08000610                HardFault_Handler
                0x08000610                DMA1_Stream5_IRQHandler
                0x08000610                PVD_IRQHandler
                0x08000610                TAMP_STAMP_IRQHandler
                0x08000610                NMI_Handler
                0x08000610                CAN2_RX1_IRQHandler
                0x08000610                EXTI3_IRQHandler
                0x08000610                TIM8_TRG_COM_TIM14_IRQHandler
                0x08000610                TIM1_UP_TIM10_IRQHandler
                0x08000610                TIM8_UP_TIM13_IRQHandler
                0x08000610                I2C3_ER_IRQHandler
                0x08000610                EXTI0_IRQHandler
                0x08000610                I2C2_EV_IRQHandler
                0x08000610                DMA1_Stream2_IRQHandler
                0x08000610                CAN1_RX0_IRQHandler
                0x08000610                FPU_IRQHandler
                0x08000610                OTG_HS_WKUP_IRQHandler
                0x08000610                UsageFault_Handler
                0x08000610                LTDC_ER_IRQHandler
                0x08000610                CAN2_SCE_IRQHandler
                0x08000610                DMA2_Stream2_IRQHandler
                0x08000610                SPI1_IRQHandler
                0x08000610                TIM1_BRK_TIM9_IRQHandler
                0x08000610                DCMI_IRQHandler
                0x08000610                CAN2_RX0_IRQHandler
                0x08000610                DMA2_Stream3_IRQHandler
                0x08000610                SAI2_IRQHandler
                0x08000610                USART6_IRQHandler
                0x08000610                USART3_IRQHandler
                0x08000610                CAN1_RX1_IRQHandler
                0x08000610                UART5_IRQHandler
                0x08000610                DMA2_Stream0_IRQHandler
                0x08000610                TIM4_IRQHandler
                0x08000610                QUADSPI_IRQHandler
                0x08000610                I2C1_EV_IRQHandler
                0x08000610                DMA1_Stream6_IRQHandler
                0x08000610                DMA1_Stream1_IRQHandler
                0x08000610                UART4_IRQHandler
                0x08000610                TIM3_IRQHandler
                0x08000610                RCC_IRQHandler
                0x08000610                TIM8_BRK_TIM12_IRQHandler
                0x08000610                Default_Handler
                0x08000610                CEC_IRQHandler
                0x08000610                EXTI15_10_IRQHandler
                0x08000610                ADC_IRQHandler
                0x08000610                DMA1_Stream7_IRQHandler
                0x08000610                SPI5_IRQHandler
                0x08000610                TIM7_IRQHandler
                0x08000610                SDMMC1_IRQHandler
                0x08000610                CAN2_TX_IRQHandler
                0x08000610                TIM5_IRQHandler
                0x08000610                DMA2_Stream7_IRQHandler
                0x08000610                I2C3_EV_IRQHandler
                0x08000610                EXTI9_5_IRQHandler
                0x08000610                RTC_WKUP_IRQHandler
                0x08000610                ETH_WKUP_IRQHandler
                0x08000610                SPDIF_RX_IRQHandler
                0x08000610                SPI2_IRQHandler
                0x08000610                OTG_HS_EP1_IN_IRQHandler
                0x08000610                MemManage_Handler
                0x08000610                DMA1_Stream0_IRQHandler
                0x08000610                CAN1_TX_IRQHandler
                0x08000610                EXTI4_IRQHandler
                0x08000610                RNG_IRQHandler
                0x08000610                OTG_HS_EP1_OUT_IRQHandler
                0x08000610                WWDG_IRQHandler
                0x08000610                SPI6_IRQHandler
                0x08000610                I2C4_EV_IRQHandler
                0x08000610                TIM2_IRQHandler
                0x08000610                OTG_FS_WKUP_IRQHandler
                0x08000610                TIM1_TRG_COM_TIM11_IRQHandler
                0x08000610                EXTI1_IRQHandler
                0x08000610                UART7_IRQHandler
                0x08000610                USART2_IRQHandler
                0x08000610                I2C2_ER_IRQHandler
                0x08000610                DMA2_Stream1_IRQHandler
                0x08000610                CAN1_SCE_IRQHandler
                0x08000610                FLASH_IRQHandler
                0x08000610                DMA2_Stream4_IRQHandler
                0x08000610                BusFault_Handler
                0x08000610                USART1_IRQHandler
                0x08000610                SPI3_IRQHandler
                0x08000610                DMA1_Stream4_IRQHandler
                0x08000610                I2C1_ER_IRQHandler
                0x08000610                FMC_IRQHandler
                0x08000610                LPTIM1_IRQHandler
                0x08000610                I2C4_ER_IRQHandler
                0x08000610                DMA2_Stream6_IRQHandler
                0x08000610                SAI1_IRQHandler
                0x08000610                DMA1_Stream3_IRQHandler
 *fill*         0x08000612        0x2 
 .text.BSP_SD_ReadBlocks_DMA
                0x08000614       0x1c Application\User\bsp_driver_sd.o
                0x08000614                BSP_SD_ReadBlocks_DMA
 .text.BSP_SD_WriteBlocks_DMA
                0x08000630       0x1c Application\User\bsp_driver_sd.o
                0x08000630                BSP_SD_WriteBlocks_DMA
 .text.BSP_SD_GetCardState
                0x0800064c       0x14 Application\User\bsp_driver_sd.o
                0x0800064c                BSP_SD_GetCardState
 .text.BSP_SD_GetCardInfo
                0x08000660        0xc Application\User\bsp_driver_sd.o
                0x08000660                BSP_SD_GetCardInfo
 .text.BSP_SD_IsDetected
                0x0800066c       0x1c Application\User\bsp_driver_sd.o
                0x0800066c                BSP_SD_IsDetected
 .text.BSP_SD_Init
                0x08000688       0x2c Application\User\bsp_driver_sd.o
                0x08000688                BSP_SD_Init
 .text.low_level_output
                0x080006b4       0xa0 Application\User\ethernetif.o
 .text.ethernetif_input
                0x08000754       0xec Application\User\ethernetif.o
                0x08000754                ethernetif_input
 .text.HAL_ETH_MspInit
                0x08000840       0xb0 Application\User\ethernetif.o
                0x08000840                HAL_ETH_MspInit
 .text.HAL_ETH_RxCpltCallback
                0x080008f0        0xc Application\User\ethernetif.o
                0x080008f0                HAL_ETH_RxCpltCallback
 .text.ethernetif_init
                0x080008fc      0x15c Application\User\ethernetif.o
                0x080008fc                ethernetif_init
 .text.sys_now  0x08000a58        0x4 Application\User\ethernetif.o
                0x08000a58                sys_now
 .text.MX_FATFS_Init
                0x08000a5c       0x1c Application\User\fatfs.o
                0x08000a5c                MX_FATFS_Init
 .text.BSP_PlatformIsDetected
                0x08000a78       0x18 Application\User\fatfs_platform.o
                0x08000a78                BSP_PlatformIsDetected
 .text.configureTimerForRunTimeStats
                0x08000a90        0x2 Application\User\freertos.o
                0x08000a90                configureTimerForRunTimeStats
 .text.getRunTimeCounterValue
                0x08000a92        0x4 Application\User\freertos.o
                0x08000a92                getRunTimeCounterValue
 .text.vApplicationIdleHook
                0x08000a96        0x2 Application\User\freertos.o
                0x08000a96                vApplicationIdleHook
 .text.vApplicationStackOverflowHook
                0x08000a98        0x2 Application\User\freertos.o
                0x08000a98                vApplicationStackOverflowHook
 .text.vApplicationMallocFailedHook
                0x08000a9a        0x2 Application\User\freertos.o
                0x08000a9a                vApplicationMallocFailedHook
 .text.MX_LWIP_Init
                0x08000a9c       0x6c Application\User\lwip.o
                0x08000a9c                MX_LWIP_Init
 .text.Callback02
                0x08000b08        0x2 Application\User\main.o
                0x08000b08                Callback02
 .text.StartDefaultTask
                0x08000b0a       0x16 Application\User\main.o
                0x08000b0a                StartDefaultTask
 .text.StartTask03
                0x08000b20        0xa Application\User\main.o
                0x08000b20                StartTask03
 .text.Callback01
                0x08000b2a        0x2 Application\User\main.o
                0x08000b2a                Callback01
 .text.StartTask02
                0x08000b2c        0xa Application\User\main.o
                0x08000b2c                StartTask02
 *fill*         0x08000b36        0x2 
 .text.SystemClock_Config
                0x08000b38      0x104 Application\User\main.o
                0x08000b38                SystemClock_Config
 .text.startup.main
                0x08000c3c      0xb94 Application\User\main.o
                0x08000c3c                main
 .text.HAL_TIM_PeriodElapsedCallback
                0x080017d0       0x14 Application\User\main.o
                0x080017d0                HAL_TIM_PeriodElapsedCallback
 .text._Error_Handler
                0x080017e4        0x2 Application\User\main.o
                0x080017e4                _Error_Handler
 .text.assert_failed
                0x080017e6        0x2 Application\User\main.o
                0x080017e6                assert_failed
 .text.SD_CheckStatus.isra.0
                0x080017e8       0x20 Application\User\sd_diskio.o
 .text.SD_initialize
                0x08001808       0x48 Application\User\sd_diskio.o
                0x08001808                SD_initialize
 .text.SD_status
                0x08001850        0x4 Application\User\sd_diskio.o
                0x08001850                SD_status
 .text.SD_write.part.2
                0x08001854       0x22 Application\User\sd_diskio.o
 *fill*         0x08001876        0x2 
 .text.SD_read  0x08001878       0x40 Application\User\sd_diskio.o
                0x08001878                SD_read
 .text.SD_write
                0x080018b8       0x40 Application\User\sd_diskio.o
                0x080018b8                SD_write
 .text.SD_ioctl
                0x080018f8       0x50 Application\User\sd_diskio.o
                0x080018f8                SD_ioctl
 .text.HAL_MspInit
                0x08001948       0x60 Application\User\stm32f7xx_hal_msp.o
                0x08001948                HAL_MspInit
 .text.HAL_ADC_MspInit
                0x080019a8       0x58 Application\User\stm32f7xx_hal_msp.o
                0x080019a8                HAL_ADC_MspInit
 .text.HAL_CRC_MspInit
                0x08001a00       0x2c Application\User\stm32f7xx_hal_msp.o
                0x08001a00                HAL_CRC_MspInit
 .text.HAL_DCMI_MspInit
                0x08001a2c       0xb0 Application\User\stm32f7xx_hal_msp.o
                0x08001a2c                HAL_DCMI_MspInit
 .text.HAL_DMA2D_MspInit
                0x08001adc       0x3c Application\User\stm32f7xx_hal_msp.o
                0x08001adc                HAL_DMA2D_MspInit
 .text.HAL_I2C_MspInit
                0x08001b18       0x94 Application\User\stm32f7xx_hal_msp.o
                0x08001b18                HAL_I2C_MspInit
 .text.HAL_LTDC_MspInit
                0x08001bac       0xc0 Application\User\stm32f7xx_hal_msp.o
                0x08001bac                HAL_LTDC_MspInit
 .text.HAL_QSPI_MspInit
                0x08001c6c       0xa4 Application\User\stm32f7xx_hal_msp.o
                0x08001c6c                HAL_QSPI_MspInit
 .text.HAL_RTC_MspInit
                0x08001d10       0x1c Application\User\stm32f7xx_hal_msp.o
                0x08001d10                HAL_RTC_MspInit
 .text.HAL_SD_MspInit
                0x08001d2c       0x68 Application\User\stm32f7xx_hal_msp.o
                0x08001d2c                HAL_SD_MspInit
 .text.HAL_SPDIFRX_MspInit
                0x08001d94       0x44 Application\User\stm32f7xx_hal_msp.o
                0x08001d94                HAL_SPDIFRX_MspInit
 .text.HAL_SPI_MspInit
                0x08001dd8       0x60 Application\User\stm32f7xx_hal_msp.o
                0x08001dd8                HAL_SPI_MspInit
 .text.HAL_TIM_Base_MspInit
                0x08001e38       0xe8 Application\User\stm32f7xx_hal_msp.o
                0x08001e38                HAL_TIM_Base_MspInit
 .text.HAL_TIM_PWM_MspInit
                0x08001f20       0x28 Application\User\stm32f7xx_hal_msp.o
                0x08001f20                HAL_TIM_PWM_MspInit
 .text.HAL_TIM_MspPostInit
                0x08001f48       0xb0 Application\User\stm32f7xx_hal_msp.o
                0x08001f48                HAL_TIM_MspPostInit
 .text.HAL_UART_MspInit
                0x08001ff8       0xa0 Application\User\stm32f7xx_hal_msp.o
                0x08001ff8                HAL_UART_MspInit
 .text.HAL_SDRAM_MspInit
                0x08002098       0xd0 Application\User\stm32f7xx_hal_msp.o
                0x08002098                HAL_SDRAM_MspInit
 .text.HAL_SAI_MspInit
                0x08002168       0xa4 Application\User\stm32f7xx_hal_msp.o
                0x08002168                HAL_SAI_MspInit
 .text.HAL_InitTick
                0x0800220c       0x78 Application\User\stm32f7xx_hal_timebase_TIM.o
                0x0800220c                HAL_InitTick
 .text.SysTick_Handler
                0x08002284        0x4 Application\User\stm32f7xx_it.o
                0x08002284                SysTick_Handler
 .text.TIM6_DAC_IRQHandler
                0x08002288        0xc Application\User\stm32f7xx_it.o
                0x08002288                TIM6_DAC_IRQHandler
 .text.ETH_IRQHandler
                0x08002294        0xc Application\User\stm32f7xx_it.o
                0x08002294                ETH_IRQHandler
 .text.OTG_FS_IRQHandler
                0x080022a0        0xc Application\User\stm32f7xx_it.o
                0x080022a0                OTG_FS_IRQHandler
 .text.OTG_HS_IRQHandler
                0x080022ac        0xc Application\User\stm32f7xx_it.o
                0x080022ac                OTG_HS_IRQHandler
 .text.LTDC_IRQHandler
                0x080022b8        0xc Application\User\stm32f7xx_it.o
                0x080022b8                LTDC_IRQHandler
 .text.DMA2D_IRQHandler
                0x080022c4        0xc Application\User\stm32f7xx_it.o
                0x080022c4                DMA2D_IRQHandler
 .text._sbrk    0x080022d0       0x40 Application\User\syscalls.o
                0x080022d0                _sbrk
 .text._write   0x08002310       0x1c Application\User\syscalls.o
                0x08002310                _write
 .text._close   0x0800232c        0x6 Application\User\syscalls.o
                0x0800232c                _close
 .text._fstat   0x08002332        0xa Application\User\syscalls.o
                0x08002332                _fstat
 .text._isatty  0x0800233c        0x4 Application\User\syscalls.o
                0x0800233c                _isatty
 .text._lseek   0x08002340        0x4 Application\User\syscalls.o
                0x08002340                _lseek
 .text._read    0x08002344       0x1c Application\User\syscalls.o
                0x08002344                _read
 .text.USBH_UserProcess
                0x08002360       0x24 Application\User\usb_host.o
 .text.MX_USB_HOST_Init
                0x08002384       0x2c Application\User\usb_host.o
                0x08002384                MX_USB_HOST_Init
 .text.HAL_HCD_MspInit
                0x080023b0      0x118 Application\User\usbh_conf.o
                0x080023b0                HAL_HCD_MspInit
 .text.HAL_HCD_SOF_Callback
                0x080024c8        0x8 Application\User\usbh_conf.o
                0x080024c8                HAL_HCD_SOF_Callback
 .text.HAL_HCD_Connect_Callback
                0x080024d0        0x8 Application\User\usbh_conf.o
                0x080024d0                HAL_HCD_Connect_Callback
 .text.HAL_HCD_Disconnect_Callback
                0x080024d8        0x8 Application\User\usbh_conf.o
                0x080024d8                HAL_HCD_Disconnect_Callback
 .text.HAL_HCD_HC_NotifyURBChange_Callback
                0x080024e0        0x8 Application\User\usbh_conf.o
                0x080024e0                HAL_HCD_HC_NotifyURBChange_Callback
 .text.USBH_LL_Init
                0x080024e8       0x58 Application\User\usbh_conf.o
                0x080024e8                USBH_LL_Init
 .text.USBH_LL_Start
                0x08002540       0x1c Application\User\usbh_conf.o
                0x08002540                USBH_LL_Start
 .text.USBH_LL_Stop
                0x0800255c       0x1c Application\User\usbh_conf.o
                0x0800255c                USBH_LL_Stop
 .text.USBH_LL_GetSpeed
                0x08002578       0x1c Application\User\usbh_conf.o
                0x08002578                USBH_LL_GetSpeed
 .text.USBH_LL_ResetPort
                0x08002594       0x1c Application\User\usbh_conf.o
                0x08002594                USBH_LL_ResetPort
 .text.USBH_LL_GetLastXferSize
                0x080025b0        0x8 Application\User\usbh_conf.o
                0x080025b0                USBH_LL_GetLastXferSize
 .text.USBH_LL_OpenPipe
                0x080025b8       0x30 Application\User\usbh_conf.o
                0x080025b8                USBH_LL_OpenPipe
 .text.USBH_LL_ClosePipe
                0x080025e8       0x1c Application\User\usbh_conf.o
                0x080025e8                USBH_LL_ClosePipe
 .text.USBH_LL_SubmitURB
                0x08002604       0x34 Application\User\usbh_conf.o
                0x08002604                USBH_LL_SubmitURB
 .text.USBH_LL_GetURBState
                0x08002638        0x8 Application\User\usbh_conf.o
                0x08002638                USBH_LL_GetURBState
 .text.USBH_LL_DriverVBUS
                0x08002640       0x1a Application\User\usbh_conf.o
                0x08002640                USBH_LL_DriverVBUS
 .text.USBH_LL_SetToggle
                0x0800265a       0x1e Application\User\usbh_conf.o
                0x0800265a                USBH_LL_SetToggle
 .text.USBH_Delay
                0x08002678        0x4 Application\User\usbh_conf.o
                0x08002678                USBH_Delay
 .text.MX_DriverVbusFS
                0x0800267c       0x14 Application\User\usbh_platform.o
                0x0800267c                MX_DriverVbusFS
 .text.SystemInit
                0x08002690       0x4c Drivers\CMSIS\system_stm32f7xx.o
                0x08002690                SystemInit
 .text.HAL_Init
                0x080026dc       0x16 Drivers\STM32F7xx_HAL_Driver\stm32f7xx_hal.o
                0x080026dc                HAL_Init
 *fill*         0x080026f2        0x2 
 .text.HAL_IncTick
                0x080026f4       0x18 Drivers\STM32F7xx_HAL_Driver\stm32f7xx_hal.o
                0x080026f4                HAL_IncTick
 .text.HAL_GetTick
                0x0800270c        0xc Drivers\STM32F7xx_HAL_Driver\stm32f7xx_hal.o
                0x0800270c                HAL_GetTick
 .text.HAL_Delay
                0x08002718       0x24 Drivers\STM32F7xx_HAL_Driver\stm32f7xx_hal.o
                0x08002718                HAL_Delay
 .text.HAL_ADC_Init
                0x0800273c      0x26c Drivers\STM32F7xx_HAL_Driver\stm32f7xx_hal_adc.o
                0x0800273c                HAL_ADC_Init
 .text.HAL_ADC_ConfigChannel
                0x080029a8      0x17c Drivers\STM32F7xx_HAL_Driver\stm32f7xx_hal_adc.o
                0x080029a8                HAL_ADC_ConfigChannel
 .text.HAL_NVIC_SetPriorityGrouping
                0x08002b24       0x3c Drivers\STM32F7xx_HAL_Driver\stm32f7xx_hal_cortex.o
                0x08002b24                HAL_NVIC_SetPriorityGrouping
 .text.HAL_NVIC_SetPriority
                0x08002b60       0x90 Drivers\STM32F7xx_HAL_Driver\stm32f7xx_hal_cortex.o
                0x08002b60                HAL_NVIC_SetPriority
 .text.HAL_NVIC_EnableIRQ
                0x08002bf0       0x2c Drivers\STM32F7xx_HAL_Driver\stm32f7xx_hal_cortex.o
                0x08002bf0                HAL_NVIC_EnableIRQ
 .text.HAL_SYSTICK_Config
                0x08002c1c       0x2c Drivers\STM32F7xx_HAL_Driver\stm32f7xx_hal_cortex.o
                0x08002c1c                HAL_SYSTICK_Config
 .text.HAL_SYSTICK_CLKSourceConfig
                0x08002c48       0x30 Drivers\STM32F7xx_HAL_Driver\stm32f7xx_hal_cortex.o
                0x08002c48                HAL_SYSTICK_CLKSourceConfig
 .text.HAL_CRC_Init
                0x08002c78       0xe0 Drivers\STM32F7xx_HAL_Driver\stm32f7xx_hal_crc.o
                0x08002c78                HAL_CRC_Init
 .text.HAL_CRCEx_Polynomial_Set
                0x08002d58       0x64 Drivers\STM32F7xx_HAL_Driver\stm32f7xx_hal_crc_ex.o
                0x08002d58                HAL_CRCEx_Polynomial_Set
 .text.HAL_DCMI_Init
                0x08002dbc      0x160 Drivers\STM32F7xx_HAL_Driver\stm32f7xx_hal_dcmi.o
                0x08002dbc                HAL_DCMI_Init
 .text.HAL_DMA_Start_IT
                0x08002f1c       0xa4 Drivers\STM32F7xx_HAL_Driver\stm32f7xx_hal_dma.o
                0x08002f1c                HAL_DMA_Start_IT
 .text.HAL_DMA_GetError
                0x08002fc0        0x4 Drivers\STM32F7xx_HAL_Driver\stm32f7xx_hal_dma.o
                0x08002fc0                HAL_DMA_GetError
 .text.HAL_DMA2D_Init
                0x08002fc4       0xa4 Drivers\STM32F7xx_HAL_Driver\stm32f7xx_hal_dma2d.o
                0x08002fc4                HAL_DMA2D_Init
 .text.HAL_DMA2D_LineEventCallback
                0x08003068        0x2 Drivers\STM32F7xx_HAL_Driver\stm32f7xx_hal_dma2d.o
                0x08003068                HAL_DMA2D_LineEventCallback
 .text.HAL_DMA2D_CLUTLoadingCpltCallback
                0x0800306a        0x2 Drivers\STM32F7xx_HAL_Driver\stm32f7xx_hal_dma2d.o
                0x0800306a                HAL_DMA2D_CLUTLoadingCpltCallback
 .text.HAL_DMA2D_IRQHandler
                0x0800306c      0x114 Drivers\STM32F7xx_HAL_Driver\stm32f7xx_hal_dma2d.o
                0x0800306c                HAL_DMA2D_IRQHandler
 .text.HAL_DMA2D_ConfigLayer
                0x08003180       0xf4 Drivers\STM32F7xx_HAL_Driver\stm32f7xx_hal_dma2d.o
                0x08003180                HAL_DMA2D_ConfigLayer
 .text.ETH_FlushTransmitFIFO
                0x08003274       0x2a Drivers\STM32F7xx_HAL_Driver\stm32f7xx_hal_eth.o
 *fill*         0x0800329e        0x2 
 .text.ETH_MACDMAConfig
                0x080032a0       0xf8 Drivers\STM32F7xx_HAL_Driver\stm32f7xx_hal_eth.o
 .text.HAL_ETH_DMATxDescListInit
                0x08003398       0x7a Drivers\STM32F7xx_HAL_Driver\stm32f7xx_hal_eth.o
                0x08003398                HAL_ETH_DMATxDescListInit
 .text.HAL_ETH_DMARxDescListInit
                0x08003412       0x78 Drivers\STM32F7xx_HAL_Driver\stm32f7xx_hal_eth.o
                0x08003412                HAL_ETH_DMARxDescListInit
 *fill*         0x0800348a        0x2 
 .text.HAL_ETH_TransmitFrame
                0x0800348c       0xe4 Drivers\STM32F7xx_HAL_Driver\stm32f7xx_hal_eth.o
                0x0800348c                HAL_ETH_TransmitFrame
 .text.HAL_ETH_GetReceivedFrame_IT
                0x08003570       0x8a Drivers\STM32F7xx_HAL_Driver\stm32f7xx_hal_eth.o
                0x08003570                HAL_ETH_GetReceivedFrame_IT
 .text.HAL_ETH_TxCpltCallback
                0x080035fa        0x2 Drivers\STM32F7xx_HAL_Driver\stm32f7xx_hal_eth.o
                0x080035fa                HAL_ETH_TxCpltCallback
 .text.HAL_ETH_ErrorCallback
                0x080035fc        0x2 Drivers\STM32F7xx_HAL_Driver\stm32f7xx_hal_eth.o
                0x080035fc                HAL_ETH_ErrorCallback
 .text.HAL_ETH_IRQHandler
                0x080035fe       0x70 Drivers\STM32F7xx_HAL_Driver\stm32f7xx_hal_eth.o
                0x080035fe                HAL_ETH_IRQHandler
 *fill*         0x0800366e        0x2 
 .text.HAL_ETH_ReadPHYRegister
                0x08003670       0x8c Drivers\STM32F7xx_HAL_Driver\stm32f7xx_hal_eth.o
                0x08003670                HAL_ETH_ReadPHYRegister
 .text.HAL_ETH_WritePHYRegister
                0x080036fc       0x88 Drivers\STM32F7xx_HAL_Driver\stm32f7xx_hal_eth.o
                0x080036fc                HAL_ETH_WritePHYRegister
 .text.HAL_ETH_Init
                0x08003784      0x258 Drivers\STM32F7xx_HAL_Driver\stm32f7xx_hal_eth.o
                0x08003784                HAL_ETH_Init
 .text.HAL_ETH_Start
                0x080039dc       0x7c Drivers\STM32F7xx_HAL_Driver\stm32f7xx_hal_eth.o
                0x080039dc                HAL_ETH_Start
 .text.HAL_GPIO_Init
                0x08003a58      0x2a8 Drivers\STM32F7xx_HAL_Driver\stm32f7xx_hal_gpio.o
                0x08003a58                HAL_GPIO_Init
 .text.HAL_GPIO_ReadPin
                0x08003d00       0x24 Drivers\STM32F7xx_HAL_Driver\stm32f7xx_hal_gpio.o
                0x08003d00                HAL_GPIO_ReadPin
 .text.HAL_GPIO_WritePin
                0x08003d24       0x34 Drivers\STM32F7xx_HAL_Driver\stm32f7xx_hal_gpio.o
                0x08003d24                HAL_GPIO_WritePin
 .text.HAL_HCD_HC_Init
                0x08003d58       0x6c Drivers\STM32F7xx_HAL_Driver\stm32f7xx_hal_hcd.o
                0x08003d58                HAL_HCD_HC_Init
 .text.HAL_HCD_HC_Halt
                0x08003dc4       0x24 Drivers\STM32F7xx_HAL_Driver\stm32f7xx_hal_hcd.o
                0x08003dc4                HAL_HCD_HC_Halt
 .text.HAL_HCD_Init
                0x08003de8       0x9c Drivers\STM32F7xx_HAL_Driver\stm32f7xx_hal_hcd.o
                0x08003de8                HAL_HCD_Init
 .text.HAL_HCD_HC_SubmitRequest
                0x08003e84       0xc4 Drivers\STM32F7xx_HAL_Driver\stm32f7xx_hal_hcd.o
                0x08003e84                HAL_HCD_HC_SubmitRequest
 .text.HAL_HCD_PortEnabled_Callback
                0x08003f48        0x2 Drivers\STM32F7xx_HAL_Driver\stm32f7xx_hal_hcd.o
                0x08003f48                HAL_HCD_PortEnabled_Callback
 .text.HAL_HCD_PortDisabled_Callback
                0x08003f4a        0x2 Drivers\STM32F7xx_HAL_Driver\stm32f7xx_hal_hcd.o
                0x08003f4a                HAL_HCD_PortDisabled_Callback
 .text.HAL_HCD_IRQHandler
                0x08003f4c      0x630 Drivers\STM32F7xx_HAL_Driver\stm32f7xx_hal_hcd.o
                0x08003f4c                HAL_HCD_IRQHandler
 .text.HAL_HCD_Start
                0x0800457c       0x2c Drivers\STM32F7xx_HAL_Driver\stm32f7xx_hal_hcd.o
                0x0800457c                HAL_HCD_Start
 .text.HAL_HCD_Stop
                0x080045a8       0x24 Drivers\STM32F7xx_HAL_Driver\stm32f7xx_hal_hcd.o
                0x080045a8                HAL_HCD_Stop
 .text.HAL_HCD_ResetPort
                0x080045cc        0x6 Drivers\STM32F7xx_HAL_Driver\stm32f7xx_hal_hcd.o
                0x080045cc                HAL_HCD_ResetPort
 .text.HAL_HCD_HC_GetURBState
                0x080045d2        0xc Drivers\STM32F7xx_HAL_Driver\stm32f7xx_hal_hcd.o
                0x080045d2                HAL_HCD_HC_GetURBState
 .text.HAL_HCD_HC_GetXferCount
                0x080045de        0xa Drivers\STM32F7xx_HAL_Driver\stm32f7xx_hal_hcd.o
                0x080045de                HAL_HCD_HC_GetXferCount
 .text.HAL_HCD_GetCurrentFrame
                0x080045e8        0x6 Drivers\STM32F7xx_HAL_Driver\stm32f7xx_hal_hcd.o
                0x080045e8                HAL_HCD_GetCurrentFrame
 .text.HAL_HCD_GetCurrentSpeed
                0x080045ee        0x6 Drivers\STM32F7xx_HAL_Driver\stm32f7xx_hal_hcd.o
                0x080045ee                HAL_HCD_GetCurrentSpeed
 .text.HAL_I2C_Init
                0x080045f4      0x154 Drivers\STM32F7xx_HAL_Driver\stm32f7xx_hal_i2c.o
                0x080045f4                HAL_I2C_Init
 .text.HAL_I2CEx_ConfigAnalogFilter
                0x08004748       0x8c Drivers\STM32F7xx_HAL_Driver\stm32f7xx_hal_i2c_ex.o
                0x08004748                HAL_I2CEx_ConfigAnalogFilter
 .text.HAL_I2CEx_ConfigDigitalFilter
                0x080047d4       0x88 Drivers\STM32F7xx_HAL_Driver\stm32f7xx_hal_i2c_ex.o
                0x080047d4                HAL_I2CEx_ConfigDigitalFilter
 .text.LTDC_SetConfig
                0x0800485c      0x10c Drivers\STM32F7xx_HAL_Driver\stm32f7xx_hal_ltdc.o
 .text.HAL_LTDC_Init
                0x08004968      0x1bc Drivers\STM32F7xx_HAL_Driver\stm32f7xx_hal_ltdc.o
                0x08004968                HAL_LTDC_Init
 .text.HAL_LTDC_ErrorCallback
                0x08004b24        0x2 Drivers\STM32F7xx_HAL_Driver\stm32f7xx_hal_ltdc.o
                0x08004b24                HAL_LTDC_ErrorCallback
 .text.HAL_LTDC_LineEventCallback
                0x08004b26        0x2 Drivers\STM32F7xx_HAL_Driver\stm32f7xx_hal_ltdc.o
                0x08004b26                HAL_LTDC_LineEventCallback
 .text.HAL_LTDC_ReloadEventCallback
                0x08004b28        0x2 Drivers\STM32F7xx_HAL_Driver\stm32f7xx_hal_ltdc.o
                0x08004b28                HAL_LTDC_ReloadEventCallback
 .text.HAL_LTDC_IRQHandler
                0x08004b2a       0xc6 Drivers\STM32F7xx_HAL_Driver\stm32f7xx_hal_ltdc.o
                0x08004b2a                HAL_LTDC_IRQHandler
 .text.HAL_LTDC_ConfigLayer
                0x08004bf0      0x124 Drivers\STM32F7xx_HAL_Driver\stm32f7xx_hal_ltdc.o
                0x08004bf0                HAL_LTDC_ConfigLayer
 .text.HAL_PWREx_EnableOverDrive
                0x08004d14       0x70 Drivers\STM32F7xx_HAL_Driver\stm32f7xx_hal_pwr_ex.o
                0x08004d14                HAL_PWREx_EnableOverDrive
 .text.QSPI_WaitFlagStateUntilTimeout
                0x08004d84       0x4c Drivers\STM32F7xx_HAL_Driver\stm32f7xx_hal_qspi.o
 .text.HAL_QSPI_Init
                0x08004dd0      0x168 Drivers\STM32F7xx_HAL_Driver\stm32f7xx_hal_qspi.o
                0x08004dd0                HAL_QSPI_Init
 .text.HAL_RCC_OscConfig
                0x08004f38      0x41c Drivers\STM32F7xx_HAL_Driver\stm32f7xx_hal_rcc.o
                0x08004f38                HAL_RCC_OscConfig
 .text.HAL_RCC_GetSysClockFreq
                0x08005354       0x5c Drivers\STM32F7xx_HAL_Driver\stm32f7xx_hal_rcc.o
                0x08005354                HAL_RCC_GetSysClockFreq
 .text.HAL_RCC_ClockConfig
                0x080053b0      0x1f0 Drivers\STM32F7xx_HAL_Driver\stm32f7xx_hal_rcc.o
                0x080053b0                HAL_RCC_ClockConfig
 .text.HAL_RCC_GetHCLKFreq
                0x080055a0        0xc Drivers\STM32F7xx_HAL_Driver\stm32f7xx_hal_rcc.o
                0x080055a0                HAL_RCC_GetHCLKFreq
 .text.HAL_RCC_GetPCLK1Freq
                0x080055ac       0x20 Drivers\STM32F7xx_HAL_Driver\stm32f7xx_hal_rcc.o
                0x080055ac                HAL_RCC_GetPCLK1Freq
 .text.HAL_RCC_GetPCLK2Freq
                0x080055cc       0x20 Drivers\STM32F7xx_HAL_Driver\stm32f7xx_hal_rcc.o
                0x080055cc                HAL_RCC_GetPCLK2Freq
 .text.HAL_RCC_GetClockConfig
                0x080055ec       0x3c Drivers\STM32F7xx_HAL_Driver\stm32f7xx_hal_rcc.o
                0x080055ec                HAL_RCC_GetClockConfig
 .text.HAL_RCCEx_PeriphCLKConfig
                0x08005628      0x864 Drivers\STM32F7xx_HAL_Driver\stm32f7xx_hal_rcc_ex.o
                0x08005628                HAL_RCCEx_PeriphCLKConfig
 .text.HAL_RCCEx_GetPeriphCLKFreq
                0x08005e8c       0xc8 Drivers\STM32F7xx_HAL_Driver\stm32f7xx_hal_rcc_ex.o
                0x08005e8c                HAL_RCCEx_GetPeriphCLKFreq
 .text.HAL_RTC_WaitForSynchro
                0x08005f54       0x30 Drivers\STM32F7xx_HAL_Driver\stm32f7xx_hal_rtc.o
                0x08005f54                HAL_RTC_WaitForSynchro
 .text.RTC_EnterInitMode
                0x08005f84       0x34 Drivers\STM32F7xx_HAL_Driver\stm32f7xx_hal_rtc.o
                0x08005f84                RTC_EnterInitMode
 .text.HAL_RTC_Init
                0x08005fb8      0x100 Drivers\STM32F7xx_HAL_Driver\stm32f7xx_hal_rtc.o
                0x08005fb8                HAL_RTC_Init
 .text.RTC_ByteToBcd2
                0x080060b8       0x16 Drivers\STM32F7xx_HAL_Driver\stm32f7xx_hal_rtc.o
                0x080060b8                RTC_ByteToBcd2
 .text.RTC_Bcd2ToByte
                0x080060ce       0x12 Drivers\STM32F7xx_HAL_Driver\stm32f7xx_hal_rtc.o
                0x080060ce                RTC_Bcd2ToByte
 .text.HAL_RTC_SetTime
                0x080060e0      0x1c8 Drivers\STM32F7xx_HAL_Driver\stm32f7xx_hal_rtc.o
                0x080060e0                HAL_RTC_SetTime
 .text.HAL_RTC_SetDate
                0x080062a8      0x160 Drivers\STM32F7xx_HAL_Driver\stm32f7xx_hal_rtc.o
                0x080062a8                HAL_RTC_SetDate
 .text.HAL_RTC_SetAlarm
                0x08006408      0x2c0 Drivers\STM32F7xx_HAL_Driver\stm32f7xx_hal_rtc.o
                0x08006408                HAL_RTC_SetAlarm
 .text.HAL_RTCEx_SetTimeStamp
                0x080066c8       0x74 Drivers\STM32F7xx_HAL_Driver\stm32f7xx_hal_rtc_ex.o
                0x080066c8                HAL_RTCEx_SetTimeStamp
 .text.HAL_RTCEx_BKUPWrite
                0x0800673c       0x24 Drivers\STM32F7xx_HAL_Driver\stm32f7xx_hal_rtc_ex.o
                0x0800673c                HAL_RTCEx_BKUPWrite
 .text.HAL_RTCEx_BKUPRead
                0x08006760       0x24 Drivers\STM32F7xx_HAL_Driver\stm32f7xx_hal_rtc_ex.o
                0x08006760                HAL_RTCEx_BKUPRead
 .text.SAI_Disable
                0x08006784       0x40 Drivers\STM32F7xx_HAL_Driver\stm32f7xx_hal_sai.o
 .text.HAL_SAI_Init
                0x080067c4      0x3d8 Drivers\STM32F7xx_HAL_Driver\stm32f7xx_hal_sai.o
                0x080067c4                HAL_SAI_Init
 .text.SD_DMATransmitCplt
                0x08006b9c        0xe Drivers\STM32F7xx_HAL_Driver\stm32f7xx_hal_sd.o
 .text.SD_FindSCR
                0x08006baa       0xca Drivers\STM32F7xx_HAL_Driver\stm32f7xx_hal_sd.o
 .text.HAL_SD_ReadBlocks_DMA
                0x08006c74      0x104 Drivers\STM32F7xx_HAL_Driver\stm32f7xx_hal_sd.o
                0x08006c74                HAL_SD_ReadBlocks_DMA
 .text.HAL_SD_WriteBlocks_DMA
                0x08006d78       0xf8 Drivers\STM32F7xx_HAL_Driver\stm32f7xx_hal_sd.o
                0x08006d78                HAL_SD_WriteBlocks_DMA
 .text.HAL_SD_RxCpltCallback
                0x08006e70        0x2 Drivers\STM32F7xx_HAL_Driver\stm32f7xx_hal_sd.o
                0x08006e70                HAL_SD_RxCpltCallback
 .text.HAL_SD_ErrorCallback
                0x08006e72        0x2 Drivers\STM32F7xx_HAL_Driver\stm32f7xx_hal_sd.o
                0x08006e72                HAL_SD_ErrorCallback
 .text.SD_DMAReceiveCplt
                0x08006e74       0x3c Drivers\STM32F7xx_HAL_Driver\stm32f7xx_hal_sd.o
 .text.HAL_SD_GetCardCSD
                0x08006eb0      0x1be Drivers\STM32F7xx_HAL_Driver\stm32f7xx_hal_sd.o
                0x08006eb0                HAL_SD_GetCardCSD
 .text.HAL_SD_InitCard
                0x0800706e      0x1e6 Drivers\STM32F7xx_HAL_Driver\stm32f7xx_hal_sd.o
                0x0800706e                HAL_SD_InitCard
 .text.HAL_SD_Init
                0x08007254       0xc4 Drivers\STM32F7xx_HAL_Driver\stm32f7xx_hal_sd.o
                0x08007254                HAL_SD_Init
 .text.HAL_SD_GetCardInfo
                0x08007318       0x24 Drivers\STM32F7xx_HAL_Driver\stm32f7xx_hal_sd.o
                0x08007318                HAL_SD_GetCardInfo
 .text.HAL_SD_ConfigWideBusOperation
                0x0800733c      0x114 Drivers\STM32F7xx_HAL_Driver\stm32f7xx_hal_sd.o
                0x0800733c                HAL_SD_ConfigWideBusOperation
 .text.HAL_SD_GetCardState
                0x08007450       0x28 Drivers\STM32F7xx_HAL_Driver\stm32f7xx_hal_sd.o
                0x08007450                HAL_SD_GetCardState
 .text.SD_DMAError
                0x08007478       0x5c Drivers\STM32F7xx_HAL_Driver\stm32f7xx_hal_sd.o
 .text.HAL_SDRAM_Init
                0x080074d4       0x40 Drivers\STM32F7xx_HAL_Driver\stm32f7xx_hal_sdram.o
                0x080074d4                HAL_SDRAM_Init
 .text.HAL_SPDIFRX_Init
                0x08007514      0x11c Drivers\STM32F7xx_HAL_Driver\stm32f7xx_hal_spdifrx.o
                0x08007514                HAL_SPDIFRX_Init
 .text.HAL_SPI_Init
                0x08007630      0x1e0 Drivers\STM32F7xx_HAL_Driver\stm32f7xx_hal_spi.o
                0x08007630                HAL_SPI_Init
 .text.TIM_TI1_ConfigInputStage
                0x08007810       0x22 Drivers\STM32F7xx_HAL_Driver\stm32f7xx_hal_tim.o
 .text.TIM_TI2_ConfigInputStage
                0x08007832       0x24 Drivers\STM32F7xx_HAL_Driver\stm32f7xx_hal_tim.o
 *fill*         0x08007856        0x2 
 .text.HAL_TIM_Base_Start_IT
                0x08007858       0x9c Drivers\STM32F7xx_HAL_Driver\stm32f7xx_hal_tim.o
                0x08007858                HAL_TIM_Base_Start_IT
 .text.HAL_TIM_OC_MspInit
                0x080078f4        0x2 Drivers\STM32F7xx_HAL_Driver\stm32f7xx_hal_tim.o
                0x080078f4                HAL_TIM_OC_MspInit
 .text.HAL_TIM_OC_DelayElapsedCallback
                0x080078f6        0x2 Drivers\STM32F7xx_HAL_Driver\stm32f7xx_hal_tim.o
                0x080078f6                HAL_TIM_OC_DelayElapsedCallback
 .text.HAL_TIM_IC_CaptureCallback
                0x080078f8        0x2 Drivers\STM32F7xx_HAL_Driver\stm32f7xx_hal_tim.o
                0x080078f8                HAL_TIM_IC_CaptureCallback
 .text.HAL_TIM_PWM_PulseFinishedCallback
                0x080078fa        0x2 Drivers\STM32F7xx_HAL_Driver\stm32f7xx_hal_tim.o
                0x080078fa                HAL_TIM_PWM_PulseFinishedCallback
 .text.HAL_TIM_TriggerCallback
                0x080078fc        0x2 Drivers\STM32F7xx_HAL_Driver\stm32f7xx_hal_tim.o
                0x080078fc                HAL_TIM_TriggerCallback
 .text.HAL_TIM_IRQHandler
                0x080078fe      0x160 Drivers\STM32F7xx_HAL_Driver\stm32f7xx_hal_tim.o
                0x080078fe                HAL_TIM_IRQHandler
 *fill*         0x08007a5e        0x2 
 .text.TIM_Base_SetConfig
                0x08007a60       0xd0 Drivers\STM32F7xx_HAL_Driver\stm32f7xx_hal_tim.o
                0x08007a60                TIM_Base_SetConfig
 .text.HAL_TIM_Base_Init
                0x08007b30      0x100 Drivers\STM32F7xx_HAL_Driver\stm32f7xx_hal_tim.o
                0x08007b30                HAL_TIM_Base_Init
 .text.HAL_TIM_OC_Init
                0x08007c30      0x100 Drivers\STM32F7xx_HAL_Driver\stm32f7xx_hal_tim.o
                0x08007c30                HAL_TIM_OC_Init
 .text.HAL_TIM_PWM_Init
                0x08007d30      0x100 Drivers\STM32F7xx_HAL_Driver\stm32f7xx_hal_tim.o
                0x08007d30                HAL_TIM_PWM_Init
 .text.TIM_OC1_SetConfig
                0x08007e30       0x5c Drivers\STM32F7xx_HAL_Driver\stm32f7xx_hal_tim.o
                0x08007e30                TIM_OC1_SetConfig
 .text.TIM_OC2_SetConfig
                0x08007e8c       0x84 Drivers\STM32F7xx_HAL_Driver\stm32f7xx_hal_tim.o
                0x08007e8c                TIM_OC2_SetConfig
 .text.TIM_OC3_SetConfig
                0x08007f10       0x84 Drivers\STM32F7xx_HAL_Driver\stm32f7xx_hal_tim.o
                0x08007f10                TIM_OC3_SetConfig
 .text.TIM_OC4_SetConfig
                0x08007f94       0x74 Drivers\STM32F7xx_HAL_Driver\stm32f7xx_hal_tim.o
                0x08007f94                TIM_OC4_SetConfig
 .text.TIM_ETR_SetConfig
                0x08008008       0x14 Drivers\STM32F7xx_HAL_Driver\stm32f7xx_hal_tim.o
                0x08008008                TIM_ETR_SetConfig
 .text.HAL_TIM_ConfigClockSource
                0x0800801c      0x4c8 Drivers\STM32F7xx_HAL_Driver\stm32f7xx_hal_tim.o
                0x0800801c                HAL_TIM_ConfigClockSource
 .text.TIM_OC5_SetConfig
                0x080084e4       0x50 Drivers\STM32F7xx_HAL_Driver\stm32f7xx_hal_tim_ex.o
 .text.TIM_OC6_SetConfig
                0x08008534       0x50 Drivers\STM32F7xx_HAL_Driver\stm32f7xx_hal_tim_ex.o
 .text.HAL_TIMEx_MasterConfigSynchronization
                0x08008584       0xf0 Drivers\STM32F7xx_HAL_Driver\stm32f7xx_hal_tim_ex.o
                0x08008584                HAL_TIMEx_MasterConfigSynchronization
 .text.HAL_TIMEx_ConfigBreakDeadTime
                0x08008674      0x1a0 Drivers\STM32F7xx_HAL_Driver\stm32f7xx_hal_tim_ex.o
                0x08008674                HAL_TIMEx_ConfigBreakDeadTime
 .text.HAL_TIMEx_CommutationCallback
                0x08008814        0x2 Drivers\STM32F7xx_HAL_Driver\stm32f7xx_hal_tim_ex.o
                0x08008814                HAL_TIMEx_CommutationCallback
 .text.HAL_TIMEx_BreakCallback
                0x08008816        0x2 Drivers\STM32F7xx_HAL_Driver\stm32f7xx_hal_tim_ex.o
                0x08008816                HAL_TIMEx_BreakCallback
 .text.HAL_TIM_OC_ConfigChannel
                0x08008818      0x23c Drivers\STM32F7xx_HAL_Driver\stm32f7xx_hal_tim_ex.o
                0x08008818                HAL_TIM_OC_ConfigChannel
 .text.HAL_TIM_PWM_ConfigChannel
                0x08008a54      0x2f4 Drivers\STM32F7xx_HAL_Driver\stm32f7xx_hal_tim_ex.o
                0x08008a54                HAL_TIM_PWM_ConfigChannel
 .text.UART_WaitOnFlagUntilTimeout
                0x08008d48       0x62 Drivers\STM32F7xx_HAL_Driver\stm32f7xx_hal_uart.o
                0x08008d48                UART_WaitOnFlagUntilTimeout
 *fill*         0x08008daa        0x2 
 .text.UART_SetConfig
                0x08008dac      0x324 Drivers\STM32F7xx_HAL_Driver\stm32f7xx_hal_uart.o
                0x08008dac                UART_SetConfig
 .text.UART_AdvFeatureConfig
                0x080090d0      0x174 Drivers\STM32F7xx_HAL_Driver\stm32f7xx_hal_uart.o
                0x080090d0                UART_AdvFeatureConfig
 .text.UART_CheckIdleState
                0x08009244       0x44 Drivers\STM32F7xx_HAL_Driver\stm32f7xx_hal_uart.o
                0x08009244                UART_CheckIdleState
 .text.HAL_UART_Init
                0x08009288      0x104 Drivers\STM32F7xx_HAL_Driver\stm32f7xx_hal_uart.o
                0x08009288                HAL_UART_Init
 .text.FMC_SDRAM_Init
                0x0800938c      0x15c Drivers\STM32F7xx_HAL_Driver\stm32f7xx_ll_fmc.o
                0x0800938c                FMC_SDRAM_Init
 .text.FMC_SDRAM_Timing_Init
                0x080094e8      0x13c Drivers\STM32F7xx_HAL_Driver\stm32f7xx_ll_fmc.o
                0x080094e8                FMC_SDRAM_Timing_Init
 .text.SDMMC_GetCmdResp2
                0x08009624       0x4c Drivers\STM32F7xx_HAL_Driver\stm32f7xx_ll_sdmmc.o
 .text.SDMMC_GetCmdResp3
                0x08009670       0x44 Drivers\STM32F7xx_HAL_Driver\stm32f7xx_ll_sdmmc.o
 .text.SDMMC_Init
                0x080096b4       0xb8 Drivers\STM32F7xx_HAL_Driver\stm32f7xx_ll_sdmmc.o
                0x080096b4                SDMMC_Init
 .text.SDMMC_ReadFIFO
                0x0800976c        0x6 Drivers\STM32F7xx_HAL_Driver\stm32f7xx_ll_sdmmc.o
                0x0800976c                SDMMC_ReadFIFO
 .text.SDMMC_PowerState_ON
                0x08009772        0x8 Drivers\STM32F7xx_HAL_Driver\stm32f7xx_ll_sdmmc.o
                0x08009772                SDMMC_PowerState_ON
 .text.SDMMC_GetPowerState
                0x0800977a        0x8 Drivers\STM32F7xx_HAL_Driver\stm32f7xx_ll_sdmmc.o
                0x0800977a                SDMMC_GetPowerState
 *fill*         0x08009782        0x2 
 .text.SDMMC_SendCommand
                0x08009784       0x80 Drivers\STM32F7xx_HAL_Driver\stm32f7xx_ll_sdmmc.o
                0x08009784                SDMMC_SendCommand
 .text.SDMMC_GetResponse
                0x08009804       0x2c Drivers\STM32F7xx_HAL_Driver\stm32f7xx_ll_sdmmc.o
                0x08009804                SDMMC_GetResponse
 .text.SDMMC_GetCmdResp1
                0x08009830      0x11c Drivers\STM32F7xx_HAL_Driver\stm32f7xx_ll_sdmmc.o
 .text.SDMMC_ConfigData
                0x0800994c       0x9c Drivers\STM32F7xx_HAL_Driver\stm32f7xx_ll_sdmmc.o
                0x0800994c                SDMMC_ConfigData
 .text.SDMMC_CmdBlockLength
                0x080099e8       0x30 Drivers\STM32F7xx_HAL_Driver\stm32f7xx_ll_sdmmc.o
                0x080099e8                SDMMC_CmdBlockLength
 .text.SDMMC_CmdReadSingleBlock
                0x08009a18       0x30 Drivers\STM32F7xx_HAL_Driver\stm32f7xx_ll_sdmmc.o
                0x08009a18                SDMMC_CmdReadSingleBlock
 .text.SDMMC_CmdReadMultiBlock
                0x08009a48       0x30 Drivers\STM32F7xx_HAL_Driver\stm32f7xx_ll_sdmmc.o
                0x08009a48                SDMMC_CmdReadMultiBlock
 .text.SDMMC_CmdWriteSingleBlock
                0x08009a78       0x30 Drivers\STM32F7xx_HAL_Driver\stm32f7xx_ll_sdmmc.o
                0x08009a78                SDMMC_CmdWriteSingleBlock
 .text.SDMMC_CmdWriteMultiBlock
                0x08009aa8       0x30 Drivers\STM32F7xx_HAL_Driver\stm32f7xx_ll_sdmmc.o
                0x08009aa8                SDMMC_CmdWriteMultiBlock
 .text.SDMMC_CmdStopTransfer
                0x08009ad8       0x34 Drivers\STM32F7xx_HAL_Driver\stm32f7xx_ll_sdmmc.o
                0x08009ad8                SDMMC_CmdStopTransfer
 .text.SDMMC_CmdSelDesel
                0x08009b0c       0x30 Drivers\STM32F7xx_HAL_Driver\stm32f7xx_ll_sdmmc.o
                0x08009b0c                SDMMC_CmdSelDesel
 .text.SDMMC_CmdGoIdleState
                0x08009b3c       0x50 Drivers\STM32F7xx_HAL_Driver\stm32f7xx_ll_sdmmc.o
                0x08009b3c                SDMMC_CmdGoIdleState
 .text.SDMMC_CmdOperCond
                0x08009b8c       0x70 Drivers\STM32F7xx_HAL_Driver\stm32f7xx_ll_sdmmc.o
                0x08009b8c                SDMMC_CmdOperCond
 .text.SDMMC_CmdAppCommand
                0x08009bfc       0x30 Drivers\STM32F7xx_HAL_Driver\stm32f7xx_ll_sdmmc.o
                0x08009bfc                SDMMC_CmdAppCommand
 .text.SDMMC_CmdAppOperCommand
                0x08009c2c       0x32 Drivers\STM32F7xx_HAL_Driver\stm32f7xx_ll_sdmmc.o
                0x08009c2c                SDMMC_CmdAppOperCommand
 .text.SDMMC_CmdSendSCR
                0x08009c5e       0x30 Drivers\STM32F7xx_HAL_Driver\stm32f7xx_ll_sdmmc.o
                0x08009c5e                SDMMC_CmdSendSCR
 .text.SDMMC_CmdSendCID
                0x08009c8e       0x2a Drivers\STM32F7xx_HAL_Driver\stm32f7xx_ll_sdmmc.o
                0x08009c8e                SDMMC_CmdSendCID
 .text.SDMMC_CmdSendCSD
                0x08009cb8       0x2a Drivers\STM32F7xx_HAL_Driver\stm32f7xx_ll_sdmmc.o
                0x08009cb8                SDMMC_CmdSendCSD
 *fill*         0x08009ce2        0x2 
 .text.SDMMC_CmdSetRelAdd
                0x08009ce4       0xa8 Drivers\STM32F7xx_HAL_Driver\stm32f7xx_ll_sdmmc.o
                0x08009ce4                SDMMC_CmdSetRelAdd
 .text.SDMMC_CmdSendStatus
                0x08009d8c       0x30 Drivers\STM32F7xx_HAL_Driver\stm32f7xx_ll_sdmmc.o
                0x08009d8c                SDMMC_CmdSendStatus
 .text.SDMMC_CmdSwitch
                0x08009dbc       0x30 Drivers\STM32F7xx_HAL_Driver\stm32f7xx_ll_sdmmc.o
                0x08009dbc                SDMMC_CmdSwitch
 .text.SDMMC_CmdBusWidth
                0x08009dec        0x4 Drivers\STM32F7xx_HAL_Driver\stm32f7xx_ll_sdmmc.o
                0x08009dec                SDMMC_CmdBusWidth
 .text.USB_CoreReset
                0x08009df0       0x30 Drivers\STM32F7xx_HAL_Driver\stm32f7xx_ll_usb.o
 .text.USB_CoreInit
                0x08009e20       0x76 Drivers\STM32F7xx_HAL_Driver\stm32f7xx_ll_usb.o
                0x08009e20                USB_CoreInit
 .text.USB_EnableGlobalInt
                0x08009e96        0xc Drivers\STM32F7xx_HAL_Driver\stm32f7xx_ll_usb.o
                0x08009e96                USB_EnableGlobalInt
 .text.USB_DisableGlobalInt
                0x08009ea2        0xc Drivers\STM32F7xx_HAL_Driver\stm32f7xx_ll_usb.o
                0x08009ea2                USB_DisableGlobalInt
 .text.USB_SetCurrentMode
                0x08009eae       0x2c Drivers\STM32F7xx_HAL_Driver\stm32f7xx_ll_usb.o
                0x08009eae                USB_SetCurrentMode
 *fill*         0x08009eda        0x2 
 .text.USB_FlushTxFifo
                0x08009edc       0x24 Drivers\STM32F7xx_HAL_Driver\stm32f7xx_ll_usb.o
                0x08009edc                USB_FlushTxFifo
 .text.USB_FlushRxFifo
                0x08009f00       0x20 Drivers\STM32F7xx_HAL_Driver\stm32f7xx_ll_usb.o
                0x08009f00                USB_FlushRxFifo
 .text.USB_ReadPacket
                0x08009f20       0x20 Drivers\STM32F7xx_HAL_Driver\stm32f7xx_ll_usb.o
                0x08009f20                USB_ReadPacket
 .text.USB_ReadInterrupts
                0x08009f40        0x8 Drivers\STM32F7xx_HAL_Driver\stm32f7xx_ll_usb.o
                0x08009f40                USB_ReadInterrupts
 .text.USB_GetMode
                0x08009f48        0x8 Drivers\STM32F7xx_HAL_Driver\stm32f7xx_ll_usb.o
                0x08009f48                USB_GetMode
 .text.USB_InitFSLSPClkSel
                0x08009f50       0x3a Drivers\STM32F7xx_HAL_Driver\stm32f7xx_ll_usb.o
                0x08009f50                USB_InitFSLSPClkSel
 .text.USB_ResetPort
                0x08009f8a       0x38 Drivers\STM32F7xx_HAL_Driver\stm32f7xx_ll_usb.o
                0x08009f8a                USB_ResetPort
 .text.USB_DriveVbus
                0x08009fc2       0x3c Drivers\STM32F7xx_HAL_Driver\stm32f7xx_ll_usb.o
                0x08009fc2                USB_DriveVbus
 *fill*         0x08009ffe        0x2 
 .text.USB_HostInit
                0x0800a000       0xcc Drivers\STM32F7xx_HAL_Driver\stm32f7xx_ll_usb.o
                0x0800a000                USB_HostInit
 .text.USB_GetHostSpeed
                0x0800a0cc       0x12 Drivers\STM32F7xx_HAL_Driver\stm32f7xx_ll_usb.o
                0x0800a0cc                USB_GetHostSpeed
 .text.USB_GetCurrentFrame
                0x0800a0de        0xa Drivers\STM32F7xx_HAL_Driver\stm32f7xx_ll_usb.o
                0x0800a0de                USB_GetCurrentFrame
 .text.USB_HC_Init
                0x0800a0e8       0xda Drivers\STM32F7xx_HAL_Driver\stm32f7xx_ll_usb.o
                0x0800a0e8                USB_HC_Init
 .text.USB_HC_ReadInterrupt
                0x0800a1c2        0xa Drivers\STM32F7xx_HAL_Driver\stm32f7xx_ll_usb.o
                0x0800a1c2                USB_HC_ReadInterrupt
 .text.USB_HC_Halt
                0x0800a1cc       0x96 Drivers\STM32F7xx_HAL_Driver\stm32f7xx_ll_usb.o
                0x0800a1cc                USB_HC_Halt
 *fill*         0x0800a262        0x2 
 .text.USB_DoPing
                0x0800a264       0x20 Drivers\STM32F7xx_HAL_Driver\stm32f7xx_ll_usb.o
                0x0800a264                USB_DoPing
 .text.USB_HC_StartXfer
                0x0800a284      0x178 Drivers\STM32F7xx_HAL_Driver\stm32f7xx_ll_usb.o
                0x0800a284                USB_HC_StartXfer
 .text.USB_StopHost
                0x0800a3fc       0x6c Drivers\STM32F7xx_HAL_Driver\stm32f7xx_ll_usb.o
                0x0800a3fc                USB_StopHost
 .text.FATFS_LinkDriverEx
                0x0800a468       0x44 Middlewares\FatFs\ff_gen_drv.o
                0x0800a468                FATFS_LinkDriverEx
 .text.FATFS_LinkDriver
                0x0800a4ac        0x6 Middlewares\FatFs\ff_gen_drv.o
                0x0800a4ac                FATFS_LinkDriver
 .text.osKernelStart
                0x0800a4b2        0xa Middlewares\FreeRTOS\cmsis_os.o
                0x0800a4b2                osKernelStart
 .text.osKernelRunning
                0x0800a4bc       0x10 Middlewares\FreeRTOS\cmsis_os.o
                0x0800a4bc                osKernelRunning
 .text.osKernelSysTick
                0x0800a4cc        0xe Middlewares\FreeRTOS\cmsis_os.o
                0x0800a4cc                osKernelSysTick
 .text.osThreadCreate
                0x0800a4da       0x30 Middlewares\FreeRTOS\cmsis_os.o
                0x0800a4da                osThreadCreate
 .text.osDelay  0x0800a50a       0x10 Middlewares\FreeRTOS\cmsis_os.o
                0x0800a50a                osDelay
 *fill*         0x0800a51a        0x2 
 .text.osTimerCreate
                0x0800a51c       0x20 Middlewares\FreeRTOS\cmsis_os.o
                0x0800a51c                osTimerCreate
 .text.osMutexCreate
                0x0800a53c        0x6 Middlewares\FreeRTOS\cmsis_os.o
                0x0800a53c                osMutexCreate
 *fill*         0x0800a542        0x2 
 .text.osMutexWait
                0x0800a544       0x50 Middlewares\FreeRTOS\cmsis_os.o
                0x0800a544                osMutexWait
 .text.osSemaphoreCreate
                0x0800a594       0x2a Middlewares\FreeRTOS\cmsis_os.o
                0x0800a594                osSemaphoreCreate
 *fill*         0x0800a5be        0x2 
 .text.osSemaphoreWait
                0x0800a5c0       0x50 Middlewares\FreeRTOS\cmsis_os.o
                0x0800a5c0                osSemaphoreWait
 .text.osSemaphoreRelease
                0x0800a610       0x48 Middlewares\FreeRTOS\cmsis_os.o
                0x0800a610                osSemaphoreRelease
 .text.osMutexRelease
                0x0800a658        0x4 Middlewares\FreeRTOS\cmsis_os.o
                0x0800a658                osMutexRelease
 .text.osMessageCreate
                0x0800a65c        0x8 Middlewares\FreeRTOS\cmsis_os.o
                0x0800a65c                osMessageCreate
 .text.osMessagePut
                0x0800a664       0x50 Middlewares\FreeRTOS\cmsis_os.o
                0x0800a664                osMessagePut
 .text.osMessageGet
                0x0800a6b4       0x74 Middlewares\FreeRTOS\cmsis_os.o
                0x0800a6b4                osMessageGet
 .text.osSystickHandler
                0x0800a728       0x14 Middlewares\FreeRTOS\cmsis_os.o
                0x0800a728                osSystickHandler
 .text.osRecursiveMutexCreate
                0x0800a73c        0x6 Middlewares\FreeRTOS\cmsis_os.o
                0x0800a73c                osRecursiveMutexCreate
 *fill*         0x0800a742        0x2 
 .text.unlikely.prvInsertBlockIntoFreeList
                0x0800a744       0x48 Middlewares\FreeRTOS\heap_4.o
 .text.pvPortMalloc
                0x0800a78c      0x128 Middlewares\FreeRTOS\heap_4.o
                0x0800a78c                pvPortMalloc
 .text.vPortFree
                0x0800a8b4       0x78 Middlewares\FreeRTOS\heap_4.o
                0x0800a8b4                vPortFree
 .text.vListInitialise
                0x0800a92c       0x16 Middlewares\FreeRTOS\list.o
                0x0800a92c                vListInitialise
 .text.vListInitialiseItem
                0x0800a942        0x6 Middlewares\FreeRTOS\list.o
                0x0800a942                vListInitialiseItem
 .text.vListInsertEnd
                0x0800a948       0x18 Middlewares\FreeRTOS\list.o
                0x0800a948                vListInsertEnd
 .text.vListInsert
                0x0800a960       0x2e Middlewares\FreeRTOS\list.o
                0x0800a960                vListInsert
 .text.uxListRemove
                0x0800a98e       0x20 Middlewares\FreeRTOS\list.o
                0x0800a98e                uxListRemove
 *fill*         0x0800a9ae        0x2 
 .text.prvTaskExitError
                0x0800a9b0       0x38 Middlewares\FreeRTOS\port.o
 .text.prvPortStartFirstTask
                0x0800a9e8       0x20 Middlewares\FreeRTOS\port.o
 .text.vPortEnableVFP
                0x0800aa08       0x14 Middlewares\FreeRTOS\port.o
 .text.pxPortInitialiseStack
                0x0800aa1c       0x24 Middlewares\FreeRTOS\port.o
                0x0800aa1c                pxPortInitialiseStack
 .text.SVC_Handler
                0x0800aa40       0x24 Middlewares\FreeRTOS\port.o
                0x0800aa40                SVC_Handler
 .text.vPortEnterCritical
                0x0800aa64       0x4c Middlewares\FreeRTOS\port.o
                0x0800aa64                vPortEnterCritical
 .text.vPortExitCritical
                0x0800aab0       0x2c Middlewares\FreeRTOS\port.o
                0x0800aab0                vPortExitCritical
 *fill*         0x0800aadc        0x4 
 .text.PendSV_Handler
                0x0800aae0       0x64 Middlewares\FreeRTOS\port.o
                0x0800aae0                PendSV_Handler
 .text.xPortSysTickHandler
                0x0800ab44       0x30 Middlewares\FreeRTOS\port.o
                0x0800ab44                xPortSysTickHandler
 .text.vPortSetupTimerInterrupt
                0x0800ab74       0x28 Middlewares\FreeRTOS\port.o
                0x0800ab74                vPortSetupTimerInterrupt
 .text.xPortStartScheduler
                0x0800ab9c       0xa8 Middlewares\FreeRTOS\port.o
                0x0800ab9c                xPortStartScheduler
 .text.vPortValidateInterruptPriority
                0x0800ac44       0x64 Middlewares\FreeRTOS\port.o
                0x0800ac44                vPortValidateInterruptPriority
 .text.unlikely.prvCopyDataToQueue
                0x0800aca8       0x66 Middlewares\FreeRTOS\queue.o
 .text.unlikely.prvCopyDataFromQueue
                0x0800ad0e       0x2a Middlewares\FreeRTOS\queue.o
 .text.prvUnlockQueue
                0x0800ad38       0x70 Middlewares\FreeRTOS\queue.o
 .text.xQueueGenericReset
                0x0800ada8       0x84 Middlewares\FreeRTOS\queue.o
                0x0800ada8                xQueueGenericReset
 .text.xQueueGenericCreate
                0x0800ae2c       0x4c Middlewares\FreeRTOS\queue.o
                0x0800ae2c                xQueueGenericCreate
 .text.xQueueCreateCountingSemaphore
                0x0800ae78       0x44 Middlewares\FreeRTOS\queue.o
                0x0800ae78                xQueueCreateCountingSemaphore
 .text.xQueueGenericSend
                0x0800aebc      0x17c Middlewares\FreeRTOS\queue.o
                0x0800aebc                xQueueGenericSend
 .text.xQueueCreateMutex
                0x0800b038       0x24 Middlewares\FreeRTOS\queue.o
                0x0800b038                xQueueCreateMutex
 .text.xQueueGenericSendFromISR
                0x0800b05c       0xd4 Middlewares\FreeRTOS\queue.o
                0x0800b05c                xQueueGenericSendFromISR
 .text.xQueueGiveFromISR
                0x0800b130       0xba Middlewares\FreeRTOS\queue.o
                0x0800b130                xQueueGiveFromISR
 *fill*         0x0800b1ea        0x2 
 .text.xQueueGenericReceive
                0x0800b1ec      0x194 Middlewares\FreeRTOS\queue.o
                0x0800b1ec                xQueueGenericReceive
 .text.xQueueReceiveFromISR
                0x0800b380       0xac Middlewares\FreeRTOS\queue.o
                0x0800b380                xQueueReceiveFromISR
 .text.vQueueAddToRegistry
                0x0800b42c       0x24 Middlewares\FreeRTOS\queue.o
                0x0800b42c                vQueueAddToRegistry
 .text.vQueueWaitForMessageRestricted
                0x0800b450       0x46 Middlewares\FreeRTOS\queue.o
                0x0800b450                vQueueWaitForMessageRestricted
 *fill*         0x0800b496        0x2 
 .text.prvAddCurrentTaskToDelayedList
                0x0800b498       0x94 Middlewares\FreeRTOS\tasks.o
 .text.prvResetNextTaskUnblockTime
                0x0800b52c       0x24 Middlewares\FreeRTOS\tasks.o
 .text.vTaskSetTimeOutState.part.5
                0x0800b550       0x16 Middlewares\FreeRTOS\tasks.o
 *fill*         0x0800b566        0x2 
 .text.xTaskCreate
                0x0800b568      0x1b8 Middlewares\FreeRTOS\tasks.o
                0x0800b568                xTaskCreate
 .text.vTaskStartScheduler
                0x0800b720       0x8c Middlewares\FreeRTOS\tasks.o
                0x0800b720                vTaskStartScheduler
 .text.vTaskSuspendAll
                0x0800b7ac       0x10 Middlewares\FreeRTOS\tasks.o
                0x0800b7ac                vTaskSuspendAll
 .text.xTaskGetTickCount
                0x0800b7bc        0xc Middlewares\FreeRTOS\tasks.o
                0x0800b7bc                xTaskGetTickCount
 .text.xTaskGetTickCountFromISR
                0x0800b7c8       0x10 Middlewares\FreeRTOS\tasks.o
                0x0800b7c8                xTaskGetTickCountFromISR
 .text.xTaskIncrementTick
                0x0800b7d8      0x128 Middlewares\FreeRTOS\tasks.o
                0x0800b7d8                xTaskIncrementTick
 .text.xTaskResumeAll
                0x0800b900       0xf4 Middlewares\FreeRTOS\tasks.o
                0x0800b900                xTaskResumeAll
 .text.vTaskDelay
                0x0800b9f4       0x4c Middlewares\FreeRTOS\tasks.o
                0x0800b9f4                vTaskDelay
 .text.prvIdleTask
                0x0800ba40       0x78 Middlewares\FreeRTOS\tasks.o
 .text.vTaskSwitchContext
                0x0800bab8       0xc4 Middlewares\FreeRTOS\tasks.o
                0x0800bab8                vTaskSwitchContext
 .text.vTaskPlaceOnEventList
                0x0800bb7c       0x38 Middlewares\FreeRTOS\tasks.o
                0x0800bb7c                vTaskPlaceOnEventList
 .text.vTaskPlaceOnEventListRestricted
                0x0800bbb4       0x40 Middlewares\FreeRTOS\tasks.o
                0x0800bbb4                vTaskPlaceOnEventListRestricted
 .text.xTaskRemoveFromEventList
                0x0800bbf4       0x88 Middlewares\FreeRTOS\tasks.o
                0x0800bbf4                xTaskRemoveFromEventList
 .text.vTaskSetTimeOutState
                0x0800bc7c       0x20 Middlewares\FreeRTOS\tasks.o
                0x0800bc7c                vTaskSetTimeOutState
 .text.xTaskCheckForTimeOut
                0x0800bc9c       0x94 Middlewares\FreeRTOS\tasks.o
                0x0800bc9c                xTaskCheckForTimeOut
 .text.vTaskMissedYield
                0x0800bd30        0xc Middlewares\FreeRTOS\tasks.o
                0x0800bd30                vTaskMissedYield
 .text.xTaskGetSchedulerState
                0x0800bd3c       0x20 Middlewares\FreeRTOS\tasks.o
                0x0800bd3c                xTaskGetSchedulerState
 .text.vTaskPriorityInherit
                0x0800bd5c       0x8c Middlewares\FreeRTOS\tasks.o
                0x0800bd5c                vTaskPriorityInherit
 .text.xTaskPriorityDisinherit
                0x0800bde8       0xa8 Middlewares\FreeRTOS\tasks.o
                0x0800bde8                xTaskPriorityDisinherit
 .text.pvTaskIncrementMutexHeldCount
                0x0800be90       0x18 Middlewares\FreeRTOS\tasks.o
                0x0800be90                pvTaskIncrementMutexHeldCount
 .text.prvCheckForValidListAndQueue
                0x0800bea8       0x58 Middlewares\FreeRTOS\timers.o
 .text.prvInsertTimerInActiveList
                0x0800bf00       0x3c Middlewares\FreeRTOS\timers.o
 .text.xTimerCreateTimerTask
                0x0800bf3c       0x50 Middlewares\FreeRTOS\timers.o
                0x0800bf3c                xTimerCreateTimerTask
 .text.xTimerCreate
                0x0800bf8c       0x4c Middlewares\FreeRTOS\timers.o
                0x0800bf8c                xTimerCreate
 .text.xTimerGenericCommand
                0x0800bfd8       0x5c Middlewares\FreeRTOS\timers.o
                0x0800bfd8                xTimerGenericCommand
 .text.prvSwitchTimerLists
                0x0800c034       0x80 Middlewares\FreeRTOS\timers.o
 .text.prvTimerTask
                0x0800c0b4      0x1ec Middlewares\FreeRTOS\timers.o
 .text.lwip_htons
                0x0800c2a0        0x6 Middlewares\LwIP\def.o
                0x0800c2a0                lwip_htons
 .text.lwip_htonl
                0x0800c2a6        0x4 Middlewares\LwIP\def.o
                0x0800c2a6                lwip_htonl
 .text.dhcp_set_state
                0x0800c2aa       0x10 Middlewares\LwIP\dhcp.o
 *fill*         0x0800c2ba        0x2 
 .text.dhcp_option_short
                0x0800c2bc       0x44 Middlewares\LwIP\dhcp.o
 .text.dhcp_option
                0x0800c300       0x48 Middlewares\LwIP\dhcp.o
 .text.dhcp_option_byte
                0x0800c348       0x38 Middlewares\LwIP\dhcp.o
 .text.dhcp_option_long
                0x0800c380       0x5c Middlewares\LwIP\dhcp.o
 .text.dhcp_create_msg
                0x0800c3dc      0x1b8 Middlewares\LwIP\dhcp.o
 .text.dhcp_check
                0x0800c594       0x2a Middlewares\LwIP\dhcp.o
 *fill*         0x0800c5be        0x2 
 .text.dhcp_bind
                0x0800c5c0      0x100 Middlewares\LwIP\dhcp.o
 .text.dhcp_inc_pcb_refcount
                0x0800c6c0       0x74 Middlewares\LwIP\dhcp.o
 .text.dhcp_option_trailer
                0x0800c734       0x78 Middlewares\LwIP\dhcp.o
 .text.unlikely.dhcp_handle_ack.isra.1
                0x0800c7ac       0x6c Middlewares\LwIP\dhcp.o
 .text.dhcp_delete_msg
                0x0800c818       0x60 Middlewares\LwIP\dhcp.o
 .text.dhcp_discover
                0x0800c878       0xbc Middlewares\LwIP\dhcp.o
 .text.dhcp_select
                0x0800c934       0xe8 Middlewares\LwIP\dhcp.o
 .text.dhcp_reboot
                0x0800ca1c       0xd4 Middlewares\LwIP\dhcp.o
 .text.dhcp_dec_pcb_refcount
                0x0800caf0       0x40 Middlewares\LwIP\dhcp.o
 .text.dhcp_recv
                0x0800cb30      0x40c Middlewares\LwIP\dhcp.o
 .text.dhcp_arp_reply
                0x0800cf3c       0xb0 Middlewares\LwIP\dhcp.o
                0x0800cf3c                dhcp_arp_reply
 .text.dhcp_renew
                0x0800cfec       0xb4 Middlewares\LwIP\dhcp.o
                0x0800cfec                dhcp_renew
 .text.dhcp_stop
                0x0800d0a0       0x54 Middlewares\LwIP\dhcp.o
                0x0800d0a0                dhcp_stop
 .text.dhcp_start
                0x0800d0f4       0xbc Middlewares\LwIP\dhcp.o
                0x0800d0f4                dhcp_start
 .text.dhcp_supplied_address
                0x0800d1b0       0x1c Middlewares\LwIP\dhcp.o
                0x0800d1b0                dhcp_supplied_address
 .text.dhcp_release
                0x0800d1cc       0xac Middlewares\LwIP\dhcp.o
                0x0800d1cc                dhcp_release
 .text.dhcp_coarse_tmr
                0x0800d278      0x154 Middlewares\LwIP\dhcp.o
                0x0800d278                dhcp_coarse_tmr
 .text.dhcp_fine_tmr
                0x0800d3cc       0x7c Middlewares\LwIP\dhcp.o
                0x0800d3cc                dhcp_fine_tmr
 .text.etharp_free_entry
                0x0800d448       0x28 Middlewares\LwIP\etharp.o
 .text.etharp_raw
                0x0800d470       0xd8 Middlewares\LwIP\etharp.o
 .text.etharp_find_entry.isra.0
                0x0800d548      0x114 Middlewares\LwIP\etharp.o
 .text.etharp_cleanup_netif
                0x0800d65c       0x28 Middlewares\LwIP\etharp.o
                0x0800d65c                etharp_cleanup_netif
 .text.etharp_input
                0x0800d684      0x14c Middlewares\LwIP\etharp.o
                0x0800d684                etharp_input
 .text.etharp_request
                0x0800d7d0       0x2c Middlewares\LwIP\etharp.o
                0x0800d7d0                etharp_request
 .text.etharp_tmr
                0x0800d7fc       0x54 Middlewares\LwIP\etharp.o
                0x0800d7fc                etharp_tmr
 .text.etharp_output_to_arp_index
                0x0800d850       0xb8 Middlewares\LwIP\etharp.o
 .text.etharp_query
                0x0800d908      0x150 Middlewares\LwIP\etharp.o
                0x0800d908                etharp_query
 .text.etharp_output
                0x0800da58      0x128 Middlewares\LwIP\etharp.o
                0x0800da58                etharp_output
 .text.ethernet_input
                0x0800db80       0x98 Middlewares\LwIP\ethernet.o
                0x0800db80                ethernet_input
 .text.ethernet_output
                0x0800dc18       0x70 Middlewares\LwIP\ethernet.o
                0x0800dc18                ethernet_output
 .text.icmp_send_response.isra.0
                0x0800dc88       0x94 Middlewares\LwIP\icmp.o
 .text.icmp_input
                0x0800dd1c      0x130 Middlewares\LwIP\icmp.o
                0x0800dd1c                icmp_input
 .text.icmp_dest_unreach
                0x0800de4c        0xa Middlewares\LwIP\icmp.o
                0x0800de4c                icmp_dest_unreach
 .text.icmp_time_exceeded
                0x0800de56        0xa Middlewares\LwIP\icmp.o
                0x0800de56                icmp_time_exceeded
 .text.lwip_init
                0x0800de60       0x22 Middlewares\LwIP\init.o
                0x0800de60                lwip_init
 *fill*         0x0800de82        0x2 
 .text.ip4_route
                0x0800de84       0x58 Middlewares\LwIP\ip4.o
                0x0800de84                ip4_route
 .text.ip4_input
                0x0800dedc      0x19c Middlewares\LwIP\ip4.o
                0x0800dedc                ip4_input
 .text.ip4_output_if_src
                0x0800e078       0xf0 Middlewares\LwIP\ip4.o
                0x0800e078                ip4_output_if_src
 .text.ip4_output_if
                0x0800e168       0x22 Middlewares\LwIP\ip4.o
                0x0800e168                ip4_output_if
 .text.ip4_addr_isbroadcast_u32
                0x0800e18a       0x32 Middlewares\LwIP\ip4_addr.o
                0x0800e18a                ip4_addr_isbroadcast_u32
 .text.ip_reass_dequeue_datagram
                0x0800e1bc       0x44 Middlewares\LwIP\ip4_frag.o
 .text.ip_reass_free_complete_datagram
                0x0800e200       0xe8 Middlewares\LwIP\ip4_frag.o
 .text.ip_reass_remove_oldest_datagram
                0x0800e2e8       0x78 Middlewares\LwIP\ip4_frag.o
 .text.ip_frag_free_pbuf_custom_ref
                0x0800e360       0x2c Middlewares\LwIP\ip4_frag.o
 .text.ipfrag_free_pbuf_custom
                0x0800e38c       0x34 Middlewares\LwIP\ip4_frag.o
 .text.ip_reass_tmr
                0x0800e3c0       0x28 Middlewares\LwIP\ip4_frag.o
                0x0800e3c0                ip_reass_tmr
 .text.ip4_reass
                0x0800e3e8      0x354 Middlewares\LwIP\ip4_frag.o
                0x0800e3e8                ip4_reass
 .text.ip4_frag
                0x0800e73c      0x1b4 Middlewares\LwIP\ip4_frag.o
                0x0800e73c                ip4_frag
 .text.mem_init
                0x0800e8f0       0x6c Middlewares\LwIP\mem.o
                0x0800e8f0                mem_init
 .text.mem_free
                0x0800e95c      0x174 Middlewares\LwIP\mem.o
                0x0800e95c                mem_free
 .text.mem_trim
                0x0800ead0      0x118 Middlewares\LwIP\mem.o
                0x0800ead0                mem_trim
 .text.mem_malloc
                0x0800ebe8      0x13c Middlewares\LwIP\mem.o
                0x0800ebe8                mem_malloc
 .text.do_memp_malloc_pool.isra.0
                0x0800ed24       0x3c Middlewares\LwIP\memp.o
 .text.do_memp_free_pool.isra.1
                0x0800ed60       0x38 Middlewares\LwIP\memp.o
 .text.memp_init_pool
                0x0800ed98       0x26 Middlewares\LwIP\memp.o
                0x0800ed98                memp_init_pool
 *fill*         0x0800edbe        0x2 
 .text.memp_init
                0x0800edc0       0x1c Middlewares\LwIP\memp.o
                0x0800edc0                memp_init
 .text.memp_malloc
                0x0800eddc       0x38 Middlewares\LwIP\memp.o
                0x0800eddc                memp_malloc
 .text.memp_free
                0x0800ee14       0x34 Middlewares\LwIP\memp.o
                0x0800ee14                memp_free
 .text.netif_issue_reports.part.0
                0x0800ee48       0x12 Middlewares\LwIP\netif.o
 .text.netif_init
                0x0800ee5a        0x2 Middlewares\LwIP\netif.o
                0x0800ee5a                netif_init
 .text.netif_set_ipaddr
                0x0800ee5c       0x44 Middlewares\LwIP\netif.o
                0x0800ee5c                netif_set_ipaddr
 .text.netif_set_addr
                0x0800eea0       0x38 Middlewares\LwIP\netif.o
                0x0800eea0                netif_set_addr
 .text.netif_add
                0x0800eed8       0x7c Middlewares\LwIP\netif.o
                0x0800eed8                netif_add
 .text.netif_set_default
                0x0800ef54        0xc Middlewares\LwIP\netif.o
                0x0800ef54                netif_set_default
 .text.netif_set_up
                0x0800ef60       0x1e Middlewares\LwIP\netif.o
                0x0800ef60                netif_set_up
 .text.netif_set_down
                0x0800ef7e       0x1a Middlewares\LwIP\netif.o
                0x0800ef7e                netif_set_down
 .text.pbuf_free_ooseq_callback
                0x0800ef98       0x34 Middlewares\LwIP\pbuf.o
 .text.pbuf_header_impl
                0x0800efcc       0x9c Middlewares\LwIP\pbuf.o
 .text.pbuf_pool_is_empty
                0x0800f068       0x3c Middlewares\LwIP\pbuf.o
 .text.pbuf_alloced_custom
                0x0800f0a4       0x70 Middlewares\LwIP\pbuf.o
                0x0800f0a4                pbuf_alloced_custom
 .text.pbuf_header
                0x0800f114        0x6 Middlewares\LwIP\pbuf.o
                0x0800f114                pbuf_header
 .text.pbuf_header_force
                0x0800f11a        0x6 Middlewares\LwIP\pbuf.o
                0x0800f11a                pbuf_header_force
 .text.pbuf_free
                0x0800f120       0xd4 Middlewares\LwIP\pbuf.o
                0x0800f120                pbuf_free
 .text.pbuf_alloc
                0x0800f1f4      0x1b8 Middlewares\LwIP\pbuf.o
                0x0800f1f4                pbuf_alloc
 .text.pbuf_realloc
                0x0800f3ac       0xe0 Middlewares\LwIP\pbuf.o
                0x0800f3ac                pbuf_realloc
 .text.pbuf_clen
                0x0800f48c       0x10 Middlewares\LwIP\pbuf.o
                0x0800f48c                pbuf_clen
 .text.pbuf_ref
                0x0800f49c       0x38 Middlewares\LwIP\pbuf.o
                0x0800f49c                pbuf_ref
 .text.pbuf_cat
                0x0800f4d4       0x74 Middlewares\LwIP\pbuf.o
                0x0800f4d4                pbuf_cat
 .text.pbuf_chain
                0x0800f548       0x12 Middlewares\LwIP\pbuf.o
                0x0800f548                pbuf_chain
 *fill*         0x0800f55a        0x2 
 .text.pbuf_copy
                0x0800f55c      0x114 Middlewares\LwIP\pbuf.o
                0x0800f55c                pbuf_copy
 .text.pbuf_copy_partial
                0x0800f670       0x8c Middlewares\LwIP\pbuf.o
                0x0800f670                pbuf_copy_partial
 .text.sys_mbox_new
                0x0800f6fc       0x20 Middlewares\LwIP\sys_arch.o
                0x0800f6fc                sys_mbox_new
 .text.sys_mbox_post
                0x0800f71c       0x18 Middlewares\LwIP\sys_arch.o
                0x0800f71c                sys_mbox_post
 .text.sys_mbox_trypost
                0x0800f734       0x14 Middlewares\LwIP\sys_arch.o
                0x0800f734                sys_mbox_trypost
 .text.sys_arch_mbox_fetch
                0x0800f748       0x44 Middlewares\LwIP\sys_arch.o
                0x0800f748                sys_arch_mbox_fetch
 .text.sys_mbox_valid
                0x0800f78c        0xa Middlewares\LwIP\sys_arch.o
                0x0800f78c                sys_mbox_valid
 *fill*         0x0800f796        0x2 
 .text.sys_init
                0x0800f798       0x18 Middlewares\LwIP\sys_arch.o
                0x0800f798                sys_init
 .text.sys_mutex_new
                0x0800f7b0       0x1e Middlewares\LwIP\sys_arch.o
                0x0800f7b0                sys_mutex_new
 .text.sys_mutex_lock
                0x0800f7ce        0xa Middlewares\LwIP\sys_arch.o
                0x0800f7ce                sys_mutex_lock
 .text.sys_mutex_unlock
                0x0800f7d8        0x6 Middlewares\LwIP\sys_arch.o
                0x0800f7d8                sys_mutex_unlock
 .text.sys_thread_new
                0x0800f7de       0x20 Middlewares\LwIP\sys_arch.o
                0x0800f7de                sys_thread_new
 *fill*         0x0800f7fe        0x2 
 .text.sys_arch_protect
                0x0800f800       0x18 Middlewares\LwIP\sys_arch.o
                0x0800f800                sys_arch_protect
 .text.sys_arch_unprotect
                0x0800f818        0xc Middlewares\LwIP\sys_arch.o
                0x0800f818                sys_arch_unprotect
 .text.tcp_close_shutdown_fin
                0x0800f824       0x60 Middlewares\LwIP\tcp.o
 .text.tcp_init
                0x0800f884        0x2 Middlewares\LwIP\tcp.o
                0x0800f884                tcp_init
 *fill*         0x0800f886        0x2 
 .text.tcp_update_rcv_ann_wnd
                0x0800f888       0x58 Middlewares\LwIP\tcp.o
                0x0800f888                tcp_update_rcv_ann_wnd
 .text.tcp_recved
                0x0800f8e0       0x7c Middlewares\LwIP\tcp.o
                0x0800f8e0                tcp_recved
 .text.tcp_seg_free
                0x0800f95c       0x1c Middlewares\LwIP\tcp.o
                0x0800f95c                tcp_seg_free
 .text.tcp_segs_free
                0x0800f978       0x10 Middlewares\LwIP\tcp.o
                0x0800f978                tcp_segs_free
 .text.tcp_seg_copy
                0x0800f988       0x2c Middlewares\LwIP\tcp.o
                0x0800f988                tcp_seg_copy
 .text.tcp_pcb_purge
                0x0800f9b4       0x40 Middlewares\LwIP\tcp.o
                0x0800f9b4                tcp_pcb_purge
 .text.tcp_slowtmr
                0x0800f9f4      0x3c4 Middlewares\LwIP\tcp.o
                0x0800f9f4                tcp_slowtmr
 .text.tcp_pcb_remove
                0x0800fdb8       0xa0 Middlewares\LwIP\tcp.o
                0x0800fdb8                tcp_pcb_remove
 .text.tcp_close_shutdown
                0x0800fe58      0x14c Middlewares\LwIP\tcp.o
 .text.tcp_close
                0x0800ffa4       0x14 Middlewares\LwIP\tcp.o
                0x0800ffa4                tcp_close
 .text.tcp_recv_null
                0x0800ffb8       0x24 Middlewares\LwIP\tcp.o
                0x0800ffb8                tcp_recv_null
 .text.tcp_process_refused_data
                0x0800ffdc       0x66 Middlewares\LwIP\tcp.o
                0x0800ffdc                tcp_process_refused_data
 *fill*         0x08010042        0x2 
 .text.tcp_fasttmr
                0x08010044       0x80 Middlewares\LwIP\tcp.o
                0x08010044                tcp_fasttmr
 .text.tcp_tmr  0x080100c4       0x24 Middlewares\LwIP\tcp.o
                0x080100c4                tcp_tmr
 .text.tcp_abandon
                0x080100e8       0xec Middlewares\LwIP\tcp.o
                0x080100e8                tcp_abandon
 .text.tcp_abort
                0x080101d4        0x6 Middlewares\LwIP\tcp.o
                0x080101d4                tcp_abort
 .text.tcp_netif_ip_addr_changed_pcblist
                0x080101da       0x1c Middlewares\LwIP\tcp.o
 *fill*         0x080101f6        0x2 
 .text.tcp_kill_state
                0x080101f8       0x60 Middlewares\LwIP\tcp.o
 .text.tcp_alloc
                0x08010258      0x110 Middlewares\LwIP\tcp.o
                0x08010258                tcp_alloc
 .text.tcp_next_iss
                0x08010368       0x18 Middlewares\LwIP\tcp.o
                0x08010368                tcp_next_iss
 .text.tcp_eff_send_mss_impl
                0x08010380       0x1e Middlewares\LwIP\tcp.o
                0x08010380                tcp_eff_send_mss_impl
 *fill*         0x0801039e        0x2 
 .text.tcp_netif_ip_addr_changed
                0x080103a0       0x4c Middlewares\LwIP\tcp.o
                0x080103a0                tcp_netif_ip_addr_changed
 .text.tcp_oos_insert_segment
                0x080103ec       0x7c Middlewares\LwIP\tcp_in.o
 .text.tcp_receive
                0x08010468      0x9a8 Middlewares\LwIP\tcp_in.o
 .text.tcp_getoptbyte
                0x08010e10       0x40 Middlewares\LwIP\tcp_in.o
 .text.tcp_parseopt.isra.1.part.2
                0x08010e50       0x70 Middlewares\LwIP\tcp_in.o
 .text.tcp_input_delayed_close
                0x08010ec0       0x40 Middlewares\LwIP\tcp_in.o
 .text.tcp_input
                0x08010f00      0x9fc Middlewares\LwIP\tcp_in.o
                0x08010f00                tcp_input
 .text.tcp_trigger_input_pcb_close
                0x080118fc       0x10 Middlewares\LwIP\tcp_in.o
                0x080118fc                tcp_trigger_input_pcb_close
 .text.tcp_create_segment
                0x0801190c       0xcc Middlewares\LwIP\tcp_out.o
 .text.tcp_output_alloc_header.constprop.0
                0x080119d8       0x78 Middlewares\LwIP\tcp_out.o
 .text.tcp_enqueue_flags
                0x08011a50      0x12c Middlewares\LwIP\tcp_out.o
                0x08011a50                tcp_enqueue_flags
 .text.tcp_send_fin
                0x08011b7c       0x44 Middlewares\LwIP\tcp_out.o
                0x08011b7c                tcp_send_fin
 .text.tcp_send_empty_ack
                0x08011bc0       0x6a Middlewares\LwIP\tcp_out.o
                0x08011bc0                tcp_send_empty_ack
 *fill*         0x08011c2a        0x2 
 .text.tcp_output
                0x08011c2c      0x2fc Middlewares\LwIP\tcp_out.o
                0x08011c2c                tcp_output
 .text.tcp_rst  0x08011f28       0xb4 Middlewares\LwIP\tcp_out.o
                0x08011f28                tcp_rst
 .text.tcp_rexmit_rto
                0x08011fdc       0x38 Middlewares\LwIP\tcp_out.o
                0x08011fdc                tcp_rexmit_rto
 .text.tcp_rexmit
                0x08012014       0x52 Middlewares\LwIP\tcp_out.o
                0x08012014                tcp_rexmit
 .text.tcp_rexmit_fast
                0x08012066       0x4e Middlewares\LwIP\tcp_out.o
                0x08012066                tcp_rexmit_fast
 .text.tcp_keepalive
                0x080120b4       0x54 Middlewares\LwIP\tcp_out.o
                0x080120b4                tcp_keepalive
 .text.tcp_zero_window_probe
                0x08012108       0xbe Middlewares\LwIP\tcp_out.o
                0x08012108                tcp_zero_window_probe
 *fill*         0x080121c6        0x2 
 .text.tcpip_thread
                0x080121c8       0x94 Middlewares\LwIP\tcpip.o
 .text.tcpip_inpkt
                0x0801225c       0x58 Middlewares\LwIP\tcpip.o
                0x0801225c                tcpip_inpkt
 .text.tcpip_input
                0x080122b4       0x1c Middlewares\LwIP\tcpip.o
                0x080122b4                tcpip_input
 .text.tcpip_callback_with_block
                0x080122d0       0x60 Middlewares\LwIP\tcpip.o
                0x080122d0                tcpip_callback_with_block
 .text.tcpip_init
                0x08012330       0x80 Middlewares\LwIP\tcpip.o
                0x08012330                tcpip_init
 .text.sys_timeout
                0x080123b0       0xa4 Middlewares\LwIP\timeouts.o
                0x080123b0                sys_timeout
 .text.tcp_timer_needed
                0x08012454       0x34 Middlewares\LwIP\timeouts.o
                0x08012454                tcp_timer_needed
 .text.tcpip_tcp_timer
                0x08012488       0x38 Middlewares\LwIP\timeouts.o
 .text.sys_timeouts_init
                0x080124c0       0x54 Middlewares\LwIP\timeouts.o
                0x080124c0                sys_timeouts_init
 .text.cyclic_timer
                0x08012514       0x1c Middlewares\LwIP\timeouts.o
 .text.sys_timeouts_mbox_fetch
                0x08012530       0xa4 Middlewares\LwIP\timeouts.o
                0x08012530                sys_timeouts_mbox_fetch
 .text.udp_init
                0x080125d4        0x2 Middlewares\LwIP\udp.o
                0x080125d4                udp_init
 *fill*         0x080125d6        0x2 
 .text.udp_input
                0x080125d8      0x130 Middlewares\LwIP\udp.o
                0x080125d8                udp_input
 .text.udp_bind
                0x08012708       0xa8 Middlewares\LwIP\udp.o
                0x08012708                udp_bind
 .text.udp_sendto_if_src
                0x080127b0       0xcc Middlewares\LwIP\udp.o
                0x080127b0                udp_sendto_if_src
 .text.udp_sendto_if
                0x0801287c       0x38 Middlewares\LwIP\udp.o
                0x0801287c                udp_sendto_if
 .text.udp_connect
                0x080128b4       0x50 Middlewares\LwIP\udp.o
                0x080128b4                udp_connect
 .text.udp_recv
                0x08012904        0x6 Middlewares\LwIP\udp.o
                0x08012904                udp_recv
 *fill*         0x0801290a        0x2 
 .text.udp_remove
                0x0801290c       0x30 Middlewares\LwIP\udp.o
                0x0801290c                udp_remove
 .text.udp_new  0x0801293c       0x1c Middlewares\LwIP\udp.o
                0x0801293c                udp_new
 .text.udp_netif_ip_addr_changed
                0x08012958       0x2c Middlewares\LwIP\udp.o
                0x08012958                udp_netif_ip_addr_changed
 .text.USBH_CDC_SOFProcess
                0x08012984        0x4 Middlewares\USB_Host_Library\usbh_cdc.o
 .text.USBH_CDC_InterfaceDeInit
                0x08012988       0x62 Middlewares\USB_Host_Library\usbh_cdc.o
 .text.USBH_CDC_InterfaceInit
                0x080129ea      0x12a Middlewares\USB_Host_Library\usbh_cdc.o
 .text.USBH_CDC_ClassRequest
                0x08012b14       0x34 Middlewares\USB_Host_Library\usbh_cdc.o
 .text.USBH_CDC_TransmitCallback
                0x08012b48        0x2 Middlewares\USB_Host_Library\usbh_cdc.o
                0x08012b48                USBH_CDC_TransmitCallback
 .text.USBH_CDC_ReceiveCallback
                0x08012b4a        0x2 Middlewares\USB_Host_Library\usbh_cdc.o
                0x08012b4a                USBH_CDC_ReceiveCallback
 .text.USBH_CDC_LineCodingChanged
                0x08012b4c        0x2 Middlewares\USB_Host_Library\usbh_cdc.o
                0x08012b4c                USBH_CDC_LineCodingChanged
 .text.USBH_CDC_Process
                0x08012b4e      0x198 Middlewares\USB_Host_Library\usbh_cdc.o
 .text.DeInitStateMachine
                0x08012ce6       0x44 Middlewares\USB_Host_Library\usbh_core.o
 *fill*         0x08012d2a        0x2 
 .text.USBH_Init
                0x08012d2c       0x68 Middlewares\USB_Host_Library\usbh_core.o
                0x08012d2c                USBH_Init
 .text.USBH_RegisterClass
                0x08012d94       0x1a Middlewares\USB_Host_Library\usbh_core.o
                0x08012d94                USBH_RegisterClass
 .text.USBH_SelectInterface
                0x08012dae       0x12 Middlewares\USB_Host_Library\usbh_core.o
                0x08012dae                USBH_SelectInterface
 .text.USBH_FindInterface
                0x08012dc0       0x38 Middlewares\USB_Host_Library\usbh_core.o
                0x08012dc0                USBH_FindInterface
 .text.USBH_Start
                0x08012df8       0x14 Middlewares\USB_Host_Library\usbh_core.o
                0x08012df8                USBH_Start
 .text.USBH_Process
                0x08012e0c      0x29c Middlewares\USB_Host_Library\usbh_core.o
                0x08012e0c                USBH_Process
 .text.USBH_Process_OS
                0x080130a8       0x20 Middlewares\USB_Host_Library\usbh_core.o
 .text.USBH_LL_SetTimer
                0x080130c8        0x6 Middlewares\USB_Host_Library\usbh_core.o
                0x080130c8                USBH_LL_SetTimer
 .text.USBH_LL_IncTimer
                0x080130ce       0x1c Middlewares\USB_Host_Library\usbh_core.o
                0x080130ce                USBH_LL_IncTimer
 .text.USBH_LL_Connect
                0x080130ea       0x34 Middlewares\USB_Host_Library\usbh_core.o
                0x080130ea                USBH_LL_Connect
 .text.USBH_LL_Disconnect
                0x0801311e       0x44 Middlewares\USB_Host_Library\usbh_core.o
                0x0801311e                USBH_LL_Disconnect
 .text.USBH_LL_NotifyURBChange
                0x08013162       0x12 Middlewares\USB_Host_Library\usbh_core.o
                0x08013162                USBH_LL_NotifyURBChange
 .text.USBH_CtlReq
                0x08013174      0x19c Middlewares\USB_Host_Library\usbh_ctlreq.o
                0x08013174                USBH_CtlReq
 .text.USBH_GetDescriptor
                0x08013310       0x36 Middlewares\USB_Host_Library\usbh_ctlreq.o
                0x08013310                USBH_GetDescriptor
 .text.USBH_Get_DevDesc
                0x08013346       0xb2 Middlewares\USB_Host_Library\usbh_ctlreq.o
                0x08013346                USBH_Get_DevDesc
 .text.USBH_Get_CfgDesc
                0x080133f8      0x12e Middlewares\USB_Host_Library\usbh_ctlreq.o
                0x080133f8                USBH_Get_CfgDesc
 .text.USBH_Get_StringDesc
                0x08013526       0x4e Middlewares\USB_Host_Library\usbh_ctlreq.o
                0x08013526                USBH_Get_StringDesc
 .text.USBH_SetAddress
                0x08013574       0x1c Middlewares\USB_Host_Library\usbh_ctlreq.o
                0x08013574                USBH_SetAddress
 .text.USBH_SetCfg
                0x08013590       0x1c Middlewares\USB_Host_Library\usbh_ctlreq.o
                0x08013590                USBH_SetCfg
 .text.USBH_ClrFeature
                0x080135ac       0x1c Middlewares\USB_Host_Library\usbh_ctlreq.o
                0x080135ac                USBH_ClrFeature
 .text.USBH_CtlSendSetup
                0x080135c8       0x22 Middlewares\USB_Host_Library\usbh_ioreq.o
                0x080135c8                USBH_CtlSendSetup
 .text.USBH_CtlSendData
                0x080135ea       0x2e Middlewares\USB_Host_Library\usbh_ioreq.o
                0x080135ea                USBH_CtlSendData
 .text.USBH_CtlReceiveData
                0x08013618       0x20 Middlewares\USB_Host_Library\usbh_ioreq.o
                0x08013618                USBH_CtlReceiveData
 .text.USBH_BulkSendData
                0x08013638       0x30 Middlewares\USB_Host_Library\usbh_ioreq.o
                0x08013638                USBH_BulkSendData
 .text.USBH_BulkReceiveData
                0x08013668       0x20 Middlewares\USB_Host_Library\usbh_ioreq.o
                0x08013668                USBH_BulkReceiveData
 .text.USBH_OpenPipe
                0x08013688       0x1e Middlewares\USB_Host_Library\usbh_pipes.o
                0x08013688                USBH_OpenPipe
 .text.USBH_ClosePipe
                0x080136a6        0xa Middlewares\USB_Host_Library\usbh_pipes.o
                0x080136a6                USBH_ClosePipe
 .text.USBH_AllocPipe
                0x080136b0       0x30 Middlewares\USB_Host_Library\usbh_pipes.o
                0x080136b0                USBH_AllocPipe
 .text.USBH_FreePipe
                0x080136e0       0x18 Middlewares\USB_Host_Library\usbh_pipes.o
                0x080136e0                USBH_FreePipe
 .text.__libc_init_array
                0x080136f8       0x48 c:/program files (x86)/atollic/truestudio for stm32 9.0.0/armtools/bin/../lib/gcc/arm-atollic-eabi/6.3.1/../../../../arm-atollic-eabi/lib/armv7e-m/fpu/fpv5-sp-d16\libc_nano.a(lib_a-init.o)
                0x080136f8                __libc_init_array
 .text.malloc   0x08013740       0x10 c:/program files (x86)/atollic/truestudio for stm32 9.0.0/armtools/bin/../lib/gcc/arm-atollic-eabi/6.3.1/../../../../arm-atollic-eabi/lib/armv7e-m/fpu/fpv5-sp-d16\libc_nano.a(lib_a-malloc.o)
                0x08013740                malloc
 .text.free     0x08013750       0x10 c:/program files (x86)/atollic/truestudio for stm32 9.0.0/armtools/bin/../lib/gcc/arm-atollic-eabi/6.3.1/../../../../arm-atollic-eabi/lib/armv7e-m/fpu/fpv5-sp-d16\libc_nano.a(lib_a-malloc.o)
                0x08013750                free
 .text.memcmp   0x08013760       0x1e c:/program files (x86)/atollic/truestudio for stm32 9.0.0/armtools/bin/../lib/gcc/arm-atollic-eabi/6.3.1/../../../../arm-atollic-eabi/lib/armv7e-m/fpu/fpv5-sp-d16\libc_nano.a(lib_a-memcmp.o)
                0x08013760                memcmp
 .text.memcpy   0x0801377e       0x16 c:/program files (x86)/atollic/truestudio for stm32 9.0.0/armtools/bin/../lib/gcc/arm-atollic-eabi/6.3.1/../../../../arm-atollic-eabi/lib/armv7e-m/fpu/fpv5-sp-d16\libc_nano.a(lib_a-memcpy-stub.o)
                0x0801377e                memcpy
 .text.memset   0x08013794       0x10 c:/program files (x86)/atollic/truestudio for stm32 9.0.0/armtools/bin/../lib/gcc/arm-atollic-eabi/6.3.1/../../../../arm-atollic-eabi/lib/armv7e-m/fpu/fpv5-sp-d16\libc_nano.a(lib_a-memset.o)
                0x08013794                memset
 .text._free_r  0x080137a4       0x9c c:/program files (x86)/atollic/truestudio for stm32 9.0.0/armtools/bin/../lib/gcc/arm-atollic-eabi/6.3.1/../../../../arm-atollic-eabi/lib/armv7e-m/fpu/fpv5-sp-d16\libc_nano.a(lib_a-nano-freer.o)
                0x080137a4                _free_r
 .text._malloc_r
                0x08013840       0xbc c:/program files (x86)/atollic/truestudio for stm32 9.0.0/armtools/bin/../lib/gcc/arm-atollic-eabi/6.3.1/../../../../arm-atollic-eabi/lib/armv7e-m/fpu/fpv5-sp-d16\libc_nano.a(lib_a-nano-mallocr.o)
                0x08013840                _malloc_r
 .text.printf   0x080138fc       0x30 c:/program files (x86)/atollic/truestudio for stm32 9.0.0/armtools/bin/../lib/gcc/arm-atollic-eabi/6.3.1/../../../../arm-atollic-eabi/lib/armv7e-m/fpu/fpv5-sp-d16\libc_nano.a(lib_a-printf.o)
                0x080138fc                iprintf
                0x080138fc                printf
 .text.rand     0x0801392c       0x74 c:/program files (x86)/atollic/truestudio for stm32 9.0.0/armtools/bin/../lib/gcc/arm-atollic-eabi/6.3.1/../../../../arm-atollic-eabi/lib/armv7e-m/fpu/fpv5-sp-d16\libc_nano.a(lib_a-rand.o)
                0x0801392c                rand
 .text._sbrk_r  0x080139a0       0x20 c:/program files (x86)/atollic/truestudio for stm32 9.0.0/armtools/bin/../lib/gcc/arm-atollic-eabi/6.3.1/../../../../arm-atollic-eabi/lib/armv7e-m/fpu/fpv5-sp-d16\libc_nano.a(lib_a-sbrkr.o)
                0x080139a0                _sbrk_r
 .text._cleanup_r
                0x080139c0        0xc c:/program files (x86)/atollic/truestudio for stm32 9.0.0/armtools/bin/../lib/gcc/arm-atollic-eabi/6.3.1/../../../../arm-atollic-eabi/lib/armv7e-m/fpu/fpv5-sp-d16\libc_nano.a(lib_a-findfp.o)
                0x080139c0                _cleanup_r
 .text.std.isra.0
                0x080139cc       0x48 c:/program files (x86)/atollic/truestudio for stm32 9.0.0/armtools/bin/../lib/gcc/arm-atollic-eabi/6.3.1/../../../../arm-atollic-eabi/lib/armv7e-m/fpu/fpv5-sp-d16\libc_nano.a(lib_a-findfp.o)
 .text.__sfmoreglue
                0x08013a14       0x2c c:/program files (x86)/atollic/truestudio for stm32 9.0.0/armtools/bin/../lib/gcc/arm-atollic-eabi/6.3.1/../../../../arm-atollic-eabi/lib/armv7e-m/fpu/fpv5-sp-d16\libc_nano.a(lib_a-findfp.o)
                0x08013a14                __sfmoreglue
 .text.__sinit  0x08013a40       0x60 c:/program files (x86)/atollic/truestudio for stm32 9.0.0/armtools/bin/../lib/gcc/arm-atollic-eabi/6.3.1/../../../../arm-atollic-eabi/lib/armv7e-m/fpu/fpv5-sp-d16\libc_nano.a(lib_a-findfp.o)
                0x08013a40                __sinit
 .text.__sfp    0x08013aa0       0x78 c:/program files (x86)/atollic/truestudio for stm32 9.0.0/armtools/bin/../lib/gcc/arm-atollic-eabi/6.3.1/../../../../arm-atollic-eabi/lib/armv7e-m/fpu/fpv5-sp-d16\libc_nano.a(lib_a-findfp.o)
                0x08013aa0                __sfp
 .text._fwalk_reent
                0x08013b18       0x3c c:/program files (x86)/atollic/truestudio for stm32 9.0.0/armtools/bin/../lib/gcc/arm-atollic-eabi/6.3.1/../../../../arm-atollic-eabi/lib/armv7e-m/fpu/fpv5-sp-d16\libc_nano.a(lib_a-fwalk.o)
                0x08013b18                _fwalk_reent
 .text.__malloc_lock
                0x08013b54        0x2 c:/program files (x86)/atollic/truestudio for stm32 9.0.0/armtools/bin/../lib/gcc/arm-atollic-eabi/6.3.1/../../../../arm-atollic-eabi/lib/armv7e-m/fpu/fpv5-sp-d16\libc_nano.a(lib_a-mlock.o)
                0x08013b54                __malloc_lock
 .text.__malloc_unlock
                0x08013b56        0x2 c:/program files (x86)/atollic/truestudio for stm32 9.0.0/armtools/bin/../lib/gcc/arm-atollic-eabi/6.3.1/../../../../arm-atollic-eabi/lib/armv7e-m/fpu/fpv5-sp-d16\libc_nano.a(lib_a-mlock.o)
                0x08013b56                __malloc_unlock
 .text.__sfputc_r
                0x08013b58       0x30 c:/program files (x86)/atollic/truestudio for stm32 9.0.0/armtools/bin/../lib/gcc/arm-atollic-eabi/6.3.1/../../../../arm-atollic-eabi/lib/armv7e-m/fpu/fpv5-sp-d16\libc_nano.a(lib_a-nano-vfprintf.o)
 .text.__sfputs_r
                0x08013b88       0x24 c:/program files (x86)/atollic/truestudio for stm32 9.0.0/armtools/bin/../lib/gcc/arm-atollic-eabi/6.3.1/../../../../arm-atollic-eabi/lib/armv7e-m/fpu/fpv5-sp-d16\libc_nano.a(lib_a-nano-vfprintf.o)
                0x08013b88                __sfputs_r
 .text._vfprintf_r
                0x08013bac      0x22c c:/program files (x86)/atollic/truestudio for stm32 9.0.0/armtools/bin/../lib/gcc/arm-atollic-eabi/6.3.1/../../../../arm-atollic-eabi/lib/armv7e-m/fpu/fpv5-sp-d16\libc_nano.a(lib_a-nano-vfprintf.o)
                0x08013bac                _vfprintf_r
                0x08013bac                _vfiprintf_r
 .text._printf_common
                0x08013dd8       0xec c:/program files (x86)/atollic/truestudio for stm32 9.0.0/armtools/bin/../lib/gcc/arm-atollic-eabi/6.3.1/../../../../arm-atollic-eabi/lib/armv7e-m/fpu/fpv5-sp-d16\libc_nano.a(lib_a-nano-vfprintf_i.o)
                0x08013dd8                _printf_common
 .text._printf_i
                0x08013ec4      0x240 c:/program files (x86)/atollic/truestudio for stm32 9.0.0/armtools/bin/../lib/gcc/arm-atollic-eabi/6.3.1/../../../../arm-atollic-eabi/lib/armv7e-m/fpu/fpv5-sp-d16\libc_nano.a(lib_a-nano-vfprintf_i.o)
                0x08013ec4                _printf_i
 .text.__sread  0x08014104       0x22 c:/program files (x86)/atollic/truestudio for stm32 9.0.0/armtools/bin/../lib/gcc/arm-atollic-eabi/6.3.1/../../../../arm-atollic-eabi/lib/armv7e-m/fpu/fpv5-sp-d16\libc_nano.a(lib_a-stdio.o)
                0x08014104                __sread
 .text.__swrite
                0x08014126       0x38 c:/program files (x86)/atollic/truestudio for stm32 9.0.0/armtools/bin/../lib/gcc/arm-atollic-eabi/6.3.1/../../../../arm-atollic-eabi/lib/armv7e-m/fpu/fpv5-sp-d16\libc_nano.a(lib_a-stdio.o)
                0x08014126                __swrite
 .text.__sseek  0x0801415e       0x24 c:/program files (x86)/atollic/truestudio for stm32 9.0.0/armtools/bin/../lib/gcc/arm-atollic-eabi/6.3.1/../../../../arm-atollic-eabi/lib/armv7e-m/fpu/fpv5-sp-d16\libc_nano.a(lib_a-stdio.o)
                0x0801415e                __sseek
 .text.__sclose
                0x08014182        0x8 c:/program files (x86)/atollic/truestudio for stm32 9.0.0/armtools/bin/../lib/gcc/arm-atollic-eabi/6.3.1/../../../../arm-atollic-eabi/lib/armv7e-m/fpu/fpv5-sp-d16\libc_nano.a(lib_a-stdio.o)
                0x08014182                __sclose
 *fill*         0x0801418a        0x2 
 .text.__swbuf_r
                0x0801418c       0xa4 c:/program files (x86)/atollic/truestudio for stm32 9.0.0/armtools/bin/../lib/gcc/arm-atollic-eabi/6.3.1/../../../../arm-atollic-eabi/lib/armv7e-m/fpu/fpv5-sp-d16\libc_nano.a(lib_a-wbuf.o)
                0x0801418c                __swbuf_r
 .text._write_r
                0x08014230       0x24 c:/program files (x86)/atollic/truestudio for stm32 9.0.0/armtools/bin/../lib/gcc/arm-atollic-eabi/6.3.1/../../../../arm-atollic-eabi/lib/armv7e-m/fpu/fpv5-sp-d16\libc_nano.a(lib_a-writer.o)
                0x08014230                _write_r
 .text.__swsetup_r
                0x08014254       0xdc c:/program files (x86)/atollic/truestudio for stm32 9.0.0/armtools/bin/../lib/gcc/arm-atollic-eabi/6.3.1/../../../../arm-atollic-eabi/lib/armv7e-m/fpu/fpv5-sp-d16\libc_nano.a(lib_a-wsetup.o)
                0x08014254                __swsetup_r
 .text._close_r
                0x08014330       0x20 c:/program files (x86)/atollic/truestudio for stm32 9.0.0/armtools/bin/../lib/gcc/arm-atollic-eabi/6.3.1/../../../../arm-atollic-eabi/lib/armv7e-m/fpu/fpv5-sp-d16\libc_nano.a(lib_a-closer.o)
                0x08014330                _close_r
 .text.__sflush_r
                0x08014350      0x110 c:/program files (x86)/atollic/truestudio for stm32 9.0.0/armtools/bin/../lib/gcc/arm-atollic-eabi/6.3.1/../../../../arm-atollic-eabi/lib/armv7e-m/fpu/fpv5-sp-d16\libc_nano.a(lib_a-fflush.o)
                0x08014350                __sflush_r
 .text._fflush_r
                0x08014460       0x54 c:/program files (x86)/atollic/truestudio for stm32 9.0.0/armtools/bin/../lib/gcc/arm-atollic-eabi/6.3.1/../../../../arm-atollic-eabi/lib/armv7e-m/fpu/fpv5-sp-d16\libc_nano.a(lib_a-fflush.o)
                0x08014460                _fflush_r
 .text._lseek_r
                0x080144b4       0x24 c:/program files (x86)/atollic/truestudio for stm32 9.0.0/armtools/bin/../lib/gcc/arm-atollic-eabi/6.3.1/../../../../arm-atollic-eabi/lib/armv7e-m/fpu/fpv5-sp-d16\libc_nano.a(lib_a-lseekr.o)
                0x080144b4                _lseek_r
 .text.__swhatbuf_r
                0x080144d8       0x48 c:/program files (x86)/atollic/truestudio for stm32 9.0.0/armtools/bin/../lib/gcc/arm-atollic-eabi/6.3.1/../../../../arm-atollic-eabi/lib/armv7e-m/fpu/fpv5-sp-d16\libc_nano.a(lib_a-makebuf.o)
                0x080144d8                __swhatbuf_r
 .text.__smakebuf_r
                0x08014520       0x80 c:/program files (x86)/atollic/truestudio for stm32 9.0.0/armtools/bin/../lib/gcc/arm-atollic-eabi/6.3.1/../../../../arm-atollic-eabi/lib/armv7e-m/fpu/fpv5-sp-d16\libc_nano.a(lib_a-makebuf.o)
                0x08014520                __smakebuf_r
 .text._read_r  0x080145a0       0x24 c:/program files (x86)/atollic/truestudio for stm32 9.0.0/armtools/bin/../lib/gcc/arm-atollic-eabi/6.3.1/../../../../arm-atollic-eabi/lib/armv7e-m/fpu/fpv5-sp-d16\libc_nano.a(lib_a-readr.o)
                0x080145a0                _read_r
 .text._fstat_r
                0x080145c4       0x24 c:/program files (x86)/atollic/truestudio for stm32 9.0.0/armtools/bin/../lib/gcc/arm-atollic-eabi/6.3.1/../../../../arm-atollic-eabi/lib/armv7e-m/fpu/fpv5-sp-d16\libc_nano.a(lib_a-fstatr.o)
                0x080145c4                _fstat_r
 .text._isatty_r
                0x080145e8       0x20 c:/program files (x86)/atollic/truestudio for stm32 9.0.0/armtools/bin/../lib/gcc/arm-atollic-eabi/6.3.1/../../../../arm-atollic-eabi/lib/armv7e-m/fpu/fpv5-sp-d16\libc_nano.a(lib_a-isattyr.o)
                0x080145e8                _isatty_r
 *(.glue_7)
 .glue_7        0x08014608        0x0 linker stubs
 *(.glue_7t)
 .glue_7t       0x08014608        0x0 linker stubs
 *(.eh_frame)
 .eh_frame      0x08014608        0x0 c:/program files (x86)/atollic/truestudio for stm32 9.0.0/armtools/bin/../lib/gcc/arm-atollic-eabi/6.3.1/armv7e-m/fpu/fpv5-sp-d16/crtbegin.o
 *(.init)
 .init          0x08014608        0x4 c:/program files (x86)/atollic/truestudio for stm32 9.0.0/armtools/bin/../lib/gcc/arm-atollic-eabi/6.3.1/armv7e-m/fpu/fpv5-sp-d16/crti.o
                0x08014608                _init
 .init          0x0801460c        0x8 c:/program files (x86)/atollic/truestudio for stm32 9.0.0/armtools/bin/../lib/gcc/arm-atollic-eabi/6.3.1/armv7e-m/fpu/fpv5-sp-d16/crtn.o
 *(.fini)
 .fini          0x08014614        0x4 c:/program files (x86)/atollic/truestudio for stm32 9.0.0/armtools/bin/../lib/gcc/arm-atollic-eabi/6.3.1/armv7e-m/fpu/fpv5-sp-d16/crti.o
                0x08014614                _fini
 .fini          0x08014618        0x8 c:/program files (x86)/atollic/truestudio for stm32 9.0.0/armtools/bin/../lib/gcc/arm-atollic-eabi/6.3.1/armv7e-m/fpu/fpv5-sp-d16/crtn.o
                0x08014620                . = ALIGN (0x4)
                0x08014620                _etext = .

.vfp11_veneer   0x08014620        0x0
 .vfp11_veneer  0x08014620        0x0 linker stubs

.v4_bx          0x08014620        0x0
 .v4_bx         0x08014620        0x0 linker stubs

.iplt           0x08014620        0x0
 .iplt          0x08014620        0x0 c:/program files (x86)/atollic/truestudio for stm32 9.0.0/armtools/bin/../lib/gcc/arm-atollic-eabi/6.3.1/armv7e-m/fpu/fpv5-sp-d16/crtbegin.o

.rodata         0x08014620     0x22ac
                0x08014620                . = ALIGN (0x4)
 *(.rodata)
 .rodata        0x08014620       0x14 Application\User\ethernetif.o
 .rodata        0x08014634       0x3c Application\User\main.o
 .rodata        0x08014670        0x8 Application\User\sd_diskio.o
 .rodata        0x08014678       0x1c Middlewares\USB_Host_Library\usbh_core.o
 *(.rodata*)
 .rodata.ethernetif_init.str1.1
                0x08014694       0x42 Application\User\ethernetif.o
                                 0x50 (size before relaxing)
 .rodata.str1.1
                0x080146d6        0x6 Application\User\ethernetif.o
 .rodata.str1.1
                0x080146dc       0x1e Application\User\main.o
 *fill*         0x080146fa        0x2 
 .rodata.SD_Driver
                0x080146fc       0x14 Application\User\sd_diskio.o
                0x080146fc                SD_Driver
 .rodata.CSWTCH.22
                0x08014710        0x3 Application\User\usbh_conf.o
 .rodata.CSWTCH.31
                0x08014713        0x4 Application\User\usbh_conf.o
 .rodata.USBH_LL_Init.str1.1
                0x08014717       0x19 Application\User\usbh_conf.o
 .rodata.AHBPrescTable
                0x08014730       0x10 Drivers\CMSIS\system_stm32f7xx.o
                0x08014730                AHBPrescTable
 .rodata.APBPrescTable
                0x08014740        0x8 Drivers\CMSIS\system_stm32f7xx.o
                0x08014740                APBPrescTable
 .rodata.HAL_ADC_Init.str1.1
                0x08014748       0x3e Drivers\STM32F7xx_HAL_Driver\stm32f7xx_hal_adc.o
 .rodata.HAL_NVIC_SetPriorityGrouping.str1.1
                0x08014786       0x41 Drivers\STM32F7xx_HAL_Driver\stm32f7xx_hal_cortex.o
 .rodata.HAL_CRC_Init.str1.1
                0x080147c7       0x3e Drivers\STM32F7xx_HAL_Driver\stm32f7xx_hal_crc.o
 .rodata.HAL_CRCEx_Polynomial_Set.str1.1
                0x08014805       0x41 Drivers\STM32F7xx_HAL_Driver\stm32f7xx_hal_crc_ex.o
 .rodata.HAL_DCMI_Init.str1.1
                0x08014846       0x3f Drivers\STM32F7xx_HAL_Driver\stm32f7xx_hal_dcmi.o
 .rodata.HAL_DMA_Init.str1.1
                0x08014885       0x3e Drivers\STM32F7xx_HAL_Driver\stm32f7xx_hal_dma.o
 .rodata.HAL_DMA2D_Init.str1.1
                0x080148c3       0x40 Drivers\STM32F7xx_HAL_Driver\stm32f7xx_hal_dma2d.o
 .rodata.HAL_ETH_ReadPHYRegister.str1.1
                0x08014903       0x3e Drivers\STM32F7xx_HAL_Driver\stm32f7xx_hal_eth.o
 .rodata.HAL_GPIO_Init.str1.1
                0x08014941       0x3f Drivers\STM32F7xx_HAL_Driver\stm32f7xx_hal_gpio.o
 .rodata.HAL_HCD_Init.str1.1
                0x08014980       0x3e Drivers\STM32F7xx_HAL_Driver\stm32f7xx_hal_hcd.o
 .rodata.I2C_TransferConfig.str1.1
                0x080149be       0x3e Drivers\STM32F7xx_HAL_Driver\stm32f7xx_hal_i2c.o
 .rodata.HAL_I2CEx_ConfigAnalogFilter.str1.1
                0x080149fc       0x41 Drivers\STM32F7xx_HAL_Driver\stm32f7xx_hal_i2c_ex.o
 .rodata.HAL_LTDC_Init.str1.1
                0x08014a3d       0x3f Drivers\STM32F7xx_HAL_Driver\stm32f7xx_hal_ltdc.o
 .rodata.QSPI_Config.str1.1
                0x08014a7c       0x3f Drivers\STM32F7xx_HAL_Driver\stm32f7xx_hal_qspi.o
 .rodata.HAL_RCC_OscConfig.str1.1
                0x08014abb       0x3e Drivers\STM32F7xx_HAL_Driver\stm32f7xx_hal_rcc.o
 .rodata.HAL_RCCEx_PeriphCLKConfig.str1.1
                0x08014af9       0x41 Drivers\STM32F7xx_HAL_Driver\stm32f7xx_hal_rcc_ex.o
 .rodata.HAL_RTC_DeactivateAlarm.str1.1
                0x08014b3a       0x3e Drivers\STM32F7xx_HAL_Driver\stm32f7xx_hal_rtc.o
 .rodata.HAL_RTCEx_SetTimeStamp.str1.1
                0x08014b78       0x41 Drivers\STM32F7xx_HAL_Driver\stm32f7xx_hal_rtc_ex.o
 .rodata.HAL_SAI_Init.str1.1
                0x08014bb9       0x3e Drivers\STM32F7xx_HAL_Driver\stm32f7xx_hal_sai.o
 .rodata.HAL_SD_DeInit.str1.1
                0x08014bf7       0x3d Drivers\STM32F7xx_HAL_Driver\stm32f7xx_hal_sd.o
 .rodata.HAL_SPDIFRX_Init.str1.1
                0x08014c34       0x42 Drivers\STM32F7xx_HAL_Driver\stm32f7xx_hal_spdifrx.o
 .rodata.HAL_SPI_Init.str1.1
                0x08014c76       0x3e Drivers\STM32F7xx_HAL_Driver\stm32f7xx_hal_spi.o
 .rodata.HAL_TIM_Base_DeInit.str1.1
                0x08014cb4       0x3e Drivers\STM32F7xx_HAL_Driver\stm32f7xx_hal_tim.o
 .rodata.TIM_CCxNChannelCmd.str1.1
                0x08014cf2       0x41 Drivers\STM32F7xx_HAL_Driver\stm32f7xx_hal_tim_ex.o
 .rodata.CSWTCH.38
                0x08014d33        0x4 Drivers\STM32F7xx_HAL_Driver\stm32f7xx_hal_uart.o
 .rodata.CSWTCH.39
                0x08014d37        0xd Drivers\STM32F7xx_HAL_Driver\stm32f7xx_hal_uart.o
 .rodata.HAL_UART_DeInit.str1.1
                0x08014d44       0x3f Drivers\STM32F7xx_HAL_Driver\stm32f7xx_hal_uart.o
 .rodata.FMC_NORSRAM_Init.str1.1
                0x08014d83       0x3d Drivers\STM32F7xx_HAL_Driver\stm32f7xx_ll_fmc.o
 .rodata.SDMMC_Init.str1.1
                0x08014dc0       0x3f Drivers\STM32F7xx_HAL_Driver\stm32f7xx_ll_sdmmc.o
 .rodata.osTimerCreate.str1.1
                0x08014dff       0x3f Middlewares\FreeRTOS\cmsis_os.o
                                  0x1 (size before relaxing)
 .rodata.vTaskStartScheduler.str1.1
                0x08014dff        0x5 Middlewares\FreeRTOS\tasks.o
 .rodata.prvCheckForValidListAndQueue.str1.1
                0x08014e04        0x5 Middlewares\FreeRTOS\timers.o
 .rodata.xTimerCreateTimerTask.str1.1
                0x08014e09        0x8 Middlewares\FreeRTOS\timers.o
 .rodata.dhcp_bind.str1.1
                0x08014e11       0x31 Middlewares\LwIP\dhcp.o
 .rodata.dhcp_create_msg.str1.1
                0x08014e42       0xc9 Middlewares\LwIP\dhcp.o
 .rodata.dhcp_dec_pcb_refcount.str1.1
                0x08014f0b       0x24 Middlewares\LwIP\dhcp.o
 .rodata.dhcp_delete_msg.str1.1
                0x08014f2f       0x6a Middlewares\LwIP\dhcp.o
 .rodata.dhcp_inc_pcb_refcount.str1.1
                0x08014f99       0x25 Middlewares\LwIP\dhcp.o
 .rodata.dhcp_option.str1.1
                0x08014fbe       0x48 Middlewares\LwIP\dhcp.o
 .rodata.dhcp_option_byte.str1.1
                0x08015006       0x3b Middlewares\LwIP\dhcp.o
 .rodata.dhcp_option_long.str1.1
                0x08015041       0x40 Middlewares\LwIP\dhcp.o
 .rodata.dhcp_option_short.str1.1
                0x08015081       0x7c Middlewares\LwIP\dhcp.o
                                 0xa4 (size before relaxing)
 .rodata.dhcp_option_trailer.str1.1
                0x080150fd       0x8d Middlewares\LwIP\dhcp.o
 .rodata.dhcp_recv.str1.1
                0x0801518a       0x85 Middlewares\LwIP\dhcp.o
 .rodata.dhcp_set_struct.str1.1
                0x0801520f       0x24 Middlewares\LwIP\dhcp.o
                                 0x3f (size before relaxing)
 .rodata.dhcp_start.str1.1
                0x08015233       0x39 Middlewares\LwIP\dhcp.o
 .rodata.dhcp_stop.str1.1
                0x0801526c       0x19 Middlewares\LwIP\dhcp.o
 .rodata.etharp_find_entry.isra.0.str1.1
                0x08015285       0x40 Middlewares\LwIP\etharp.o
 .rodata.etharp_get_entry.str1.1
                0x080152c5       0x1f Middlewares\LwIP\etharp.o
 .rodata.etharp_input.str1.1
                0x080152e4       0x24 Middlewares\LwIP\etharp.o
 .rodata.etharp_output.str1.1
                0x08015308       0x24 Middlewares\LwIP\etharp.o
                                  0xa (size before relaxing)
 .rodata.etharp_output_to_arp_index.str1.1
                0x08015308       0x30 Middlewares\LwIP\etharp.o
 .rodata.etharp_query.str1.1
                0x08015338       0x42 Middlewares\LwIP\etharp.o
 .rodata.etharp_raw.str1.1
                0x0801537a       0xaf Middlewares\LwIP\etharp.o
                                 0xe5 (size before relaxing)
 .rodata.ethbroadcast
                0x08015429        0x6 Middlewares\LwIP\ethernet.o
                0x08015429                ethbroadcast
 .rodata.ethernet_output.str1.1
                0x0801542f       0x6c Middlewares\LwIP\ethernet.o
                                 0x94 (size before relaxing)
 .rodata.ethzero
                0x0801549b        0x6 Middlewares\LwIP\ethernet.o
                0x0801549b                ethzero
 .rodata.icmp_input.str1.1
                0x080154a1       0x67 Middlewares\LwIP\icmp.o
 .rodata.icmp_send_response.isra.0.str1.1
                0x08015508       0x67 Middlewares\LwIP\icmp.o
                                 0x8f (size before relaxing)
 .rodata.ip4_output_if_src.str1.1
                0x0801556f       0x73 Middlewares\LwIP\ip4.o
                                 0x9b (size before relaxing)
 *fill*         0x080155e2        0x2 
 .rodata.ip_addr_any
                0x080155e4        0x4 Middlewares\LwIP\ip4_addr.o
                0x080155e4                ip_addr_any
 .rodata.ip_addr_broadcast
                0x080155e8        0x4 Middlewares\LwIP\ip4_addr.o
                0x080155e8                ip_addr_broadcast
 .rodata.ip4_frag.str1.1
                0x080155ec       0x61 Middlewares\LwIP\ip4_frag.o
 .rodata.ip4_reass.str1.1
                0x0801564d       0x84 Middlewares\LwIP\ip4_frag.o
 .rodata.ip_frag_free_pbuf_custom_ref.str1.1
                0x080156d1       0x84 Middlewares\LwIP\ip4_frag.o
                                  0xa (size before relaxing)
 .rodata.ip_reass_dequeue_datagram.str1.1
                0x080156d1       0x58 Middlewares\LwIP\ip4_frag.o
                                 0x80 (size before relaxing)
 .rodata.ip_reass_free_complete_datagram.str1.1
                0x08015729       0x56 Middlewares\LwIP\ip4_frag.o
 .rodata.ipfrag_free_pbuf_custom.str1.1
                0x0801577f        0xc Middlewares\LwIP\ip4_frag.o
 .rodata.mem_free.str1.1
                0x0801578b       0xc2 Middlewares\LwIP\mem.o
 .rodata.mem_init.str1.1
                0x0801584d       0x50 Middlewares\LwIP\mem.o
                                 0x78 (size before relaxing)
 .rodata.mem_malloc.str1.1
                0x0801589d       0x9b Middlewares\LwIP\mem.o
 .rodata.mem_trim.str1.1
                0x08015938       0x37 Middlewares\LwIP\mem.o
 .rodata.do_memp_free_pool.isra.1.str1.1
                0x0801596f       0x20 Middlewares\LwIP\memp.o
 .rodata.do_memp_malloc_pool.isra.0.str1.1
                0x0801598f       0x59 Middlewares\LwIP\memp.o
                                 0x81 (size before relaxing)
 .rodata.memp_FRAG_PBUF
                0x080159e8        0xc Middlewares\LwIP\memp.o
                0x080159e8                memp_FRAG_PBUF
 .rodata.memp_NETBUF
                0x080159f4        0xc Middlewares\LwIP\memp.o
                0x080159f4                memp_NETBUF
 .rodata.memp_NETCONN
                0x08015a00        0xc Middlewares\LwIP\memp.o
                0x08015a00                memp_NETCONN
 .rodata.memp_PBUF
                0x08015a0c        0xc Middlewares\LwIP\memp.o
                0x08015a0c                memp_PBUF
 .rodata.memp_PBUF_POOL
                0x08015a18        0xc Middlewares\LwIP\memp.o
                0x08015a18                memp_PBUF_POOL
 .rodata.memp_REASSDATA
                0x08015a24        0xc Middlewares\LwIP\memp.o
                0x08015a24                memp_REASSDATA
 .rodata.memp_SYS_TIMEOUT
                0x08015a30        0xc Middlewares\LwIP\memp.o
                0x08015a30                memp_SYS_TIMEOUT
 .rodata.memp_TCPIP_MSG_API
                0x08015a3c        0xc Middlewares\LwIP\memp.o
                0x08015a3c                memp_TCPIP_MSG_API
 .rodata.memp_TCPIP_MSG_INPKT
                0x08015a48        0xc Middlewares\LwIP\memp.o
                0x08015a48                memp_TCPIP_MSG_INPKT
 .rodata.memp_TCP_PCB
                0x08015a54        0xc Middlewares\LwIP\memp.o
                0x08015a54                memp_TCP_PCB
 .rodata.memp_TCP_PCB_LISTEN
                0x08015a60        0xc Middlewares\LwIP\memp.o
                0x08015a60                memp_TCP_PCB_LISTEN
 .rodata.memp_TCP_SEG
                0x08015a6c        0xc Middlewares\LwIP\memp.o
                0x08015a6c                memp_TCP_SEG
 .rodata.memp_UDP_PCB
                0x08015a78        0xc Middlewares\LwIP\memp.o
                0x08015a78                memp_UDP_PCB
 .rodata.memp_free.str1.1
                0x08015a84       0x1b Middlewares\LwIP\memp.o
 .rodata.memp_malloc.str1.1
                0x08015a9f       0x1d Middlewares\LwIP\memp.o
 .rodata.memp_pools
                0x08015abc       0x34 Middlewares\LwIP\memp.o
                0x08015abc                memp_pools
 .rodata.netif_add.str1.1
                0x08015af0       0x4e Middlewares\LwIP\netif.o
                                 0x76 (size before relaxing)
 .rodata.pbuf_alloc.str1.1
                0x08015b3e       0xa8 Middlewares\LwIP\pbuf.o
 .rodata.pbuf_alloced_custom.str1.1
                0x08015be6       0x24 Middlewares\LwIP\pbuf.o
 .rodata.pbuf_cat.str1.1
                0x08015c0a       0x72 Middlewares\LwIP\pbuf.o
 .rodata.pbuf_copy.str1.1
                0x08015c7c       0x99 Middlewares\LwIP\pbuf.o
 .rodata.pbuf_copy_partial.str1.1
                0x08015d15       0x42 Middlewares\LwIP\pbuf.o
 .rodata.pbuf_free.str1.1
                0x08015d57       0x4c Middlewares\LwIP\pbuf.o
 .rodata.pbuf_header_impl.str1.1
                0x08015da3       0x62 Middlewares\LwIP\pbuf.o
                                 0x94 (size before relaxing)
 .rodata.pbuf_realloc.str1.1
                0x08015e05       0x78 Middlewares\LwIP\pbuf.o
 .rodata.pbuf_ref.str1.1
                0x08015e7d       0x12 Middlewares\LwIP\pbuf.o
 *fill*         0x08015e8f        0x1 
 .rodata.os_mutex_def_lwip_sys_mutex
                0x08015e90        0x4 Middlewares\LwIP\sys_arch.o
                0x08015e90                os_mutex_def_lwip_sys_mutex
 .rodata.tcp_abandon.str1.1
                0x08015e94       0x31 Middlewares\LwIP\tcp.o
 .rodata.tcp_backoff
                0x08015ec5        0xd Middlewares\LwIP\tcp.o
 .rodata.tcp_close_shutdown.str1.1
                0x08015ed2       0x19 Middlewares\LwIP\tcp.o
 .rodata.tcp_close_shutdown_fin.str1.1
                0x08015eeb       0x41 Middlewares\LwIP\tcp.o
                                 0x69 (size before relaxing)
 .rodata.tcp_kill_state.str1.1
                0x08015f2c        0xe Middlewares\LwIP\tcp.o
 *fill*         0x08015f3a        0x2 
 .rodata.tcp_pcb_lists
                0x08015f3c       0x10 Middlewares\LwIP\tcp.o
                0x08015f3c                tcp_pcb_lists
 .rodata.tcp_pcb_remove.str1.1
                0x08015f4c       0x48 Middlewares\LwIP\tcp.o
 .rodata.tcp_persist_backoff
                0x08015f94        0x7 Middlewares\LwIP\tcp.o
 .rodata.tcp_recved.str1.1
                0x08015f9b       0x47 Middlewares\LwIP\tcp.o
 .rodata.tcp_slowtmr.str1.1
                0x08015fe2      0x152 Middlewares\LwIP\tcp.o
 .rodata.tcp_update_rcv_ann_wnd.str1.1
                0x08016134       0x1a Middlewares\LwIP\tcp.o
 .rodata.tcp_input.str1.1
                0x0801614e      0x1b6 Middlewares\LwIP\tcp_in.o
 .rodata.tcp_receive.str1.1
                0x08016304      0x191 Middlewares\LwIP\tcp_in.o
                                0x1b9 (size before relaxing)
 .rodata.tcp_create_segment.str1.1
                0x08016495       0x15 Middlewares\LwIP\tcp_out.o
 .rodata.tcp_enqueue_flags.str1.1
                0x080164aa       0xf8 Middlewares\LwIP\tcp_out.o
 .rodata.tcp_output.str1.1
                0x080165a2       0x3d Middlewares\LwIP\tcp_out.o
 .rodata.tcp_output_alloc_header.constprop.0.str1.1
                0x080165df       0x2e Middlewares\LwIP\tcp_out.o
 .rodata.tcp_pbuf_prealloc.str1.1
                0x0801660d       0x4d Middlewares\LwIP\tcp_out.o
                                 0x75 (size before relaxing)
 .rodata.tcpip_init.str1.1
                0x0801665a       0x51 Middlewares\LwIP\tcpip.o
 .rodata.tcpip_inpkt.str1.1
                0x080166ab        0xd Middlewares\LwIP\tcpip.o
 .rodata.tcpip_thread.str1.1
                0x080166b8       0x54 Middlewares\LwIP\tcpip.o
                                 0x7c (size before relaxing)
 .rodata.lwip_cyclic_timers
                0x0801670c       0x28 Middlewares\LwIP\timeouts.o
                0x0801670c                lwip_cyclic_timers
 .rodata.sys_timeout.str1.1
                0x08016734       0x77 Middlewares\LwIP\timeouts.o
                                 0x9f (size before relaxing)
 .rodata.udp_input.str1.1
                0x080167ab       0x49 Middlewares\LwIP\udp.o
                                 0x71 (size before relaxing)
 .rodata.udp_sendto_if_src.str1.1
                0x080167f4       0x2e Middlewares\LwIP\udp.o
 .rodata.str1.1
                0x08016822        0x4 Middlewares\USB_Host_Library\usbh_cdc.o
 .rodata.str1.1
                0x08016826        0xc Middlewares\USB_Host_Library\usbh_core.o
 *fill*         0x08016832        0x2 
 .rodata.__sf_fake_stderr
                0x08016834       0x20 c:/program files (x86)/atollic/truestudio for stm32 9.0.0/armtools/bin/../lib/gcc/arm-atollic-eabi/6.3.1/../../../../arm-atollic-eabi/lib/armv7e-m/fpu/fpv5-sp-d16\libc_nano.a(lib_a-findfp.o)
                0x08016834                __sf_fake_stderr
 .rodata.__sf_fake_stdin
                0x08016854       0x20 c:/program files (x86)/atollic/truestudio for stm32 9.0.0/armtools/bin/../lib/gcc/arm-atollic-eabi/6.3.1/../../../../arm-atollic-eabi/lib/armv7e-m/fpu/fpv5-sp-d16\libc_nano.a(lib_a-findfp.o)
                0x08016854                __sf_fake_stdin
 .rodata.__sf_fake_stdout
                0x08016874       0x20 c:/program files (x86)/atollic/truestudio for stm32 9.0.0/armtools/bin/../lib/gcc/arm-atollic-eabi/6.3.1/../../../../arm-atollic-eabi/lib/armv7e-m/fpu/fpv5-sp-d16\libc_nano.a(lib_a-findfp.o)
                0x08016874                __sf_fake_stdout
 .rodata._global_impure_ptr
                0x08016894        0x4 c:/program files (x86)/atollic/truestudio for stm32 9.0.0/armtools/bin/../lib/gcc/arm-atollic-eabi/6.3.1/../../../../arm-atollic-eabi/lib/armv7e-m/fpu/fpv5-sp-d16\libc_nano.a(lib_a-impure.o)
                0x08016894                _global_impure_ptr
 .rodata._vfprintf_r.str1.1
                0x08016898       0x11 c:/program files (x86)/atollic/truestudio for stm32 9.0.0/armtools/bin/../lib/gcc/arm-atollic-eabi/6.3.1/../../../../arm-atollic-eabi/lib/armv7e-m/fpu/fpv5-sp-d16\libc_nano.a(lib_a-nano-vfprintf.o)
 .rodata._printf_i.str1.1
                0x080168a9       0x22 c:/program files (x86)/atollic/truestudio for stm32 9.0.0/armtools/bin/../lib/gcc/arm-atollic-eabi/6.3.1/../../../../arm-atollic-eabi/lib/armv7e-m/fpu/fpv5-sp-d16\libc_nano.a(lib_a-nano-vfprintf_i.o)
                0x080168cc                . = ALIGN (0x4)
 *fill*         0x080168cb        0x1 

.ARM.extab
 *(.ARM.extab* .gnu.linkonce.armextab.*)

.ARM            0x080168cc        0x8
                0x080168cc                __exidx_start = .
 *(.ARM.exidx*)
 .ARM.exidx     0x080168cc        0x8 c:/program files (x86)/atollic/truestudio for stm32 9.0.0/armtools/bin/../lib/gcc/arm-atollic-eabi/6.3.1/armv7e-m/fpu/fpv5-sp-d16\libgcc.a(_udivmoddi4.o)
                0x080168d4                __exidx_end = .

.rel.dyn        0x080168d4        0x0
 .rel.iplt      0x080168d4        0x0 c:/program files (x86)/atollic/truestudio for stm32 9.0.0/armtools/bin/../lib/gcc/arm-atollic-eabi/6.3.1/armv7e-m/fpu/fpv5-sp-d16/crtbegin.o

.preinit_array  0x080168d4        0x0
                0x080168d4                PROVIDE (__preinit_array_start, .)
 *(.preinit_array*)
                0x080168d4                PROVIDE (__preinit_array_end, .)

.init_array     0x080168d4        0x4
                0x080168d4                PROVIDE (__init_array_start, .)
 *(SORT(.init_array.*))
 *(.init_array*)
 .init_array    0x080168d4        0x4 c:/program files (x86)/atollic/truestudio for stm32 9.0.0/armtools/bin/../lib/gcc/arm-atollic-eabi/6.3.1/armv7e-m/fpu/fpv5-sp-d16/crtbegin.o
                0x080168d8                PROVIDE (__init_array_end, .)

.fini_array     0x080168d8        0x4
                [!provide]                PROVIDE (__fini_array_start, .)
 *(SORT(.fini_array.*))
 *(.fini_array*)
 .fini_array    0x080168d8        0x4 c:/program files (x86)/atollic/truestudio for stm32 9.0.0/armtools/bin/../lib/gcc/arm-atollic-eabi/6.3.1/armv7e-m/fpu/fpv5-sp-d16/crtbegin.o
                [!provide]                PROVIDE (__fini_array_end, .)
                0x080168dc                _sidata = LOADADDR (.data)

.data           0x20000000       0x9c load address 0x080168dc
                0x20000000                . = ALIGN (0x4)
                0x20000000                _sdata = .
 *(.data)
 *(.data*)
 .data.Stat     0x20000000        0x1 Application\User\sd_diskio.o
 *fill*         0x20000001        0x3 
 .data.SystemCoreClock
                0x20000004        0x4 Drivers\CMSIS\system_stm32f7xx.o
                0x20000004                SystemCoreClock
 .data.uwTickFreq
                0x20000008        0x1 Drivers\STM32F7xx_HAL_Driver\stm32f7xx_hal.o
                0x20000008                uwTickFreq
 *fill*         0x20000009        0x3 
 .data.uxCriticalNesting
                0x2000000c        0x4 Middlewares\FreeRTOS\port.o
 .data.iss.13401
                0x20000010        0x4 Middlewares\LwIP\tcp.o
 .data.udp_port
                0x20000014        0x2 Middlewares\LwIP\udp.o
 *fill*         0x20000016        0x2 
 .data.CDC_Class
                0x20000018       0x20 Middlewares\USB_Host_Library\usbh_cdc.o
                0x20000018                CDC_Class
 .data._impure_ptr
                0x20000038        0x4 c:/program files (x86)/atollic/truestudio for stm32 9.0.0/armtools/bin/../lib/gcc/arm-atollic-eabi/6.3.1/../../../../arm-atollic-eabi/lib/armv7e-m/fpu/fpv5-sp-d16\libc_nano.a(lib_a-impure.o)
                0x20000038                _impure_ptr
 .data.impure_data
                0x2000003c       0x60 c:/program files (x86)/atollic/truestudio for stm32 9.0.0/armtools/bin/../lib/gcc/arm-atollic-eabi/6.3.1/../../../../arm-atollic-eabi/lib/armv7e-m/fpu/fpv5-sp-d16\libc_nano.a(lib_a-impure.o)
                0x2000009c                . = ALIGN (0x4)
                0x2000009c                _edata = .

.igot.plt       0x2000009c        0x0 load address 0x08016978
 .igot.plt      0x2000009c        0x0 c:/program files (x86)/atollic/truestudio for stm32 9.0.0/armtools/bin/../lib/gcc/arm-atollic-eabi/6.3.1/armv7e-m/fpu/fpv5-sp-d16/crtbegin.o
                0x2000009c                . = ALIGN (0x4)

.bss            0x2000009c    0x382d4 load address 0x08016978
                0x2000009c                _sbss = .
                0x2000009c                __bss_start__ = _sbss
 *(.bss)
 .bss           0x2000009c       0x1c c:/program files (x86)/atollic/truestudio for stm32 9.0.0/armtools/bin/../lib/gcc/arm-atollic-eabi/6.3.1/armv7e-m/fpu/fpv5-sp-d16/crtbegin.o
 *(.bss*)
 .bss.s_xSemaphore
                0x200000b8        0x4 Application\User\ethernetif.o
                0x200000b8                s_xSemaphore
 .bss.SDQueueID
                0x200000bc        0x4 Application\User\sd_diskio.o
 .bss.FMC_Initialized
                0x200000c0        0x4 Application\User\stm32f7xx_hal_msp.o
 .bss.SAI2_client
                0x200000c4        0x4 Application\User\stm32f7xx_hal_msp.o
 .bss.heap_end.12930
                0x200000c8        0x4 Application\User\syscalls.o
 .bss.Appli_state
                0x200000cc        0x1 Application\User\usb_host.o
                0x200000cc                Appli_state
 *fill*         0x200000cd        0x3 
 .bss.tmpreg.11843
                0x200000d0        0x4 Drivers\STM32F7xx_HAL_Driver\stm32f7xx_ll_usb.o
 .bss.disk      0x200000d4        0xc Middlewares\FatFs\ff_gen_drv.o
                0x200000d4                disk
 .bss.pxEnd     0x200000e0        0x4 Middlewares\FreeRTOS\heap_4.o
 .bss.ucHeap    0x200000e4    0x30000 Middlewares\FreeRTOS\heap_4.o
 .bss.xBlockAllocatedBit
                0x200300e4        0x4 Middlewares\FreeRTOS\heap_4.o
 .bss.xFreeBytesRemaining
                0x200300e8        0x4 Middlewares\FreeRTOS\heap_4.o
 .bss.xMinimumEverFreeBytesRemaining
                0x200300ec        0x4 Middlewares\FreeRTOS\heap_4.o
 .bss.xStart    0x200300f0        0x8 Middlewares\FreeRTOS\heap_4.o
 .bss.ucMaxSysCallPriority
                0x200300f8        0x1 Middlewares\FreeRTOS\port.o
 *fill*         0x200300f9        0x3 
 .bss.ulMaxPRIGROUPValue
                0x200300fc        0x4 Middlewares\FreeRTOS\port.o
 .bss.pxCurrentTCB
                0x20030100        0x4 Middlewares\FreeRTOS\tasks.o
                0x20030100                pxCurrentTCB
 .bss.pxDelayedTaskList
                0x20030104        0x4 Middlewares\FreeRTOS\tasks.o
 .bss.pxOverflowDelayedTaskList
                0x20030108        0x4 Middlewares\FreeRTOS\tasks.o
 .bss.pxReadyTasksLists
                0x2003010c      0x12c Middlewares\FreeRTOS\tasks.o
 .bss.ulTaskSwitchedInTime
                0x20030238        0x4 Middlewares\FreeRTOS\tasks.o
 .bss.uxCurrentNumberOfTasks
                0x2003023c        0x4 Middlewares\FreeRTOS\tasks.o
 .bss.uxDeletedTasksWaitingCleanUp
                0x20030240        0x4 Middlewares\FreeRTOS\tasks.o
 .bss.uxPendedTicks
                0x20030244        0x4 Middlewares\FreeRTOS\tasks.o
 .bss.uxSchedulerSuspended
                0x20030248        0x4 Middlewares\FreeRTOS\tasks.o
 .bss.uxTaskNumber
                0x2003024c        0x4 Middlewares\FreeRTOS\tasks.o
 .bss.uxTopReadyPriority
                0x20030250        0x4 Middlewares\FreeRTOS\tasks.o
 .bss.xDelayedTaskList1
                0x20030254       0x14 Middlewares\FreeRTOS\tasks.o
 .bss.xDelayedTaskList2
                0x20030268       0x14 Middlewares\FreeRTOS\tasks.o
 .bss.xIdleTaskHandle
                0x2003027c        0x4 Middlewares\FreeRTOS\tasks.o
 .bss.xNextTaskUnblockTime
                0x20030280        0x4 Middlewares\FreeRTOS\tasks.o
 .bss.xNumOfOverflows
                0x20030284        0x4 Middlewares\FreeRTOS\tasks.o
 .bss.xPendingReadyList
                0x20030288       0x14 Middlewares\FreeRTOS\tasks.o
 .bss.xSchedulerRunning
                0x2003029c        0x4 Middlewares\FreeRTOS\tasks.o
 .bss.xSuspendedTaskList
                0x200302a0       0x14 Middlewares\FreeRTOS\tasks.o
 .bss.xTasksWaitingTermination
                0x200302b4       0x14 Middlewares\FreeRTOS\tasks.o
 .bss.xTickCount
                0x200302c8        0x4 Middlewares\FreeRTOS\tasks.o
 .bss.xYieldPending
                0x200302cc        0x4 Middlewares\FreeRTOS\tasks.o
 .bss.pxCurrentTimerList
                0x200302d0        0x4 Middlewares\FreeRTOS\timers.o
 .bss.pxOverflowTimerList
                0x200302d4        0x4 Middlewares\FreeRTOS\timers.o
 .bss.xActiveTimerList1
                0x200302d8       0x14 Middlewares\FreeRTOS\timers.o
 .bss.xActiveTimerList2
                0x200302ec       0x14 Middlewares\FreeRTOS\timers.o
 .bss.xLastTime.6533
                0x20030300        0x4 Middlewares\FreeRTOS\timers.o
 .bss.xTimerQueue
                0x20030304        0x4 Middlewares\FreeRTOS\timers.o
 .bss.xTimerTaskHandle
                0x20030308        0x4 Middlewares\FreeRTOS\timers.o
 .bss.dhcp_pcb  0x2003030c        0x4 Middlewares\LwIP\dhcp.o
 .bss.dhcp_pcb_refcount
                0x20030310        0x1 Middlewares\LwIP\dhcp.o
 *fill*         0x20030311        0x3 
 .bss.xid.13322
                0x20030314        0x4 Middlewares\LwIP\dhcp.o
 .bss.arp_table
                0x20030318       0xf0 Middlewares\LwIP\etharp.o
 .bss.etharp_cached_entry
                0x20030408        0x1 Middlewares\LwIP\etharp.o
 *fill*         0x20030409        0x1 
 .bss.ip_id     0x2003040a        0x2 Middlewares\LwIP\ip4.o
 .bss.ip_reass_pbufcount
                0x2003040c        0x2 Middlewares\LwIP\ip4_frag.o
 *fill*         0x2003040e        0x2 
 .bss.reassdatagrams
                0x20030410        0x4 Middlewares\LwIP\ip4_frag.o
 .bss.lfree     0x20030414        0x4 Middlewares\LwIP\mem.o
 .bss.mem_mutex
                0x20030418        0x4 Middlewares\LwIP\mem.o
 .bss.ram       0x2003041c        0x4 Middlewares\LwIP\mem.o
 .bss.ram_end   0x20030420        0x4 Middlewares\LwIP\mem.o
 .bss.memp_tab_FRAG_PBUF
                0x20030424        0x4 Middlewares\LwIP\memp.o
 .bss.memp_tab_NETBUF
                0x20030428        0x4 Middlewares\LwIP\memp.o
 .bss.memp_tab_NETCONN
                0x2003042c        0x4 Middlewares\LwIP\memp.o
 .bss.memp_tab_PBUF
                0x20030430        0x4 Middlewares\LwIP\memp.o
 .bss.memp_tab_PBUF_POOL
                0x20030434        0x4 Middlewares\LwIP\memp.o
 .bss.memp_tab_REASSDATA
                0x20030438        0x4 Middlewares\LwIP\memp.o
 .bss.memp_tab_SYS_TIMEOUT
                0x2003043c        0x4 Middlewares\LwIP\memp.o
 .bss.memp_tab_TCPIP_MSG_API
                0x20030440        0x4 Middlewares\LwIP\memp.o
 .bss.memp_tab_TCPIP_MSG_INPKT
                0x20030444        0x4 Middlewares\LwIP\memp.o
 .bss.memp_tab_TCP_PCB
                0x20030448        0x4 Middlewares\LwIP\memp.o
 .bss.memp_tab_TCP_PCB_LISTEN
                0x2003044c        0x4 Middlewares\LwIP\memp.o
 .bss.memp_tab_TCP_SEG
                0x20030450        0x4 Middlewares\LwIP\memp.o
 .bss.memp_tab_UDP_PCB
                0x20030454        0x4 Middlewares\LwIP\memp.o
 .bss.netif_num
                0x20030458        0x1 Middlewares\LwIP\netif.o
 .bss.tcp_timer
                0x20030459        0x1 Middlewares\LwIP\tcp.o
 .bss.tcp_timer_ctr
                0x2003045a        0x1 Middlewares\LwIP\tcp.o
 *fill*         0x2003045b        0x1 
 .bss.ackno     0x2003045c        0x4 Middlewares\LwIP\tcp_in.o
 .bss.flags     0x20030460        0x1 Middlewares\LwIP\tcp_in.o
 *fill*         0x20030461        0x3 
 .bss.inseg     0x20030464       0x10 Middlewares\LwIP\tcp_in.o
 .bss.recv_acked
                0x20030474        0x2 Middlewares\LwIP\tcp_in.o
 *fill*         0x20030476        0x2 
 .bss.recv_data
                0x20030478        0x4 Middlewares\LwIP\tcp_in.o
 .bss.recv_flags
                0x2003047c        0x1 Middlewares\LwIP\tcp_in.o
 *fill*         0x2003047d        0x3 
 .bss.seqno     0x20030480        0x4 Middlewares\LwIP\tcp_in.o
 .bss.tcp_optidx
                0x20030484        0x2 Middlewares\LwIP\tcp_in.o
 *fill*         0x20030486        0x2 
 .bss.tcphdr    0x20030488        0x4 Middlewares\LwIP\tcp_in.o
 .bss.tcphdr_opt1len
                0x2003048c        0x2 Middlewares\LwIP\tcp_in.o
 *fill*         0x2003048e        0x2 
 .bss.tcphdr_opt2
                0x20030490        0x4 Middlewares\LwIP\tcp_in.o
 .bss.tcphdr_optlen
                0x20030494        0x2 Middlewares\LwIP\tcp_in.o
 .bss.tcplen    0x20030496        0x2 Middlewares\LwIP\tcp_in.o
 .bss.mbox      0x20030498        0x4 Middlewares\LwIP\tcpip.o
 .bss.tcpip_init_done
                0x2003049c        0x4 Middlewares\LwIP\tcpip.o
 .bss.tcpip_init_done_arg
                0x200304a0        0x4 Middlewares\LwIP\tcpip.o
 .bss.next_timeout
                0x200304a4        0x4 Middlewares\LwIP\timeouts.o
 .bss.tcpip_tcp_timer_active
                0x200304a8        0x4 Middlewares\LwIP\timeouts.o
 .bss.timeouts_last_time
                0x200304ac        0x4 Middlewares\LwIP\timeouts.o
 .bss.__malloc_free_list
                0x200304b0        0x4 c:/program files (x86)/atollic/truestudio for stm32 9.0.0/armtools/bin/../lib/gcc/arm-atollic-eabi/6.3.1/../../../../arm-atollic-eabi/lib/armv7e-m/fpu/fpv5-sp-d16\libc_nano.a(lib_a-nano-mallocr.o)
                0x200304b0                __malloc_free_list
 .bss.__malloc_sbrk_start
                0x200304b4        0x4 c:/program files (x86)/atollic/truestudio for stm32 9.0.0/armtools/bin/../lib/gcc/arm-atollic-eabi/6.3.1/../../../../arm-atollic-eabi/lib/armv7e-m/fpu/fpv5-sp-d16\libc_nano.a(lib_a-nano-mallocr.o)
                0x200304b4                __malloc_sbrk_start
 *(COMMON)
 COMMON         0x200304b8     0x30e8 Application\User\ethernetif.o
                0x200304b8                DMATxDscrTab
                0x20030538                Rx_Buff
                0x20031d08                DMARxDscrTab
                0x20031d88                heth
                0x20031dd0                Tx_Buff
 COMMON         0x200335a0      0x46c Application\User\fatfs.o
                0x200335a0                retSD
                0x200335a1                SDPath
                0x200335a8                SDFile
                0x200337d8                SDFatFS
 COMMON         0x20033a0c       0x40 Application\User\lwip.o
                0x20033a0c                gnetif
                0x20033a40                ipaddr
                0x20033a44                netmask
                0x20033a48                gw
 COMMON         0x20033a4c      0xac4 Application\User\main.o
                0x20033a4c                hsai_BlockB2
                0x20033ad0                myRecursiveMutex02Handle
                0x20033ad4                defaultTaskHandle
                0x20033ad8                hi2c3
                0x20033b24                myRecursiveMutex01Handle
                0x20033b28                hspi2
                0x20033b8c                htim8
                0x20033bcc                hspdif
                0x20033c18                hsai_BlockA2
                0x20033c9c                hi2c1
                0x20033ce8                hcrc
                0x20033d0c                hsd1
                0x20033d90                myTimer02Handle
                0x20033d94                htim5
                0x20033dd4                htim3
                0x20033e14                hltdc
                0x20033ebc                hadc3
                0x20033f04                myCountingSem02Handle
                0x20033f08                hdcmi
                0x20033f58                htim13
                0x20033f98                huart1
                0x20034008                hhcd_USB_OTG_HS
                0x200342a0                myBinarySem02Handle
                0x200342a4                myTask02Handle
                0x200342a8                hrtc
                0x200342c8                myCountingSem01Handle
                0x200342cc                htim1
                0x2003430c                myTimer01Handle
                0x20034310                myBinarySem01Handle
                0x20034314                myTask03Handle
                0x20034318                huart6
                0x20034388                hdma2d
                0x200343c8                htim2
                0x20034408                htim14
                0x20034448                htim12
                0x20034488                hsdram1
                0x200344bc                myMutex01Handle
                0x200344c0                myMutex02Handle
                0x200344c4                hqspi
 COMMON         0x20034510       0x40 Application\User\stm32f7xx_hal_timebase_TIM.o
                0x20034510                htim6
 COMMON         0x20034550      0x3d0 Application\User\usb_host.o
                0x20034550                hUsbHostFS
 COMMON         0x20034920      0x298 Application\User\usbh_conf.o
                0x20034920                hhcd_USB_OTG_FS
 COMMON         0x20034bb8        0x4 Drivers\STM32F7xx_HAL_Driver\stm32f7xx_hal.o
                0x20034bb8                uwTick
 COMMON         0x20034bbc       0x40 Middlewares\FreeRTOS\queue.o
                0x20034bbc                xQueueRegistry
 COMMON         0x20034bfc       0x28 Middlewares\LwIP\dhcp.o
                0x20034bfc                dhcp_rx_options_given
                0x20034c04                dhcp_rx_options_val
 COMMON         0x20034c24       0x18 Middlewares\LwIP\ip.o
                0x20034c24                ip_data
 COMMON         0x20034c3c      0x653 Middlewares\LwIP\mem.o
                0x20034c3c                ram_heap
 COMMON         0x2003528f     0x30a7 Middlewares\LwIP\memp.o
                0x2003528f                memp_memory_NETBUF_base
                0x200352b2                memp_memory_TCPIP_MSG_INPKT_base
                0x20035335                memp_memory_TCP_SEG_base
                0x20035438                memp_memory_PBUF_POOL_base
                0x20037a3b                memp_memory_FRAG_PBUF_base
                0x20037ba6                memp_memory_TCPIP_MSG_API_base
                0x20037c29                memp_memory_PBUF_base
                0x20037d2c                memp_memory_TCP_PCB_LISTEN_base
                0x20037e0f                memp_memory_REASSDATA_base
                0x20037eb2                memp_memory_UDP_PCB_base
                0x20037f35                memp_memory_NETCONN_base
                0x20037fe8                memp_memory_TCP_PCB_base
                0x200382e3                memp_memory_SYS_TIMEOUT_base
 *fill*         0x20038336        0x2 
 COMMON         0x20038338        0x8 Middlewares\LwIP\netif.o
                0x20038338                netif_list
                0x2003833c                netif_default
 COMMON         0x20038340        0x1 Middlewares\LwIP\pbuf.o
                0x20038340                pbuf_free_ooseq_pending
 *fill*         0x20038341        0x3 
 COMMON         0x20038344        0x8 Middlewares\LwIP\sys_arch.o
                0x20038344                errno
                0x20038348                lwip_sys_mutex
 COMMON         0x2003834c       0x18 Middlewares\LwIP\tcp.o
                0x2003834c                tcp_active_pcbs_changed
                0x20038350                tcp_active_pcbs
                0x20038354                tcp_ticks
                0x20038358                tcp_listen_pcbs
                0x2003835c                tcp_bound_pcbs
                0x20038360                tcp_tw_pcbs
 COMMON         0x20038364        0x4 Middlewares\LwIP\tcp_in.o
                0x20038364                tcp_input_pcb
 COMMON         0x20038368        0x4 Middlewares\LwIP\tcpip.o
                0x20038368                lock_tcpip_core
 COMMON         0x2003836c        0x4 Middlewares\LwIP\udp.o
                0x2003836c                udp_pcbs
                0x20038370                . = ALIGN (0x4)
                0x20038370                _ebss = .
                0x20038370                __bss_end__ = _ebss

._user_heap_stack
                0x20038370      0x600 load address 0x08016978
                0x20038370                . = ALIGN (0x4)
                0x20038370                PROVIDE (end, .)
                [!provide]                PROVIDE (_end, .)
                0x20038570                . = (. + _Min_Heap_Size)
 *fill*         0x20038370      0x200 
                0x20038970                . = (. + _Min_Stack_Size)
 *fill*         0x20038570      0x400 
                0x20038970                . = ALIGN (0x4)

/DISCARD/
 libc.a(*)
 libm.a(*)
 libgcc.a(*)

.ARM.attributes
                0x00000000       0x30
 *(.ARM.attributes)
 .ARM.attributes
                0x00000000       0x22 c:/program files (x86)/atollic/truestudio for stm32 9.0.0/armtools/bin/../lib/gcc/arm-atollic-eabi/6.3.1/armv7e-m/fpu/fpv5-sp-d16/crti.o
 .ARM.attributes
                0x00000022       0x34 c:/program files (x86)/atollic/truestudio for stm32 9.0.0/armtools/bin/../lib/gcc/arm-atollic-eabi/6.3.1/armv7e-m/fpu/fpv5-sp-d16/crtbegin.o
 .ARM.attributes
                0x00000056       0x21 Application\TrueSTUDIO\startup_stm32f746xx.o
 .ARM.attributes
                0x00000077       0x39 Application\User\bsp_driver_sd.o
 .ARM.attributes
                0x000000b0       0x39 Application\User\ethernetif.o
 .ARM.attributes
                0x000000e9       0x39 Application\User\fatfs.o
 .ARM.attributes
                0x00000122       0x39 Application\User\fatfs_platform.o
 .ARM.attributes
                0x0000015b       0x39 Application\User\freertos.o
 .ARM.attributes
                0x00000194       0x39 Application\User\lwip.o
 .ARM.attributes
                0x000001cd       0x39 Application\User\main.o
 .ARM.attributes
                0x00000206       0x39 Application\User\sd_diskio.o
 .ARM.attributes
                0x0000023f       0x39 Application\User\stm32f7xx_hal_msp.o
 .ARM.attributes
                0x00000278       0x39 Application\User\stm32f7xx_hal_timebase_TIM.o
 .ARM.attributes
                0x000002b1       0x39 Application\User\stm32f7xx_it.o
 .ARM.attributes
                0x000002ea       0x39 Application\User\syscalls.o
 .ARM.attributes
                0x00000323       0x39 Application\User\usb_host.o
 .ARM.attributes
                0x0000035c       0x39 Application\User\usbh_conf.o
 .ARM.attributes
                0x00000395       0x39 Application\User\usbh_platform.o
 .ARM.attributes
                0x000003ce       0x39 Drivers\CMSIS\system_stm32f7xx.o
 .ARM.attributes
                0x00000407       0x39 Drivers\STM32F7xx_HAL_Driver\stm32f7xx_hal.o
 .ARM.attributes
                0x00000440       0x39 Drivers\STM32F7xx_HAL_Driver\stm32f7xx_hal_adc.o
 .ARM.attributes
                0x00000479       0x39 Drivers\STM32F7xx_HAL_Driver\stm32f7xx_hal_cortex.o
 .ARM.attributes
                0x000004b2       0x39 Drivers\STM32F7xx_HAL_Driver\stm32f7xx_hal_crc.o
 .ARM.attributes
                0x000004eb       0x39 Drivers\STM32F7xx_HAL_Driver\stm32f7xx_hal_crc_ex.o
 .ARM.attributes
                0x00000524       0x39 Drivers\STM32F7xx_HAL_Driver\stm32f7xx_hal_dcmi.o
 .ARM.attributes
                0x0000055d       0x39 Drivers\STM32F7xx_HAL_Driver\stm32f7xx_hal_dma.o
 .ARM.attributes
                0x00000596       0x39 Drivers\STM32F7xx_HAL_Driver\stm32f7xx_hal_dma2d.o
 .ARM.attributes
                0x000005cf       0x39 Drivers\STM32F7xx_HAL_Driver\stm32f7xx_hal_eth.o
 .ARM.attributes
                0x00000608       0x39 Drivers\STM32F7xx_HAL_Driver\stm32f7xx_hal_gpio.o
 .ARM.attributes
                0x00000641       0x39 Drivers\STM32F7xx_HAL_Driver\stm32f7xx_hal_hcd.o
 .ARM.attributes
                0x0000067a       0x39 Drivers\STM32F7xx_HAL_Driver\stm32f7xx_hal_i2c.o
 .ARM.attributes
                0x000006b3       0x39 Drivers\STM32F7xx_HAL_Driver\stm32f7xx_hal_i2c_ex.o
 .ARM.attributes
                0x000006ec       0x39 Drivers\STM32F7xx_HAL_Driver\stm32f7xx_hal_ltdc.o
 .ARM.attributes
                0x00000725       0x39 Drivers\STM32F7xx_HAL_Driver\stm32f7xx_hal_pwr_ex.o
 .ARM.attributes
                0x0000075e       0x39 Drivers\STM32F7xx_HAL_Driver\stm32f7xx_hal_qspi.o
 .ARM.attributes
                0x00000797       0x39 Drivers\STM32F7xx_HAL_Driver\stm32f7xx_hal_rcc.o
 .ARM.attributes
                0x000007d0       0x39 Drivers\STM32F7xx_HAL_Driver\stm32f7xx_hal_rcc_ex.o
 .ARM.attributes
                0x00000809       0x39 Drivers\STM32F7xx_HAL_Driver\stm32f7xx_hal_rtc.o
 .ARM.attributes
                0x00000842       0x39 Drivers\STM32F7xx_HAL_Driver\stm32f7xx_hal_rtc_ex.o
 .ARM.attributes
                0x0000087b       0x39 Drivers\STM32F7xx_HAL_Driver\stm32f7xx_hal_sai.o
 .ARM.attributes
                0x000008b4       0x39 Drivers\STM32F7xx_HAL_Driver\stm32f7xx_hal_sd.o
 .ARM.attributes
                0x000008ed       0x39 Drivers\STM32F7xx_HAL_Driver\stm32f7xx_hal_sdram.o
 .ARM.attributes
                0x00000926       0x39 Drivers\STM32F7xx_HAL_Driver\stm32f7xx_hal_spdifrx.o
 .ARM.attributes
                0x0000095f       0x39 Drivers\STM32F7xx_HAL_Driver\stm32f7xx_hal_spi.o
 .ARM.attributes
                0x00000998       0x39 Drivers\STM32F7xx_HAL_Driver\stm32f7xx_hal_tim.o
 .ARM.attributes
                0x000009d1       0x39 Drivers\STM32F7xx_HAL_Driver\stm32f7xx_hal_tim_ex.o
 .ARM.attributes
                0x00000a0a       0x39 Drivers\STM32F7xx_HAL_Driver\stm32f7xx_hal_uart.o
 .ARM.attributes
                0x00000a43       0x39 Drivers\STM32F7xx_HAL_Driver\stm32f7xx_ll_fmc.o
 .ARM.attributes
                0x00000a7c       0x39 Drivers\STM32F7xx_HAL_Driver\stm32f7xx_ll_sdmmc.o
 .ARM.attributes
                0x00000ab5       0x39 Drivers\STM32F7xx_HAL_Driver\stm32f7xx_ll_usb.o
 .ARM.attributes
                0x00000aee       0x39 Middlewares\FatFs\ff_gen_drv.o
 .ARM.attributes
                0x00000b27       0x39 Middlewares\FreeRTOS\cmsis_os.o
 .ARM.attributes
                0x00000b60       0x39 Middlewares\FreeRTOS\heap_4.o
 .ARM.attributes
                0x00000b99       0x39 Middlewares\FreeRTOS\list.o
 .ARM.attributes
                0x00000bd2       0x39 Middlewares\FreeRTOS\port.o
 .ARM.attributes
                0x00000c0b       0x39 Middlewares\FreeRTOS\queue.o
 .ARM.attributes
                0x00000c44       0x39 Middlewares\FreeRTOS\tasks.o
 .ARM.attributes
                0x00000c7d       0x39 Middlewares\FreeRTOS\timers.o
 .ARM.attributes
                0x00000cb6       0x39 Middlewares\LwIP\def.o
 .ARM.attributes
                0x00000cef       0x39 Middlewares\LwIP\dhcp.o
 .ARM.attributes
                0x00000d28       0x39 Middlewares\LwIP\etharp.o
 .ARM.attributes
                0x00000d61       0x39 Middlewares\LwIP\ethernet.o
 .ARM.attributes
                0x00000d9a       0x39 Middlewares\LwIP\icmp.o
 .ARM.attributes
                0x00000dd3       0x39 Middlewares\LwIP\init.o
 .ARM.attributes
                0x00000e0c       0x39 Middlewares\LwIP\ip.o
 .ARM.attributes
                0x00000e45       0x39 Middlewares\LwIP\ip4.o
 .ARM.attributes
                0x00000e7e       0x39 Middlewares\LwIP\ip4_addr.o
 .ARM.attributes
                0x00000eb7       0x39 Middlewares\LwIP\ip4_frag.o
 .ARM.attributes
                0x00000ef0       0x39 Middlewares\LwIP\mem.o
 .ARM.attributes
                0x00000f29       0x39 Middlewares\LwIP\memp.o
 .ARM.attributes
                0x00000f62       0x39 Middlewares\LwIP\netif.o
 .ARM.attributes
                0x00000f9b       0x39 Middlewares\LwIP\pbuf.o
 .ARM.attributes
                0x00000fd4       0x39 Middlewares\LwIP\sys_arch.o
 .ARM.attributes
                0x0000100d       0x39 Middlewares\LwIP\tcp.o
 .ARM.attributes
                0x00001046       0x39 Middlewares\LwIP\tcp_in.o
 .ARM.attributes
                0x0000107f       0x39 Middlewares\LwIP\tcp_out.o
 .ARM.attributes
                0x000010b8       0x39 Middlewares\LwIP\tcpip.o
 .ARM.attributes
                0x000010f1       0x39 Middlewares\LwIP\timeouts.o
 .ARM.attributes
                0x0000112a       0x39 Middlewares\LwIP\udp.o
 .ARM.attributes
                0x00001163       0x39 Middlewares\USB_Host_Library\usbh_cdc.o
 .ARM.attributes
                0x0000119c       0x39 Middlewares\USB_Host_Library\usbh_core.o
 .ARM.attributes
                0x000011d5       0x39 Middlewares\USB_Host_Library\usbh_ctlreq.o
 .ARM.attributes
                0x0000120e       0x39 Middlewares\USB_Host_Library\usbh_ioreq.o
 .ARM.attributes
                0x00001247       0x39 Middlewares\USB_Host_Library\usbh_pipes.o
 .ARM.attributes
                0x00001280       0x34 c:/program files (x86)/atollic/truestudio for stm32 9.0.0/armtools/bin/../lib/gcc/arm-atollic-eabi/6.3.1/../../../../arm-atollic-eabi/lib/armv7e-m/fpu/fpv5-sp-d16\libc_nano.a(lib_a-init.o)
 .ARM.attributes
                0x000012b4       0x34 c:/program files (x86)/atollic/truestudio for stm32 9.0.0/armtools/bin/../lib/gcc/arm-atollic-eabi/6.3.1/../../../../arm-atollic-eabi/lib/armv7e-m/fpu/fpv5-sp-d16\libc_nano.a(lib_a-malloc.o)
 .ARM.attributes
                0x000012e8       0x34 c:/program files (x86)/atollic/truestudio for stm32 9.0.0/armtools/bin/../lib/gcc/arm-atollic-eabi/6.3.1/../../../../arm-atollic-eabi/lib/armv7e-m/fpu/fpv5-sp-d16\libc_nano.a(lib_a-memcmp.o)
 .ARM.attributes
                0x0000131c       0x34 c:/program files (x86)/atollic/truestudio for stm32 9.0.0/armtools/bin/../lib/gcc/arm-atollic-eabi/6.3.1/../../../../arm-atollic-eabi/lib/armv7e-m/fpu/fpv5-sp-d16\libc_nano.a(lib_a-memcpy-stub.o)
 .ARM.attributes
                0x00001350       0x34 c:/program files (x86)/atollic/truestudio for stm32 9.0.0/armtools/bin/../lib/gcc/arm-atollic-eabi/6.3.1/../../../../arm-atollic-eabi/lib/armv7e-m/fpu/fpv5-sp-d16\libc_nano.a(lib_a-memset.o)
 .ARM.attributes
                0x00001384       0x34 c:/program files (x86)/atollic/truestudio for stm32 9.0.0/armtools/bin/../lib/gcc/arm-atollic-eabi/6.3.1/../../../../arm-atollic-eabi/lib/armv7e-m/fpu/fpv5-sp-d16\libc_nano.a(lib_a-nano-freer.o)
 .ARM.attributes
                0x000013b8       0x34 c:/program files (x86)/atollic/truestudio for stm32 9.0.0/armtools/bin/../lib/gcc/arm-atollic-eabi/6.3.1/../../../../arm-atollic-eabi/lib/armv7e-m/fpu/fpv5-sp-d16\libc_nano.a(lib_a-nano-mallocr.o)
 .ARM.attributes
                0x000013ec       0x34 c:/program files (x86)/atollic/truestudio for stm32 9.0.0/armtools/bin/../lib/gcc/arm-atollic-eabi/6.3.1/../../../../arm-atollic-eabi/lib/armv7e-m/fpu/fpv5-sp-d16\libc_nano.a(lib_a-printf.o)
 .ARM.attributes
                0x00001420       0x34 c:/program files (x86)/atollic/truestudio for stm32 9.0.0/armtools/bin/../lib/gcc/arm-atollic-eabi/6.3.1/../../../../arm-atollic-eabi/lib/armv7e-m/fpu/fpv5-sp-d16\libc_nano.a(lib_a-rand.o)
 .ARM.attributes
                0x00001454       0x34 c:/program files (x86)/atollic/truestudio for stm32 9.0.0/armtools/bin/../lib/gcc/arm-atollic-eabi/6.3.1/../../../../arm-atollic-eabi/lib/armv7e-m/fpu/fpv5-sp-d16\libc_nano.a(lib_a-sbrkr.o)
 .ARM.attributes
                0x00001488       0x34 c:/program files (x86)/atollic/truestudio for stm32 9.0.0/armtools/bin/../lib/gcc/arm-atollic-eabi/6.3.1/../../../../arm-atollic-eabi/lib/armv7e-m/fpu/fpv5-sp-d16\libc_nano.a(lib_a-findfp.o)
 .ARM.attributes
                0x000014bc       0x34 c:/program files (x86)/atollic/truestudio for stm32 9.0.0/armtools/bin/../lib/gcc/arm-atollic-eabi/6.3.1/../../../../arm-atollic-eabi/lib/armv7e-m/fpu/fpv5-sp-d16\libc_nano.a(lib_a-fwalk.o)
 .ARM.attributes
                0x000014f0       0x34 c:/program files (x86)/atollic/truestudio for stm32 9.0.0/armtools/bin/../lib/gcc/arm-atollic-eabi/6.3.1/../../../../arm-atollic-eabi/lib/armv7e-m/fpu/fpv5-sp-d16\libc_nano.a(lib_a-impure.o)
 .ARM.attributes
                0x00001524       0x34 c:/program files (x86)/atollic/truestudio for stm32 9.0.0/armtools/bin/../lib/gcc/arm-atollic-eabi/6.3.1/../../../../arm-atollic-eabi/lib/armv7e-m/fpu/fpv5-sp-d16\libc_nano.a(lib_a-mlock.o)
 .ARM.attributes
                0x00001558       0x34 c:/program files (x86)/atollic/truestudio for stm32 9.0.0/armtools/bin/../lib/gcc/arm-atollic-eabi/6.3.1/../../../../arm-atollic-eabi/lib/armv7e-m/fpu/fpv5-sp-d16\libc_nano.a(lib_a-nano-vfprintf.o)
 .ARM.attributes
                0x0000158c       0x34 c:/program files (x86)/atollic/truestudio for stm32 9.0.0/armtools/bin/../lib/gcc/arm-atollic-eabi/6.3.1/../../../../arm-atollic-eabi/lib/armv7e-m/fpu/fpv5-sp-d16\libc_nano.a(lib_a-nano-vfprintf_i.o)
 .ARM.attributes
                0x000015c0       0x34 c:/program files (x86)/atollic/truestudio for stm32 9.0.0/armtools/bin/../lib/gcc/arm-atollic-eabi/6.3.1/../../../../arm-atollic-eabi/lib/armv7e-m/fpu/fpv5-sp-d16\libc_nano.a(lib_a-stdio.o)
 .ARM.attributes
                0x000015f4       0x34 c:/program files (x86)/atollic/truestudio for stm32 9.0.0/armtools/bin/../lib/gcc/arm-atollic-eabi/6.3.1/../../../../arm-atollic-eabi/lib/armv7e-m/fpu/fpv5-sp-d16\libc_nano.a(lib_a-wbuf.o)
 .ARM.attributes
                0x00001628       0x34 c:/program files (x86)/atollic/truestudio for stm32 9.0.0/armtools/bin/../lib/gcc/arm-atollic-eabi/6.3.1/../../../../arm-atollic-eabi/lib/armv7e-m/fpu/fpv5-sp-d16\libc_nano.a(lib_a-writer.o)
 .ARM.attributes
                0x0000165c       0x34 c:/program files (x86)/atollic/truestudio for stm32 9.0.0/armtools/bin/../lib/gcc/arm-atollic-eabi/6.3.1/../../../../arm-atollic-eabi/lib/armv7e-m/fpu/fpv5-sp-d16\libc_nano.a(lib_a-wsetup.o)
 .ARM.attributes
                0x00001690       0x34 c:/program files (x86)/atollic/truestudio for stm32 9.0.0/armtools/bin/../lib/gcc/arm-atollic-eabi/6.3.1/../../../../arm-atollic-eabi/lib/armv7e-m/fpu/fpv5-sp-d16\libc_nano.a(lib_a-closer.o)
 .ARM.attributes
                0x000016c4       0x34 c:/program files (x86)/atollic/truestudio for stm32 9.0.0/armtools/bin/../lib/gcc/arm-atollic-eabi/6.3.1/../../../../arm-atollic-eabi/lib/armv7e-m/fpu/fpv5-sp-d16\libc_nano.a(lib_a-fflush.o)
 .ARM.attributes
                0x000016f8       0x34 c:/program files (x86)/atollic/truestudio for stm32 9.0.0/armtools/bin/../lib/gcc/arm-atollic-eabi/6.3.1/../../../../arm-atollic-eabi/lib/armv7e-m/fpu/fpv5-sp-d16\libc_nano.a(lib_a-lseekr.o)
 .ARM.attributes
                0x0000172c       0x34 c:/program files (x86)/atollic/truestudio for stm32 9.0.0/armtools/bin/../lib/gcc/arm-atollic-eabi/6.3.1/../../../../arm-atollic-eabi/lib/armv7e-m/fpu/fpv5-sp-d16\libc_nano.a(lib_a-makebuf.o)
 .ARM.attributes
                0x00001760       0x20 c:/program files (x86)/atollic/truestudio for stm32 9.0.0/armtools/bin/../lib/gcc/arm-atollic-eabi/6.3.1/../../../../arm-atollic-eabi/lib/armv7e-m/fpu/fpv5-sp-d16\libc_nano.a(lib_a-memchr.o)
 .ARM.attributes
                0x00001780       0x34 c:/program files (x86)/atollic/truestudio for stm32 9.0.0/armtools/bin/../lib/gcc/arm-atollic-eabi/6.3.1/../../../../arm-atollic-eabi/lib/armv7e-m/fpu/fpv5-sp-d16\libc_nano.a(lib_a-readr.o)
 .ARM.attributes
                0x000017b4       0x34 c:/program files (x86)/atollic/truestudio for stm32 9.0.0/armtools/bin/../lib/gcc/arm-atollic-eabi/6.3.1/../../../../arm-atollic-eabi/lib/armv7e-m/fpu/fpv5-sp-d16\libc_nano.a(lib_a-fstatr.o)
 .ARM.attributes
                0x000017e8       0x34 c:/program files (x86)/atollic/truestudio for stm32 9.0.0/armtools/bin/../lib/gcc/arm-atollic-eabi/6.3.1/../../../../arm-atollic-eabi/lib/armv7e-m/fpu/fpv5-sp-d16\libc_nano.a(lib_a-isattyr.o)
 .ARM.attributes
                0x0000181c       0x22 c:/program files (x86)/atollic/truestudio for stm32 9.0.0/armtools/bin/../lib/gcc/arm-atollic-eabi/6.3.1/armv7e-m/fpu/fpv5-sp-d16\libgcc.a(_aeabi_uldivmod.o)
 .ARM.attributes
                0x0000183e       0x34 c:/program files (x86)/atollic/truestudio for stm32 9.0.0/armtools/bin/../lib/gcc/arm-atollic-eabi/6.3.1/armv7e-m/fpu/fpv5-sp-d16\libgcc.a(_udivmoddi4.o)
 .ARM.attributes
                0x00001872       0x22 c:/program files (x86)/atollic/truestudio for stm32 9.0.0/armtools/bin/../lib/gcc/arm-atollic-eabi/6.3.1/armv7e-m/fpu/fpv5-sp-d16\libgcc.a(_dvmd_tls.o)
 .ARM.attributes
                0x00001894       0x22 c:/program files (x86)/atollic/truestudio for stm32 9.0.0/armtools/bin/../lib/gcc/arm-atollic-eabi/6.3.1/armv7e-m/fpu/fpv5-sp-d16/crtn.o
OUTPUT(STM32F746_Disco_Proj.elf elf32-littlearm)

.debug_line     0x00000000    0x280a1
 .debug_line    0x00000000       0x7a Application\TrueSTUDIO\startup_stm32f746xx.o
 .debug_line    0x0000007a      0x3a8 Application\User\bsp_driver_sd.o
 .debug_line    0x00000422      0x797 Application\User\ethernetif.o
 .debug_line    0x00000bb9      0x3cd Application\User\fatfs.o
 .debug_line    0x00000f86      0x294 Application\User\fatfs_platform.o
 .debug_line    0x0000121a      0x1b2 Application\User\freertos.o
 .debug_line    0x000013cc      0x5b7 Application\User\lwip.o
 .debug_line    0x00001983      0xddf Application\User\main.o
 .debug_line    0x00002762      0x4c6 Application\User\sd_diskio.o
 .debug_line    0x00002c28      0xa20 Application\User\stm32f7xx_hal_msp.o
 .debug_line    0x00003648      0x344 Application\User\stm32f7xx_hal_timebase_TIM.o
 .debug_line    0x0000398c      0x3e3 Application\User\stm32f7xx_it.o
 .debug_line    0x00003d6f      0x4c5 Application\User\syscalls.o
 .debug_line    0x00004234      0x422 Application\User\usb_host.o
 .debug_line    0x00004656      0x693 Application\User\usbh_conf.o
 .debug_line    0x00004ce9      0x295 Application\User\usbh_platform.o
 .debug_line    0x00004f7e      0x286 Drivers\CMSIS\system_stm32f7xx.o
 .debug_line    0x00005204      0x512 Drivers\STM32F7xx_HAL_Driver\stm32f7xx_hal.o
 .debug_line    0x00005716      0x9a6 Drivers\STM32F7xx_HAL_Driver\stm32f7xx_hal_adc.o
 .debug_line    0x000060bc      0x5ca Drivers\STM32F7xx_HAL_Driver\stm32f7xx_hal_cortex.o
 .debug_line    0x00006686      0x4a1 Drivers\STM32F7xx_HAL_Driver\stm32f7xx_hal_crc.o
 .debug_line    0x00006b27      0x36f Drivers\STM32F7xx_HAL_Driver\stm32f7xx_hal_crc_ex.o
 .debug_line    0x00006e96      0x69c Drivers\STM32F7xx_HAL_Driver\stm32f7xx_hal_dcmi.o
 .debug_line    0x00007532      0x77b Drivers\STM32F7xx_HAL_Driver\stm32f7xx_hal_dma.o
 .debug_line    0x00007cad      0x977 Drivers\STM32F7xx_HAL_Driver\stm32f7xx_hal_dma2d.o
 .debug_line    0x00008624      0xbf1 Drivers\STM32F7xx_HAL_Driver\stm32f7xx_hal_eth.o
 .debug_line    0x00009215      0x5d5 Drivers\STM32F7xx_HAL_Driver\stm32f7xx_hal_gpio.o
 .debug_line    0x000097ea      0x6ae Drivers\STM32F7xx_HAL_Driver\stm32f7xx_hal_hcd.o
 .debug_line    0x00009e98     0x1691 Drivers\STM32F7xx_HAL_Driver\stm32f7xx_hal_i2c.o
 .debug_line    0x0000b529      0x3dc Drivers\STM32F7xx_HAL_Driver\stm32f7xx_hal_i2c_ex.o
 .debug_line    0x0000b905      0xdd8 Drivers\STM32F7xx_HAL_Driver\stm32f7xx_hal_ltdc.o
 .debug_line    0x0000c6dd      0x48b Drivers\STM32F7xx_HAL_Driver\stm32f7xx_hal_pwr_ex.o
 .debug_line    0x0000cb68      0xbac Drivers\STM32F7xx_HAL_Driver\stm32f7xx_hal_qspi.o
 .debug_line    0x0000d714      0x740 Drivers\STM32F7xx_HAL_Driver\stm32f7xx_hal_rcc.o
 .debug_line    0x0000de54      0x6d1 Drivers\STM32F7xx_HAL_Driver\stm32f7xx_hal_rcc_ex.o
 .debug_line    0x0000e525      0xa06 Drivers\STM32F7xx_HAL_Driver\stm32f7xx_hal_rtc.o
 .debug_line    0x0000ef2b      0xc2e Drivers\STM32F7xx_HAL_Driver\stm32f7xx_hal_rtc_ex.o
 .debug_line    0x0000fb59      0xc9f Drivers\STM32F7xx_HAL_Driver\stm32f7xx_hal_sai.o
 .debug_line    0x000107f8      0xb7b Drivers\STM32F7xx_HAL_Driver\stm32f7xx_hal_sd.o
 .debug_line    0x00011373      0x5ff Drivers\STM32F7xx_HAL_Driver\stm32f7xx_hal_sdram.o
 .debug_line    0x00011972      0x89b Drivers\STM32F7xx_HAL_Driver\stm32f7xx_hal_spdifrx.o
 .debug_line    0x0001220d      0xe29 Drivers\STM32F7xx_HAL_Driver\stm32f7xx_hal_spi.o
 .debug_line    0x00013036     0x2fd4 Drivers\STM32F7xx_HAL_Driver\stm32f7xx_hal_tim.o
 .debug_line    0x0001600a     0x11d7 Drivers\STM32F7xx_HAL_Driver\stm32f7xx_hal_tim_ex.o
 .debug_line    0x000171e1      0xe6e Drivers\STM32F7xx_HAL_Driver\stm32f7xx_hal_uart.o
 .debug_line    0x0001804f      0x9b4 Drivers\STM32F7xx_HAL_Driver\stm32f7xx_ll_fmc.o
 .debug_line    0x00018a03      0x8d1 Drivers\STM32F7xx_HAL_Driver\stm32f7xx_ll_sdmmc.o
 .debug_line    0x000192d4      0x95e Drivers\STM32F7xx_HAL_Driver\stm32f7xx_ll_usb.o
 .debug_line    0x00019c32      0x353 Middlewares\FatFs\ff_gen_drv.o
 .debug_line    0x00019f85      0x9c4 Middlewares\FreeRTOS\cmsis_os.o
 .debug_line    0x0001a949      0x435 Middlewares\FreeRTOS\heap_4.o
 .debug_line    0x0001ad7e      0x386 Middlewares\FreeRTOS\list.o
 .debug_line    0x0001b104      0x354 Middlewares\FreeRTOS\port.o
 .debug_line    0x0001b458      0x970 Middlewares\FreeRTOS\queue.o
 .debug_line    0x0001bdc8      0xf4d Middlewares\FreeRTOS\tasks.o
 .debug_line    0x0001cd15      0x5fb Middlewares\FreeRTOS\timers.o
 .debug_line    0x0001d310      0x3c9 Middlewares\LwIP\def.o
 .debug_line    0x0001d6d9      0xb00 Middlewares\LwIP\dhcp.o
 .debug_line    0x0001e1d9      0x798 Middlewares\LwIP\etharp.o
 .debug_line    0x0001e971      0x4dc Middlewares\LwIP\ethernet.o
 .debug_line    0x0001ee4d      0x4c2 Middlewares\LwIP\icmp.o
 .debug_line    0x0001f30f      0x452 Middlewares\LwIP\init.o
 .debug_line    0x0001f761      0x3d4 Middlewares\LwIP\ip.o
 .debug_line    0x0001fb35      0x5e5 Middlewares\LwIP\ip4.o
 .debug_line    0x0002011a      0x4ea Middlewares\LwIP\ip4_addr.o
 .debug_line    0x00020604      0x6ec Middlewares\LwIP\ip4_frag.o
 .debug_line    0x00020cf0      0x615 Middlewares\LwIP\mem.o
 .debug_line    0x00021305      0x658 Middlewares\LwIP\memp.o
 .debug_line    0x0002195d      0x67b Middlewares\LwIP\netif.o
 .debug_line    0x00021fd8      0xab6 Middlewares\LwIP\pbuf.o
 .debug_line    0x00022a8e      0x5fa Middlewares\LwIP\sys_arch.o
 .debug_line    0x00023088      0xc9f Middlewares\LwIP\tcp.o
 .debug_line    0x00023d27      0xa61 Middlewares\LwIP\tcp_in.o
 .debug_line    0x00024788      0x9bf Middlewares\LwIP\tcp_out.o
 .debug_line    0x00025147      0x6cf Middlewares\LwIP\tcpip.o
 .debug_line    0x00025816      0x65c Middlewares\LwIP\timeouts.o
 .debug_line    0x00025e72      0x6f3 Middlewares\LwIP\udp.o
 .debug_line    0x00026565      0x65b Middlewares\USB_Host_Library\usbh_cdc.o
 .debug_line    0x00026bc0      0x656 Middlewares\USB_Host_Library\usbh_core.o
 .debug_line    0x00027216      0x5e2 Middlewares\USB_Host_Library\usbh_ctlreq.o
 .debug_line    0x000277f8      0x491 Middlewares\USB_Host_Library\usbh_ioreq.o
 .debug_line    0x00027c89      0x418 Middlewares\USB_Host_Library\usbh_pipes.o

.debug_info     0x00000000    0x91ddb
 .debug_info    0x00000000       0xa2 Application\TrueSTUDIO\startup_stm32f746xx.o
 .debug_info    0x000000a2     0x1305 Application\User\bsp_driver_sd.o
 .debug_info    0x000013a7     0x2493 Application\User\ethernetif.o
 .debug_info    0x0000383a      0xd82 Application\User\fatfs.o
 .debug_info    0x000045bc      0xa51 Application\User\fatfs_platform.o
 .debug_info    0x0000500d      0x11f Application\User\freertos.o
 .debug_info    0x0000512c     0x17b4 Application\User\lwip.o
